:020000040800F2
:10000000F81C0020A5570008E5260008E726000890
:10001000EB260008EF260008F32600080000000089
:10002000000000000000000000000000F7260008AB
:10003000F926000800000000FB260008FD26000845
:10004000BF570008BF570008BF570008BF57000838
:10005000BF570008BF570008FB280008A129000867
:10006000512A00086D2B0008B92C0008BF57000862
:10007000BF570008BF5700088B2800085D280008FC
:10008000BF570008BF570008BF570008BF570008F8
:10009000BF570008BF570008BF570008052E0008CB
:1000A000BF570008BF570008BF570008BF570008D8
:1000B000E7350008073600083F360008BF5700083C
:1000C000BF570008BF570008BF570008BF570008B8
:1000D000BF570008FF260008BF570008BF57000899
:1000E000EB300008BF570008BF57000800000000B1
:1000F0000000000000000000000000000000000000
:1001000000000000000000005D360008BF57000836
:10011000AF270008BF570008A5360008C3360008FF
:10012000BF570008AD280008BF570008BF57000898
:10013000DB280008BF570008BF570008BF5700085A
:10014000BF570008BF570008BF570008BF57000837
:1001500000F002F800F05AF80AA090E8000C82447F
:100160008344AAF10107DA4501D100F04FF8AFF25C
:10017000090EBAE80F0013F0010F18BFFB1A43F085
:1001800001031847A4700000C47000000A444FF037
:10019000000C10F8013B13F0070408BF10F8014BE6
:1001A0001D1108BF10F8015B641E05D010F8016B2B
:1001B000641E01F8016BF9D113F0080F1EBF10F88F
:1001C000014BAD1C0C1B09D16D1E58BF01F801CBB2
:1001D000FAD505E014F8016B01F8016B6D1EF9D535
:1001E0009142D6D37047000000230024002500264A
:1001F000103A28BF78C1FBD8520728BF30C148BF8A
:100200000B6070471FB51FBD10B510BD05F0E8FCB1
:100210001146FFF7F7FF02F0AEF805F006FD03B454
:10022000FFF7F2FF03BC05F007FD00002DE9F047E2
:100230009AB005468846002468E0FE49FE480068FA
:1002400006F042FD064606F007FDCDE91201FB4827
:10025000006806F001FD0646F94AFA4B06F008FB75
:10026000CDE90801681E06F0D8FACDE90201204662
:1002700006F0EAFA06460022F34B06F0F9FACDE959
:100280000001DDE9022306F013F9814600224FF058
:10029000804306F0EDFAED4AED4BCDE9040106F09E
:1002A000E7FACDE90601DDE9082306F051F8CDE9CA
:1002B0000A0105F0FDFFCDE90E01DE49DE480068C8
:1002C00006F002FD064606F0C7FCCDE90C01DDE9AB
:1002D0000E2306F0CDFACDE91001DDE9122306F078
:1002E00037F80022DB4BCDE9140106F0C1FA4FF0DC
:1002F0006632D94BCDE9160106F0DAF8CDE91801DE
:1003000006F05EFA28F81400601C84B2AC4294DB5C
:100310001AB0BDE8F08710B50121084604F06EF967
:10032000CE4803F031FECE48CE49086010208860E8
:100330004001C86000200861802048610020886179
:10034000C861202008620002486200208862C34819
:1003500003F0BCFE01220221C04803F0EEFE0122A0
:100360000821BE4803F0E9FE01228021BC48001F9D
:1003700003F098FC0021B94803F0D3FEB7481430CD
:1003800003F002FEB648B7490860B748486000204D
:1003900088604FF40070C8600020086180204861C8
:1003A00000208861C86120200862000248620020A5
:1003B0008862AA48143003F089FE01220221A7486E
:1003C000143003F0BAFE01220821A448143003F0CF
:1003D000B4FE01224021A248001F03F063FC01216A
:1003E0009E48143003F09DFE0120A04908700020B3
:1003F0009F49087010BD10B50121022004F0FEF8DD
:100400009C4803F0C1FD9C48964908601020886014
:100410004001C86000200861802048610020886198
:10042000C86120200862000248620020886291486A
:1004300003F04CFE012202218E4803F07EFE0122D1
:1004400008218C4803F079FE012280218A48001F90
:1004500003F028FC0021874803F063FE85483C3800
:1004600003F092FD84487F4908607F48486000207F
:1004700088604FF40070C8600020086180204861E7
:1004800000208861C86120200862000248620020C4
:10049000886278483C3803F019FE01220221754831
:1004A0003C3803F04AFE0122082172483C3803F030
:1004B00044FE012240217048001F03F0F3FB01219C
:1004C0006C483C3803F02DFE01206849087000207C
:1004D0006749087010BD10B501216D2004F09BF82C
:1004E00001213F2004F0A4F810BD08B5012105202A
:1004F00004F091F80121880304F08DF84FF40070A6
:10050000ADF8000018208DF8030003208DF80200DC
:1005100069465A4803F078F94FF48060ADF800005E
:1005200004208DF803006946544803F06DF9012159
:10053000112004F070F80121C80404F079F84FF498
:100540008060ADF8000018208DF8030003208DF8BE
:10055000020069464A4803F057F94FF40060ADF8CD
:10056000000004208DF803006946454803F04CF96B
:1005700008BD1FB54FF4165000900020ADF80400E0
:10058000ADF80600ADF80800ADF80C000C20ADF891
:100590000A0069463248001F03F0C7FA012240F200
:1005A00024412F48001F03F058FB01212C48001F55
:1005B00003F047FB40212A48001F03F02AFC1FBD1F
:1005C00000B587B04FF4165003900020ADF810002E
:1005D000ADF81200ADF81400ADF818000C20ADF81D
:1005E000160003A92448001F03F09FFA0020ADF86D
:1005F00004004FF40070ADF808000020ADF80600CC
:10060000ADF80A0001A91C48001F03F003FB0122FA
:1006100040F224411848001F03F01FFB0121164837
:10062000001F03F00EFB40211348001F03F0F1FBF5
:1006300007B000BD00007A44040000200000002044
:10064000514CDE0033DF913F0000F03F4AD8124D9D
:10065000FB21094000FEAF4066660A4044000240AC
:10066000043801405C1600205C08002029000020AE
:100670002800002058040240044C004000080140BB
:100680000010014008B54FF4A06003F00FFC2520D6
:100690008DF8000000208DF8010001208DF8020087
:1006A0008DF80300684603F006FC34208DF8000046
:1006B00000208DF8010003208DF8020001208DF844
:1006C0000300684603F0F7FB0E208DF800000020C1
:1006D0008DF8010001208DF802008DF803006846B6
:1006E00003F0E9FB0F208DF8000003208DF80100D6
:1006F00001208DF802008DF80300684603F0DBFB53
:100700003C208DF8000000208DF8010001208DF8BC
:1007100002008DF80300684603F0CDFB39208DF808
:10072000000003208DF8010001208DF802008DF8F3
:100730000300684603F0BFFB06208DF8000001208F
:100740008DF801008DF802008DF80300684603F073
:10075000B2FB07208DF8000001208DF801008DF814
:1007600002008DF80300684603F0A5FB08208DF811
:10077000000001208DF801008DF802008DF80300C3
:10078000684603F098FB09208DF8000001208DF8E1
:1007900001008DF802008DF80300684603F08BFB22
:1007A0000A208DF8000001208DF801008DF802006C
:1007B0008DF80300684603F07EFB17208DF80000DB
:1007C00001208DF801008DF802008DF803006846C5
:1007D00003F071FB28208DF8000001208DF8010046
:1007E0008DF802008DF80300684603F064FB1C20BE
:1007F0008DF8000003208DF8010001208DF8020023
:100800008DF80300684603F056FB1D208DF80000AC
:1008100003208DF8010001208DF802008DF80300FF
:10082000684603F048FB1E208DF8000003208DF879
:10083000010001208DF802008DF80300684603F0E6
:100840003AFB32208DF8000003208DF801000120D2
:100850008DF802008DF80300684603F02CFB36206B
:100860008DF8000003208DF8010001208DF80200B2
:100870008DF80300684603F01EFB37208DF800005A
:1008800003208DF8010001208DF802008DF803008F
:10089000684603F010FB08BD08B50121402003F0B5
:1008A000BAFE8020ADF8000003208DF80200102071
:1008B0008DF803006946F84802F0A6FF08BD10B5A0
:1008C0008021F54803F040F820B18021F24803F080
:1008D0004AF803E08021F04803F043F810BD08B562
:1008E0000220ADF8000048208DF8030003208DF8A9
:1008F00002006946E84802F087FF08BD7FB505465B
:100900000C460121082003F093FEADF80850ADF825
:1009100004400020ADF80A00ADF8060001A9DF4848
:1009200004F040F801221146DC4804F0B2FB32200A
:100930008DF8000003208DF8010001208DF80200E1
:100940008DF80300684603F0B6FA0121D34804F09D
:1009500085FB7FBD70B504460025601EC4B200BF94
:1009600014E0A54208D1CE4A32F81410CD4A52F80C
:10097000240002F0F6FF07E0C94A32F81510C94A10
:1009800052F8250002F0EFFF681CC5B2062DE8DB27
:1009900070BD10B504465A2C19D006DC1E2C0AD0A6
:1009A0002D2C0CD03C2C1ED10DE0B42C13D0B4F562
:1009B000877F18D113E00120FFF7CCFF14E002205D
:1009C000FFF7C8FF10E00320FFF7C4FF0CE004208E
:1009D000FFF7C0FF08E00520FFF7BCFF04E006209A
:1009E000FFF7B8FF00E000BF00BF10BD70B50446C0
:1009F0000025601EC4B200BF14E0A54208D1A84A79
:100A000032F81410A74A52F8240002F0AAFF07E0B7
:100A1000A34A32F81510A34A52F8250002F0A3FFAA
:100A2000681CC5B2062DE8DB70BD10B5044640F267
:100A3000DC51601A8C421CD008DCFA2C0DD0B4F5C5
:100A4000FA7F0ED0B4F57A7F1FD10EE0B0F5FA7FB1
:100A500013D0B0F57A7F18D113E00120FFF7C6FF5D
:100A600014E00220FFF7C2FF10E00320FFF7BEFFF3
:100A70000CE00420FFF7BAFF08E00520FFF7B6FFFF
:100A800004E00620FFF7B2FF00E000BF00BF10BD8A
:100A900070B504460025601EC4B200BF14E0A54234
:100AA00008D1814A32F81410804A52F8240002F02A
:100AB00058FF07E07C4A32F815107C4A52F82500AE
:100AC00002F051FF681CC5B2062DE8DB70BD10B501
:100AD000044640F2DC51601A8C421CD008DCFA2C2F
:100AE0000DD0B4F5FA7F0ED0B4F57A7F1FD10EE0A9
:100AF000B0F5FA7F13D0B0F57A7F18D113E001205A
:100B0000FFF7C6FF14E00220FFF7C2FF10E003204A
:100B1000FFF7BEFF0CE00420FFF7BAFF08E0052056
:100B2000FFF7B6FF04E00620FFF7B2FF00E000BFCA
:100B300000BF10BD70B504460D4600BF5C4800788C
:100B40000028FBD000205A4908700021594803F0C2
:100B5000E8FA58484438856404650121554803F093
:100B6000E0FA00BF544800780028FBD0002052492A
:100B700008700021514803F0D4FA5048001D056068
:100B80004E480C30046001214C4803F0CAFA70BD95
:100B900010B50446072C4DD2DFE804F00405101C04
:100BA0002834400047E008214548FFF7C3FF0120F3
:100BB000FFF71CFFFA20434908803CE00821424827
:100BC000FFF7B8FF0220FFF711FF4FF4FA703D491D
:100BD000088030E008213D48FFF7ACFF0320FFF715
:100BE00005FF4FF47A703749088024E0082138481F
:100BF000FFF7A0FF0420FFF7F9FE40F2DC50314977
:100C0000088018E008213348FFF794FF0520FFF71C
:100C1000EDFE4FF4FA602B4908800CE008212E48C5
:100C2000FFF788FF0620FFF7E1FE40F6C4102549D4
:100C3000088000E000BF00BF10BD10B50446072CBF
:100C400079D2DFE804F00405101C535F6B0073E0F9
:100C500008212248FFF76EFF0120FFF719FFFA2055
:100C60001F49088068E008211E48FFF763FF022043
:100C7000FFF70EFF4FF4FA70194908805CE0082175
:100C80001948FFF757FF0320FFF702FF4FF47A7070
:100C90001349088050E0000000180140000C00409B
:100CA00080050020500500208C05002068050020EC
:100CB000CF04002044000240D10400205804024028
:100CC00045030020CA0400204D03002055030020E6
:100CD0005D030020650300206D0300201503002044
:100CE000C80400201D030020250300200821FC4823
:100CF000FFF720FF0420FFF7CBFE40F2DC50F9495C
:100D0000088019E00821F848FFF714FF0520FFF7D5
:100D1000BFFE4FF4FA60F34908800DE00821F34864
:100D2000FFF708FF0620FFF7B3FE40F6C410ED49B9
:100D3000088001E0FFE700BF00BF10BD10B504460A
:100D4000072C49D2DFE804F00405101B26313C00D3
:100D500043E00821E648FFF7EDFE0120FFF7FAFD2A
:100D60001E20E449088038E00821E348FFF7E2FE4E
:100D70000220FFF7EFFD2D20DE4908802DE008213D
:100D8000DE48FFF7D7FE0320FFF7E4FD3C20D949FA
:100D9000088022E00821DA48FFF7CCFE0420FFF7A4
:100DA000D9FD5A20D349088017E00821D548FFF71C
:100DB000C1FE0520FFF7CEFDB420CE4908800CE02F
:100DC0000821D148FFF7B6FE0620FFF7C3FD4FF418
:100DD0008770C849088000E000BF00BF10BD00B5A3
:100DE0008BB00121022003F009FCC84803F0CCF8C5
:100DF000C7480090C748019010200290000103905E
:100E0000002004908020059040000690800007900C
:100E1000202008904FF44050099000200A90694625
:100E2000BA4803F053F9B948143003F0ADF8B848A4
:100E30000C3000904FF4405009906946B34814308C
:100E400003F044F90121B14803F06BF90121AF48E7
:100E5000143003F066F90BB000BD70B5AE48016800
:100E6000AE4805F031FF054605F0F0FF84B2A94910
:100E70004FF48070FFF7DAF904F034FE204604F0F6
:100E80006DFE04F042FEFFF7AAFF0121880704F07F
:100E9000E5F80121A24804F0E1F870BD70B50546FF
:100EA0000E46002417E0295D9E4802F037FF00BF80
:100EB00080219C4802F0A0FF0128F9D1295D9A48C1
:100EC00002F02CFF00BF8021974802F095FF012817
:100ED000F9D1601CC4B2B442E5DB70BD70B5044604
:100EE0000D4629462046FFF725FE70BD70B5044625
:100EF0000026002520785A2840F064866078A528CE
:100F0000FAD1A078062878D160793D2876D2DFE83A
:100F100010F075003D0075007500750075007500D6
:100F20007500750075007500750075007500750019
:100F30007500DF04070575007500310536051D04D1
:100F40002D043D044D045D046F047F048F049F0451
:100F5000AF04BF04CF043B0582058C0596054F0006
:100F600076009900B1007500750075007500750078
:100F700075007500750075007500B6008A010802DD
:100F8000860204039E03A3057500B005207A01289C
:100F90000DD10F216548FFF7A1FFC82004F07BFDAC
:100FA00002206349087007216248FFF777FFB3E228
:100FB000217AE27941EA022005F068FF564908608B
:100FC0005D495548006805F0F4FF06D25A48524979
:100FD000086008215948FFF7ADFD59494E4800689F
:100FE00005F068FF06D256484B490860082155486D
:100FF000FFF7A0FDFFF731FFD9E7F7E3F7E3217A29
:10100000E27941EA022005F041FF4F4908600120E2
:101010004E49087000204E4908604E494A48006811
:1010200005F0C7FF06D24B484749086008214A48E7
:10103000FFF780FDFFF711FF40F29F513120FFF7CE
:101040005DFCB4E7217AE27941EA022005F01EFF57
:101050004249086042494148006805F0AAFF06D2AB
:101060003F483E49086008213E48FFF763FDFFF70F
:10107000F4FE9CE7267A3046FFF760FE97E73A4891
:10108000007800282BD0207A60B10C213748FFF778
:1010900051FD07203649086001203649C871487261
:1010A000C872BFE034480078B8B134480078A8B1BD
:1010B0000C213348FFF73EFD0C213248FFF73AFD83
:1010C0003F202B49091D086000202A49C871487239
:1010D000C8724873C8734874A4E067E054E072E0D3
:1010E0002D030020C8040020350300203D0300200C
:1010F00075030020CC0400207D0300208503002020
:101100008D030020950300209D0300203004024041
:10111000087400402C060020080000204054894834
:101120000010004000380140004C00405A000020F0
:10113000CE0400208600002000008C4285040020A0
:101140000000F0418D040020040000200C0000206D
:10115000100000200040CE44950400200000002034
:101160000000B443A50400202B000020E50200206D
:1011700010140140300000202D0000202C00002021
:10118000FD020020090300200C21FB48FFF7D2FCE0
:101190000821FA48FFF7CEFC0F20F949086000202B
:1011A000F849C8714872C87248733BE00C21F24894
:1011B000FFF7C0FC0720F24908600020F149C87120
:1011C0004872C8722EE0207A30B10120EC49091F24
:1011D0000860EC49C87125E0EB480078E0B1EB48C5
:1011E000007868B10C21EA48FFF7A4FC3920E449F3
:1011F00008600020E349C8714873C873487411E05F
:101200000821DE48FFF796FC0920DD490860002030
:10121000DC49C871487305E00120D9490860002005
:10122000D849C871C3E6DB480078002848D0207A46
:1012300068B10C21D848FFF77DFC0720D049091F71
:1012400008600120CF49C8714872C87268E0CE4872
:10125000007840B3CD48007898B10C21C648FFF71C
:1012600069FC0C21CA48FFF765FC3F20C4490860AF
:101270000020C449C8714872C8724873C873487462
:101280004EE00C21BC48FFF755FC0821C348FFF78E
:1012900051FC1720BA4908600020BA49C871487249
:1012A000C872C8733CE00C21B348FFF743FC072029
:1012B000B34908600020B349C8714872C8722FE072
:1012C000207A38B10220AE49091F08600120AD49DB
:1012D000487225E0AC480078E0B1AC48007868B1CD
:1012E0000821AB48FFF726FC3A20A54908600020FA
:1012F000A44948724873C873487411E00821A7488C
:10130000FFF718FC12209E49086000209D49487292
:10131000C87305E002209A49086000209949487284
:10132000C4E39C480078002848D0207A68B10C219A
:101330009948FFF7FFFB07209149091F086001202A
:101340009049C8714872C87268E08F48007840B30D
:101350008E48007898B10C218748FFF7EBFB0C21F1
:101360008B48FFF7E7FB3F2085490860002085494F
:10137000C8714872C8724873C87348744EE00C2133
:101380007D48FFF7D7FB08218548FFF7D3FB2720CF
:101390007B49086000207B49C8714872C872487454
:1013A0003CE00C217448FFF7C5FB07207449086036
:1013B00000207449C8714872C8722FE0207A38B191
:1013C00004206F49091F086001206E49C87225E09A
:1013D0006D480078E0B16D48007868B10C216C4828
:1013E000FFF7A8FB2C206649086000206549C872F9
:1013F0004873C873487411E008216948FFF79AFBE5
:1014000024205F49086000205E49C872487405E0E6
:1014100004205B49086000205A49C87246E35B48D3
:101420000078002848D0207A68B10C215D48FFF789
:1014300081FB38205249091F086001205149487337
:10144000C873487468E05048007840B35148007849
:1014500098B10C214848FFF76DFB0C214C48FFF771
:1014600069FB3F204649086000204649C871487220
:10147000C8724873C87348744EE00C214448FFF7A3
:1014800059FB08214848FFF755FB39203C490860C3
:1014900000203C49C8714873C87348743CE00C2173
:1014A0003B48FFF747FB38203549086000203549A5
:1014B0004873C87348742FE0207A38B10820304947
:1014C000091F086001202F49487325E02E48007845
:1014D000E0B13048007868B10C212748FFF72AFBBB
:1014E0000F2027490860002026494873C8714872B8
:1014F000C87211E008212C48FFF71CFB0920204985
:10150000086000201F494873C87105E008201C4985
:10151000086000201B494873C8E21C48007848B3A3
:10152000207A68B10C211F48FFF704FB38201449CA
:10153000091F0860012013494873C873487485E087
:1015400011480078B8B11348007878B30C211048DE
:10155000FFF7F0FA0C210848FFF7ECFA3F200849A2
:10156000086000200749C8714872C8724873C87380
:1015700048746BE03AE02CE0FD020020B50000204A
:1015800014140140300000202D0000202C00002009
:10159000090300202B000020E5020020BD000020F0
:1015A000C5000020F10200209D000020FFE70C2173
:1015B000F848FFF7BFFA0821F748FFF7BBFA3A20CF
:1015C000F64908600020F6494873C87348744872A9
:1015D0003CE00C21EF48FFF7ADFA3820EF490860F6
:1015E0000020EF494873C87348742FE0207A38B15F
:1015F0001020EA49091F08600120E949C87325E065
:10160000E8480078E0B1E848007868B10C21E74884
:10161000FFF790FA1720E14908600020E049C873FD
:10162000C8714872C87211E00821DB48FFF782FADE
:101630001220DA4908600020D949C873487205E0D1
:101640001020D64908600020D549C8732EE2D8483A
:101650000078D8B3207A68B10C21D648FFF76AFA2F
:101660003820CE49091F08600120CD494873C8734E
:1016700048746AE0CB48007848B3CB48007898B10A
:101680000C21CA48FFF756FA0C21C248FFF752FA5C
:101690003F20C24908600020C149C8714872C87221
:1016A0004873C873487450E00C21BA48FFF742FAF7
:1016B0000821C148FFF73EFA3C20B84908600020E5
:1016C000B749C8724873C87348743EE00DE0FFE73D
:1016D0000C21B048FFF72EFA3820B04908600020EE
:1016E000AF494873C87348742FE0207A38B120207E
:1016F000AA49091F08600120A949487425E0A948A2
:101700000078E0B1A848007868B10C21A748FFF73D
:1017100011FA2720A14908600020A1494874C87126
:101720004872C87211E00821A348FFF703FA242089
:101730009A49086000209A494874C87205E0202040
:1017400096490860002096494874AFE1207AE17913
:1017500040EA012599480580142D06DD142097499B
:10176000088008219648FFF7E5F99FE1207AE179A2
:1017700040EA012591484580142D06DD14208F494B
:10178000488008218F48FFF7D5F98FE1207AE17969
:1017900040EA012589488580142D06DD14208749FB
:1017A000888008218848FFF7C5F97FE1207AE17930
:1017B00040EA01258148C580142D06DD14207F49AB
:1017C000C88008218148FFF7B5F96FE1207AE179F7
:1017D00040EA012579480581142D06DD142077495A
:1017E000088108217A48FFF7A5F95FE15FE15CE134
:1017F000207AE17940EA012570484581142D06DD03
:1018000014206E49488108217248FFF793F94DE191
:10181000207AE17940EA01256F480580282D06DD10
:1018200028206D49088008216C48FFF783F93DE1C5
:10183000207AE17940EA012567484580282D06DDB8
:1018400028206549488008216548FFF773F92DE194
:10185000207AE17940EA01255F488580282D06DD60
:1018600028205D49888008215E48FFF763F91DE163
:10187000207AE17940EA01255748C580282D06DD08
:1018800028205549C88008215748FFF753F90DE132
:10189000207AE17940EA01254F480581282D06DDAF
:1018A00028204D49088108215048FFF743F9FDE001
:1018B000207AE17940EA012547484581282D06DD57
:1018C00028204549488108214948FFF733F9EDE0D0
:1018D000207AE17940EA01254648058045808580E7
:1018E000C58005814581782D0BDD78204149088030
:1018F00048808880C8800881488108213E48FFF7D9
:1019000019F9142D0BDA14203A4908804880888090
:10191000C8800881488108213848FFF70BF9C5E0E5
:10192000207AE17940EA01253548058045808580A7
:10193000C58005814581B5F5167F0CDD4FF4167025
:101940002F49088048808880C88008814881082104
:101950002C48FFF7EFF8282D0BDA282028490880BB
:1019600048808880C8800881488108212648FFF780
:10197000E1F89BE0267A3046FFF75FF996E0267A99
:101980003046FFF705F991E0207AF8B301200649C7
:1019900008703FE009030020A50000201414014056
:1019A000300000202D0000202B000020FD02002030
:1019B0002C000020F1020020AD000020440800208F
:1019C000C5030020D5030020E5030020F503002017
:1019D00005040020150400205008002025040020E4
:1019E0003504002045040020550400206504002033
:1019F000750400202C080020A5030020AD03002062
:101A000038080020B5030020BD030020FFE70020B8
:101A1000F74908704AE0207A18B10120F5490870AA
:101A200002E00020F349087040E0207A18B101205C
:101A3000F149087002E00020EF49087036E0207A92
:101A400048B10120ED4908700721ED48FFF772F811
:101A50000120EC49C87129E0207A48B10020E7490B
:101A600008700821E848FFF765F80020E549C871CB
:101A70001CE0207AE17940EA0120E4490880084628
:101A80000088E3490988884207D10721E148FFF728
:101A900051F80020DD49088006E00721DE48FFF705
:101AA00049F80020D949088000E000BF00BFA078B5
:101AB000032807D11221D948FFF73CF80821D14863
:101AC000FFF738F8A07830287CD194F82C0018B1B2
:101AD0000120C749087002E00020C549087094F849
:101AE0002E0018B10120C349087002E00020C1494E
:101AF000087094F8300018B10120BF49087002E066
:101B00000020BD49087094F8320030B10120BB4973
:101B100008700721BA48FFF70DF80120C049087086
:101B2000E41D607BBF490880E07B4880607C888042
:101B3000E07CC880607D0881E07D4881607EBA4994
:101B40000880E07E4880607F8880E07FC88094F8CD
:101B50002100088194F8230048816078217840EAC8
:101B60000125B248058045808580C5800581458175
:101B7000E078A17840EA0125AD4805804580858060
:101B8000C580058145816079217940EA0120A94914
:101B9000088008460088FEF79AFFE079A17940EABC
:101BA0000120A549088008460088FEF73EFFE07A3C
:101BB000A17AE41F40EA0120A04908800846008875
:101BC000FEF7E7FE70BD38B504469D4830F81400B6
:101BD000ADF8000010208DF8030003208DF80200FE
:101BE000984951F82400694601F00EFE38BD38B519
:101BF0000446954830F81400ADF8000010208DF828
:101C0000030003208DF80200904951F82400694632
:101C100001F0FAFD38BD38B504468D4830F814009F
:101C2000ADF8000010208DF8030003208DF80200AD
:101C3000884951F82400694601F0E6FD38BD38B501
:101C40000446854830F81400ADF8000048208DF8AF
:101C5000030003208DF80200804951F824006946F2
:101C600001F0D2FD38BD1CB5012002F0BEFD0220FE
:101C700002F0BBFD042002F0B8FD082002F0B5FD23
:101C8000102002F0B2FD202002F0AFFD4FF4807072
:101C900002F0ABFD4FF4007002F0A7FD4FF480603E
:101CA00002F0A3FD4FF4006002F09FFD4FF480505E
:101CB00002F09BFD4FF4005002F097FD052100203B
:101CC00001F0B8FE0421002001F0B4FE0321002041
:101CD00001F0B0FE0221002001F0ACFE0121002045
:101CE00001F0A8FE0021084601F0A4FE0D2103200A
:101CF00001F0A0FE0C21032001F09CFE0B2103202B
:101D000001F098FE0A21032001F094FE092103202E
:101D100001F090FE0821032001F08CFE43F63F7095
:101D2000009000208DF804000C208DF805000120A3
:101D30008DF80600684602F0E1FC1CBD10B50446B3
:101D40000A2C38D2DFE804F0322D28231E19140F94
:101D50000A0508214248FEF7EDFE2DE00821414822
:101D6000FEF7E8FE28E008213F48FEF7E3FE23E007
:101D700008213E48FEF7DEFE1EE008213C48FEF743
:101D8000D9FE19E008213B48FEF7D4FE14E00821F3
:101D90003948FEF7CFFE0FE008213848FEF7CAFEAB
:101DA0000AE008213648FEF7C5FE05E0082135485F
:101DB000FEF7C0FE00E000BF00BF10BD10B5044636
:101DC0000A2C67D2DFE804F085807B76716C670FA0
:101DD0000A0508212C48FEF7ADFE80E008212B48BB
:101DE000FEF7A8FE7BE008212948FEF7A3FE76E077
:101DF0002B0000202C0000202D0000202E000020B1
:101E000069000020420000207E000020C404002061
:101E1000C6040020BC040020B504002030000020CF
:101E20002A00002044080020500800202C08002030
:101E300038080020C8040020CA040020CC04002078
:101E40008C0500206805002080050020500500203A
:101E5000E0050020C805002008050020D804002067
:101E6000A5010020AD010020B5010020BD0100202A
:101E7000C5010020CD010020D5010020DD0100209A
:101E8000E5010020ED010020F5010020FD0100200A
:101E90000502002022E00821FE48FEF74BFE1EE06E
:101EA0000821FD48FEF746FE19E00821FB48FEF731
:101EB00041FE14E00821FA48FEF73CFE0FE008213D
:101EC000F848FEF737FE0AE00821F748FEF732FE31
:101ED00005E00821F548FEF72DFE00E000BF00BF39
:101EE00010BD10B504460A2C38D2DFE804F0322DBC
:101EF00028231E19140F0A050821ED48FEF71AFEC3
:101F00002DE00821EB48FEF715FE28E00821EA48FD
:101F1000FEF710FE23E00821E848FEF70BFE1EE066
:101F20000821E748FEF706FE19E00821E548FEF71C
:101F300001FE14E00821E448FEF7FCFD0FE0082153
:101F4000E248FEF7F7FD0AE00821E148FEF7F2FD5E
:101F500005E00821DF48FEF7EDFD00E000BF00BF0F
:101F600010BD10B504460A2C38D2DFE804F0322D3B
:101F700028231E19140F0A050821D748FEF7DAFD99
:101F80002DE00821D548FEF7D5FD28E00821D448EA
:101F9000FEF7D0FD23E00821D248FEF7CBFD1EE07E
:101FA0000821D148FEF7C6FD19E00821CF48FEF709
:101FB000C1FD14E00821CE48FEF7BCFD0FE008216A
:101FC000CC48FEF7B7FD0AE00821CB48FEF7B2FD8A
:101FD00005E00821C948FEF7ADFD00E000BF00BFE5
:101FE00010BD10B50446152C71D2DFE804F0706AFC
:101FF00065605B56514C47423D38332E29241F1AE9
:1020000015100B000821BE48FEF794FD60E0082182
:10201000BC48FEF78FFD5BE00821BB48FEF78AFD58
:1020200056E00821B948FEF785FD51E00821B8487F
:10203000FEF780FD4CE00821B648FEF77BFD47E047
:102040000821B548FEF776FD42E00821B348FEF7C7
:1020500071FD3DE00821B248FEF76CFD38E0082133
:10206000B048FEF767FD33E00821AF48FEF762FD98
:102070002EE00821AD48FEF75DFD29E00821AC48BF
:10208000FEF758FD24E00821AA48FEF753FD1FE0A3
:102090000821A948FEF74EFD1AE00821A748FEF7DF
:1020A00049FD15E00821A648FEF744FD10E008218F
:1020B000A448FEF73FFD0BE00821A348FEF73AFDD8
:1020C00006E00821A148FEF735FD01E0FFE700BF6B
:1020D00000BF10BD70B504460D4629462046FEF7E8
:1020E00029FD70BD70B505460C46A81E06287DD298
:1020F000DFE800F00327496B8FB14FF0804002F01A
:102100007DFB202C00DB20244FF4FA6060439049D3
:10211000888000200880C88048804FF0804002F00E
:1021200041FC012248F69F41900703F03EF801224E
:102130001146900702F0ADFF0121880702F08EFFE3
:1021400017E1844802F05AFB202C00DB20244FF4D6
:10215000FA6060437E49888000200880C8804880FB
:102160007C4802F01FFC012248F69F41794803F0A9
:102170001CF801221146774802F08BFF01217548B7
:1021800002F06CFFF5E0744802F038FB202C00DB15
:1021900020244FF4FA6060436D4988800020088055
:1021A000C88048806C4802F0FDFB012248F69F4140
:1021B000694802F0FAFF01221146674802F069FF00
:1021C0000121654802F04AFFD3E0644802F016FBA3
:1021D000202C00DB20244FF4FA6060435C498880A7
:1021E00000200880C88048805C4800E0C0E002F021
:1021F000D9FB012248F69F41584802F0D6FF012240
:102200001146564802F045FF0121544802F026FFCE
:10221000AFE0534802F0F2FA202C00DB20244FF408
:10222000FA6060434A49888000200880C88048805E
:102230004B4802F0B7FB012248F69F41484802F0A4
:10224000B4FF01221146464802F023FF0121444811
:1022500002F004FF8DE0434802F0D0FA202C00DBAE
:1022600020244FF4FA6060433949888000200880B8
:10227000C88048803B4802F095FB012248F69F4108
:10228000384802F092FF01221146364802F001FF61
:10229000012169E00D020020150200201D0200202E
:1022A000250200202D020020350200203D020020E2
:1022B000450200204D020020550200205D02002052
:1022C000650200206D020020750200207D020020C2
:1022D000850200208D020020950200209D02002032
:1022E000A5020020AD020020B5020020BD020020A2
:1022F000C5020020CD020020D5020020DD02002012
:10230000050100200D010020150100201D01002005
:10231000250100202D010020350100203D01002075
:10232000450100204D010020550100205D010020E5
:10233000650100206D010020750100207D01002055
:10234000850100208D010020950100209D010020C5
:10235000881600200004004000080040000C0040E7
:102360000010004000140040BB4802F077FE00E07F
:1023700000BF00BF70BD00240025FEF7ACF8FEF7DB
:10238000B4F8FEF789FAFEF7AAFA00BF04E0204687
:10239000FFF755FC601CC4B20C2CF8DB002404E0F1
:1023A0002046FFF738FC601CC4B2062CF8DB002482
:1023B00004E02046FFF707FC601CC4B2062CF8DBE3
:1023C000002404E02046FFF712FC601CC4B2062C77
:1023D000F8DB482003F048FBFEF70DF8FEF7F0F8B5
:1023E000FDF799FFFEF7C5F8FEF74CF9FFF73BFC48
:1023F00005210320FFF776FE0221984801F0B1FA8B
:1024000008219748FEF796FB08219648FEF792FBB5
:1024100008219548FEF78EFB08219448FEF78AFBB9
:1024200008219348FEF786FB08219248FEF782FBBD
:1024300010E10221894801F07AFA08B9012500E08B
:1024400000255DB98C480078012807D1FDF763FFAE
:10245000642003F020FB002087490870012D0AD179
:102460008548007838B9FDF7C6FF642003F013FBF8
:1024700001208149087081480078012838D1002066
:102480007E4908707E480078012818D17D48007880
:1024900048B9FEF7E2FC7C48FEF728FD0F217B4897
:1024A000FFF718FE08E0FEF7D8FC7948FEF71EFD9E
:1024B0000F217648FFF70EFE002071490870704822
:1024C0000078022814D16F48007838B96E48FEF7BA
:1024D0000DFD0F216D48FFF7FDFD06E06C48FEF78E
:1024E00005FD0F216948FFF7F5FD002064490870DC
:1024F00068480078032802D10A21FFF7F3FD6548F8
:102500000078012811D10F216348FEF7E7FCC820AD
:1025100003F0C1FA07216148FEF7C0FC07216048BB
:10252000FEF7BCFC00205B4908705E480078E8B309
:1025300007215A48FEF7FEFA5B4800684FF47A71AB
:1025400090FBF1F059490860574800684FF47A71E0
:1025500090FBF1F201FB1200642190FBF1F0544971
:102560000860514800684FF47A7190FBF1F201FB6A
:102570001200642190FBF1F201FB12000A2190FB92
:10258000F1F04C490860484800684FF47A7190FBBC
:10259000F1F201FB1200642190FBF1F201FB120049
:1025A0000A2190FBF1F201FB120000E016E0424923
:1025B00008603E490878FFF7C1FB3D490878FFF7FE
:1025C000FDFB3C490878FFF78CFC3B490878FFF796
:1025D000C8FC002033490870384908703848007832
:1025E000C0B308213748FEF7A5FA4FF680701B49A3
:1025F000143108600720344908604FF47A7003F002
:102600004AFA142408E02046FFF7EBFC4FF47A70F6
:1026100003F041FA601EC4B2002CF4DC07211F480D
:10262000FEF788FA08212948FEF784FA0020284995
:10263000C87128480088FEF74AFA27480088FEF744
:10264000F4F926480088FEF7A4F900202449087010
:102650001B490870EDE6000000140040001801401E
:102660008D00002095000020ED0100203D0200209B
:102670008D020020DD020020D2040020280000206E
:102680004A000020290000205C0800204B000020A8
:102690005C0A0020CE0400205A00002070000020B8
:1026A000860000200D0000201400002018000020EB
:1026B0001C00002020000020240000200C0000202E
:1026C0002F000020FD000020140C01407E0000209F
:1026D00042000020C8040020CA040020CC040020CE
:1026E0002E000020704700BFFEE700BFFEE700BFDE
:1026F000FEE700BFFEE7704770477047704770B550
:1027000000BF40F22441F74801F08CFB002835D08F
:102710000021F54801F005FDF34801F019FDC0F571
:10272000007084B2002C18DDF048007848B9F048F9
:10273000F0494860EC4801F0C9FC0120EB49087001
:1027400008E0ED48EB494860E74801F0BFFC002095
:10275000E64908700120E94908704FF4702001F043
:102760000FFD4FF40070E0495839C8650121DE487B
:1027700001F0D7FCDB480588001D05884FF45A712D
:10278000D84801F04FFB20B14FF45A71D54801F001
:1027900073FB40F22661D34801F06EFB40F2244106
:1027A000D04801F069FB0120D549087070BD70B5B3
:1027B00000BF40F22441D34801F034FB002834D05C
:1027C0000021D14801F0ADFCCF4801F0C1FCC0F5BB
:1027D000007084B2002C18DDC448007848B9C448A1
:1027E000C4494860C84801F071FC0120BF49087025
:1027F00008E0C148BF494860C34801F067FC0020B9
:10280000BA4908700120BD490870C04801F0B8FC01
:102810004FF40070BC49091D08600121BA4801F05D
:1028200080FCB8480588001D05884FF45A71B848E7
:1028300001F0F8FA20B14FF45A71B54801F01CFBD1
:1028400040F22661AF4801F017FB40F22441AD4849
:1028500001F012FB0220AA49087070BD10B54FF4B8
:10286000003001F0ACFC4FF4002001F0A8FC002186
:102870009D4801F056FC4FF411709B495839C865CA
:102880000121994801F04DFC10BD10B50120A1496E
:102890000870400301F093FC4FF4004001F08FFCFE
:1028A00000219148143801F03CFC10BD10B5974848
:1028B000D03801F084FC9548703801F080FC00218C
:1028C000914801F02EFC4FF411708F49091D0860EA
:1028D00001218D4801F025FC10BD10B501208E4965
:1028E00008708E4801F06BFC8D4801F068FC0021F7
:1028F00085483C3001F015FC10BD10B5002400BF28
:10290000012001F052FF012849D101F06EFF0220A1
:1029100003F0C1F80121834801F009F800283ED1F5
:10292000022003F0B8F801217E4801F000F80028E9
:1029300035D17D48007858BB7C4880887C498978AF
:10294000401A7A498880888803F0A5F877488088FB
:10295000774989780844754988807648007860B15D
:102960000C217548FEF7E6F807207449086001203D
:102970007349C8714872C87211E008217148FEF7A6
:10298000D9F804206D49086001206D49C87206E03D
:1029900007216D48FEF7CEF801206C49087010BD84
:1029A00010B5002400BF022001F0FFFE01284ED127
:1029B000022001F01AFF022003F06DF802215948AD
:1029C00000F0B5FF002842D1022003F064F8022194
:1029D000544800F0ACFF002839D15348007870BB50
:1029E00001205B4908705148408851494978401A94
:1029F0004E494880488803F04EF84C4840884C497E
:102A000049780844494948804A48007860B10C2117
:102A10004948FEF78FF807204849086001204849D7
:102A2000C8714872C87212E008214A48FEF782F85D
:102A300002204249086001204149487207E0FFE74F
:102A400007214148FEF776F801204049087010BD83
:102A500010B5042001F0A9FE012837D1042001F0AF
:102A6000C4FE022003F017F804212E4800F05FFF97
:102A700000287AD1022003F00EF80421294800F042
:102A800056FF002871D12848007850BB274800889D
:102A900027490978401A25490880088802F0FBFF79
:102AA00022480088224909780844204908802148A2
:102AB000007860B10C212048FEF73CF807201F4940
:102AC000086001201E49C8714872C8724DE0082193
:102AD0002148FEF72FF80120184908601849C871ED
:102AE00043E03BE00038014058000240290000204C
:102AF0005C0800205C1600205C0A002028000020F2
:102B00004A000020004C00401C040240F00000106D
:102B100000480040CF040020D10400200000021033
:102B200000000810000801402E0000203808002096
:102B3000500800202B000020E50200201014014066
:102B400030000020DD000020770000202F00002052
:102B50000D000020D5000020CD0000200721F848FE
:102B6000FDF7E8FF0120F749087010BD10B50820F7
:102B700001F01BFE012847D1082001F036FE02209B
:102B800002F089FF0821F04800F0D1FE0028F2D1C0
:102B9000022002F080FF0821EB4800F0C8FE002868
:102BA000E9D1EA48007800287ED1E9488088E949DF
:102BB0008978401AE6498880888802F06CFFE448EA
:102BC0008088E44989780844E1498880E2480078AF
:102BD000002839D0E1480078002828D0E048007863
:102BE00098B10C21DF48FDF7A5FF0C21DE48FDF769
:102BF000A1FF3F20DD4908600020DD49C87148720F
:102C0000C8724873C873487455E00C21D548FDF765
:102C100091FF0821D748FDF78DFF2720D349086091
:102C20000020D349C8714872C872487443E00C212F
:102C3000CC48FDF77FFF0720CC4908600020CC4935
:102C4000C8714872C87236E0C448007808B3C448F6
:102C5000007868B10C21C448FDF76CFF2C20C349F3
:102C600008600020C249C8724873C873487422E0E3
:102C70000821C148FDF75EFF0821BE48FDF75AFF55
:102C80002420BA4908600020B949C872487412E08B
:102C90000AE00821B848FDF74DFF0420B349086059
:102CA0000020B349C87206E00721A548FDF742FF9E
:102CB0000120A449087010BD10B5102001F075FD69
:102CC000012847D1102001F090FD022002F0E3FE20
:102CD00008219D4800F02BFE0028F2D1022002F0CE
:102CE000DAFE0821984800F022FE0028E9D1974832
:102CF000007800287ED19648408896494978401A45
:102D000093494880488802F0C6FE9148408891491E
:102D1000497808448E4948808F480078002839D087
:102D20008E480078002828D08D48007898B10C2172
:102D30008C48FDF7FFFE0C218B48FDF7FBFE3F2082
:102D40008A49086000208A49C8714872C87248736D
:102D5000C873487455E00C218248FDF7EBFE08214A
:102D60008648FDF7E7FE172080490860002080496B
:102D7000C8714872C872C87343E00C217948FDF7E6
:102D8000D9FE07207949086000207949C871487246
:102D9000C87236E07148007808B37148007868B1AD
:102DA00008217148FDF7C6FE3A20704908600020EE
:102DB0006F4948724873C873487422E0082170480C
:102DC000FDF7B8FE08216D48FDF7B4FE12206749F3
:102DD0000860002066494872C87312E00AE00821C2
:102DE0006748FDF7A7FE022060490860002060499F
:102DF000487206E007215248FDF79CFE0120514928
:102E0000087010BD10B5202001F0CFFC012847D17B
:102E1000202001F0EAFC022002F03DFE08214A4891
:102E200000F085FD0028F2D1022002F034FE0821D6
:102E3000454800F07CFD0028E9D14448007800288E
:102E400072D14348008843490978401A40490880B4
:102E5000088802F020FE3E4800883E490978084470
:102E60003B4908803C480078002839D03B4800782E
:102E7000002828D03A48007898B10C213948FDF74D
:102E800059FE0C213848FDF755FE3F2037490860B0
:102E900000203749C8714872C8724873C8734874B3
:102EA0007BE00C212F48FDF745FE08213548FDF752
:102EB00041FE0F202D49086000202D49C87148723D
:102EC000C872487369E00C212648FDF733FE0720DD
:102ED0002649086000202649C8714872C8725CE023
:102EE0001E48007808B31E48007868B10C211E48BF
:102EF000FDF720FE39201D49086000201C49C871DB
:102F00004873C873487448E008211F48FDF712FE53
:102F100008211C48FDF70EFE092014490860002016
:102F20001349C871487338E030E008211648FDF7AE
:102F300001FE01200D49086000200D49C8712CE0F8
:102F4000770000202F000020000801402E00002004
:102F50002C080020440800202B0000202D00002019
:102F60002C000020FD020020090300201414014061
:102F700030000020C5000020AD000020BD00002072
:102F8000A5000020B50000209D0000200721FE487C
:102F9000FDF7D0FD0120FD4908704FF4807001F06D
:102FA00004FC01284DD1000201F01FFC022002F0B8
:102FB00072FD4FF48071F64800F0B9FC002840D152
:102FC000022002F068FD4FF48071F14800F0AFFC80
:102FD00018BBF048007868BBEF484089EF49497951
:102FE000401AED494881488902F055FDEA48408978
:102FF000EA4949790844E8494881E948007868B1D4
:103000000C21E848FDF796FD3820E14910310860B1
:103010000120E5494873C873487412E00821E34869
:10302000FDF788FD2020DA49103108600120DE49D3
:10303000487406E00721D448FDF77CFD0120D34900
:1030400008704FF4007001F0B0FB01284CD1400231
:1030500001F0CBFB022002F01EFD4FF40071CC48C2
:1030600000F065FC60BB022002F015FD4FF400711A
:10307000C74800F05CFC18BBC648007868BBC6486F
:103080000089C6490979401AC3490881088902F0B4
:1030900002FDC1480089C14909790844BE49088137
:1030A000BF48007868B10C21BE48FDF743FD3820C9
:1030B000B749103108600120BB494873C873487490
:1030C00012E00821BA48FDF735FD1020B049103153
:1030D00008600120B449C87306E00721AA48FDF73B
:1030E00029FD0120A949087010BD10B54FF480607A
:1030F00001F05BFB01284ED1800201F076FB02203B
:1031000002F0C9FC4FF48061A14800F010FC0028D7
:1031100041D1022002F0BFFC4FF480619C4800F0D6
:1031200006FC002837D19B48007868BB9A48C088C5
:103130009A49C978401A9849C880C88802F0ABFCFF
:103140009548C0889549C97808449349C8809448EF
:10315000007868B10C219348FDF7ECFC38208C49CD
:1031600010310860012090494873C873487412E018
:1031700008219048FDF7DEFC0820854910310860E1
:1031800001208949487306E007217F48FDF7D2FCFA
:1031900001207E4908704FF4006001F006FB012811
:1031A00049D1C00201F021FB022002F074FC4FF46F
:1031B0000061774800F0BBFB0028F1D1022002F04B
:1031C0006AFC4FF40061724800F0B1FB0028E7D1BF
:1031D00070480078002876D1774840897749497946
:1031E000401A75494881488902F055FC7248408967
:1031F0007249497908447049488169480078002833
:103200003BD06F48007850B36E480078A0B10C21D5
:103210006D48FDF78FFC0C216C48FDF78BFC3F20BF
:103220005B491431086000205F49C8714872C87258
:103230004873C87348745AE00C216448FDF77AFC5F
:1032400008216348FDF776FC3C20514914310860A1
:1032500000205549C8724873C873487447E00C2170
:103260005A48FDF767FC38204949143108600020AE
:103270004D494873C873487439E05148007818B311
:103280005048007870B10C214F48FDF753FC2720BF
:103290003F491431086000204349C8714872C87220
:1032A000487424E008214B48FDF744FC08214848B5
:1032B000FDF740FC242036491431086000203A49CB
:1032C0004874C87213E00BE008214248FDF732FC55
:1032D00020202F491431086000203349487406E04B
:1032E00007212948FDF726FC0120284908704FF4E2
:1032F000805001F05AFA012870D1000301F075FAEC
:10330000022002F0C8FB4FF48051214800F00FFB6F
:103310000028F1D1022002F0BEFB4FF480511C487E
:1033200000F005FB0028E7D11A48007800287AD180
:103330002148008921490979401A1F4908810889D3
:1033400002F0A9FB1C4800891C49097908441A4964
:10335000088113480078002866D019480078D8B34F
:1033600018480078C8B30C211848FDF7E3FB0C217E
:103370001548FDF7DFFB3F200549143108600020A8
:103380000949C87148722AE0770000202F00002008
:10339000001401402E0000203808002050080020B2
:1033A0002C000020F102002030000020F500002059
:1033B000ED000020E50000202C080020440800203B
:1033C0002D0000202B000020FD020020090300201A
:1033D000AD000020C500002018E005E05AE0C872EA
:1033E0004873C873487455E00C21BD48FDF7A2FB33
:1033F0000821BC48FDF79EFB3A20BB49086000202D
:10340000BA4948724873C873487443E00C21B44801
:10341000FDF790FB3820B44908600020B349487399
:10342000C873487436E02EE0B148007800B3B14864
:10343000007868B10C21B048FDF77CFB1720AA4941
:1034400008600020A949C873C8714872C87221E099
:103450000821AA48FDF76EFB0821A248FDF76AFB88
:103460001220A14908600020A049C873487211E0E9
:103470000821A248FDF75EFB10209B490860002050
:103480009A49C87306E007219D48FDF753FB0120C8
:103490009C4908704FF4005001F087F9012849D188
:1034A000400301F0A2F9022002F0F5FA4FF40051B6
:1034B0008D48143800F03BFA0028F0D1022002F0C9
:1034C000EAFA4FF400518848143800F030FA002826
:1034D000E5D18D48007800287DD18C48C0888C4982
:1034E000C978401A8949C880C88802F0D4FA874848
:1034F000C0888749C97808448449C88085480078CD
:10350000C0B37B48007840B37A48007898B10C216A
:103510007948FDF70FFB0C217148FDF70BFB3F20AD
:103520007149086000207149C8714872C8724873B7
:10353000C873487456E00C216948FDF7FBFA08216E
:103540007548FDF7F7FA3920674908600020674998
:10355000C8714873C873487444E00C216048FDF793
:10356000E9FA382060490860002060494873C87350
:10357000487437E0FFE75E48007808B35D4800789C
:1035800068B10C215C48FDF7D5FA0F205649086058
:10359000002056494873C8714872C87222E0082159
:1035A0005E48FDF7C7FA08215B48FDF7C3FA09201A
:1035B0004D49086000204D494873C87112E00AE087
:1035C00008215648FDF7B6FA082047490860002050
:1035D0004649487306E007214948FDF7ABFA012048
:1035E0004849087010BD10B50121880701F0FFFFA0
:1035F00040B10121880702F00BF800214FF0804014
:1036000001F02CFD10BD10B50121454801F0EFFF80
:10361000A0B10121424801F0FBFF0021404801F028
:103620001DFD4048007810B903203E4908703D4810
:103630000078032802D101203A49087010BD10B566
:103640000121394801F0D3FF38B10121364801F09A
:10365000DFFF0021344801F001FD10BD10B501214C
:10366000324801F0C4FFE0B10121304801F0D0FF41
:103670002F48007858B92F480068401C2D49086031
:1036800008460068B0F5FA6F01D1002008602A48AA
:10369000007810B9002027490860264800682749AB
:1036A000086010BD10B50121254801F0A0FF38B118
:1036B0000121234801F0ACFF0021214801F0CEFC9C
:1036C00010BD10B501211F4801F091FF38B1012153
:1036D0001C4801F09DFF00211A4801F0BFFC10BDFD
:1036E00009030020A5000020141401403000002030
:1036F0002D0000202B000020FD020020BD00002036
:10370000770000202F0000202E0000202C08002031
:10371000440800202C0000209D000020B50000205F
:1037200000040040CE04002000080040000C0040CF
:103730000D000020100000200C00002014000020CC
:10374000001000400014004010B50446CC488442EC
:1037500008D10121042000F085FF0021042000F0A1
:1037600081FF46E0C748844208D10121082000F0CB
:1037700079FF0021082000F075FF3AE0C24884423A
:1037800008D10121102000F06DFF0021102000F071
:1037900069FF2EE0BD48844208D10121202000F0BD
:1037A00061FF0021202000F05DFF22E0B848844244
:1037B00008D10121402000F055FF0021402000F0F9
:1037C00051FF16E0B348844208D10121802000F067
:1037D00049FF0021802000F045FF0AE0AE48844206
:1037E00007D10121801500F03DFF0021A01500F058
:1037F00039FF10BD10B50121084600F033FF00214C
:10380000012000F02FFF10BD2DE9F04102460025F8
:103810000026002000230024002791F803C00CF0AC
:103820000F0591F803C00CF0100CBCF1000F03D091
:1038300091F802C04CEA050591F800C0BCF1000FF8
:1038400031D0146800202BE04FF0010C0CFA00F38B
:10385000B1F800C00CEA03069E4220D183004FF06D
:103860000F0C0CFA03F7BC4305FA03FC4CEA040402
:1038700091F803C0BCF1280F06D14FF0010C0CFAEF
:1038800000FCC2F814C00AE091F803C0BCF1480F74
:1038900005D14FF0010C0CFA00FCC2F810C0401C1E
:1038A0000828D1D31460B1F800C0BCF1FF0F34DD9B
:1038B000546800202EE000F1080C4FF0010808FACF
:1038C0000CF3B1F800C00CEA03069E4221D183003C
:1038D0004FF00F0C0CFA03F7BC4305FA03FC4CEA5B
:1038E000040491F803C0BCF1280F05D100F1080CC5
:1038F00008FA0CF8C2F8148091F803C0BCF1480F24
:1039000007D100F1080C4FF0010808FA0CF8C2F8D2
:103910001080401C0828CED35460BDE8F0814FF6DB
:10392000FF710180022181700421C170704702463D
:10393000002093680B400BB1012000E0002070478D
:103940000146886880B2704702460020D3680B4069
:103950000BB1012000E0002070470146C86880B22A
:10396000704701617047416170470AB1016100E031
:1039700041617047C16070474FF480320A438261F1
:103980008161826182698269704702460020434BEF
:1039900018684FF68073184040EA021008433F4B06
:1039A000186070473E49C8617047F0B50A46002369
:1039B00000240021002500F00046B6F1004F02D19E
:1039C000364EF16901E0354E7168C0F3034583B2AC
:1039D00000F44016B6F5401F08D121F070612F4E5B
:1039E000766826F070662D4F7E6012E000F4801637
:1039F000B6F5801F06D1032606FA05F4A14341F06F
:103A0000706106E0460D360103FA06F6B14341F057
:103A1000706122B1460D360103FA06F6314300F01B
:103A20000046B6F1004F02D11C4EF16101E01B4E81
:103A30007160F0BD30B500228B071C0F0F2303FA15
:103A400004F2164B08338C1053F824309343134C74
:103A500008348D1044F8253023468C1053F8243058
:103A60008C07240F00FA04F423430C4C08348D1007
:103A700044F8253030BD0A49DC3108607047000049
:103A800000080140000C01400010014000140140FA
:103A900000180140001C01400020014000000140CE
:103AA0000000204210B50446FB48844209D10121A0
:103AB000880300F0D7FD00214FF4804000F0D2FDD4
:103AC00032E0F648844209D10121480400F0D7FDD4
:103AD00000214FF4003000F0D2FD25E0F048844290
:103AE00009D10121880400F0CAFD00214FF4802093
:103AF00000F0C5FD18E0EB48844209D10121C8045B
:103B000000F0BDFD00214FF4002000F0B8FD0BE0F7
:103B1000E548844208D10121080500F0B0FD0021EC
:103B20004FF4801000F0ABFD10BD2DE9F04786B0DA
:103B300005460E460024A24600BFA1460027B089D4
:103B400000B100BF2F462C8A4CF6FF700440F0886D
:103B500004432C82AC894EF6F3100440B0883189BE
:103B60000843718908430443AC81AC8A4FF6FF4097
:103B70000440B0890443AC8201A800F06BFCC64845
:103B8000874202D1DDF810A001E0DDF80CA0A88981
:103B900000F4004040B10AEBCA0000EB0A103168A3
:103BA0004900B0FBF1F807E00AEBCA0000EB0A108D
:103BB00031688900B0FBF1F86420B8FBF0F0040133
:103BC0002009642101FB1089A88900F4004040B15C
:103BD000322000EBC900B0FBF1F000F00700044315
:103BE00008E0322000EB09106421B0FBF1F000F096
:103BF0000F0004432C8106B0BDE8F0874FF4165146
:103C0000016000218180C18001810C21418100215E
:103C10008181704710B502460020108A4FF2FF03E1
:103C200018400B884C8823438C882343CC8823433B
:103C30001843108210BD0021018041808180C18025
:103C4000704721B1828942F40052828104E0828966
:103C50004DF6FF731A4082817047F0B50346002489
:103C600000260025002040F66A17B94200D100BFA7
:103C70001846C1F3421401F01F06012707FA06F5A2
:103C8000012C01D10C3004E0022C01D1103000E0F5
:103C900014301AB107682F43076002E00768AF438A
:103CA0000760F0BD1AB1838A0B43838202E0838AE6
:103CB0008B4383827047028A4FF6F0731A40028268
:103CC000028A0A430282704782894FF2FF731A40C8
:103CD000828182890A438281704721B1828942F0C0
:103CE0000202828104E082894FF6FD731A408281CC
:103CF0007047028A4FF6DF731A400282028A0A4333
:103D00000282704721B1028A42F48042028204E0BA
:103D1000028A4BF6FF731A4002827047C1F3080211
:103D20008280704701468888C0F308007047818907
:103D300041F0010181817047028BD2B20283028B74
:103D400042EA012202837047028B02F47F4202831F
:103D5000028B0A430283704721B1828A42F020021B
:103D6000828204E0828A4FF6DF731A4082827047B3
:103D700021B1828A42F01002828204E0828A4FF6E8
:103D8000EF731A408282704721B1828A42F00802A2
:103D9000828204E0828A4FF6F7731A40828270476B
:103DA00021B1828942F40042828103E08289C2F318
:103DB0000E028281704721B1828A42F400628282BF
:103DC00004E0828A4FF2FF731A4082827047828A2F
:103DD0004FF6FB731A408282828A0A4382827047BE
:103DE00021B1828A42F00202828204E0828A4FF686
:103DF000FD731A408282704702460020B1F5007FB1
:103E000000D100BF13880B400BB1012000E000205F
:103E1000704701F40072B2F5007F00D100BFCA43C1
:103E20000280704770B50246002400230025002060
:103E300040F66A16B14200D100BFC1F3421501F04D
:103E40001F03012606FA03F3012D02D196893340A0
:103E500006E0022D02D1168A334001E0968A3340F3
:103E60000C12012606FA04F41688344013B10CB182
:103E7000012000E0002070BD10B50022002340F6B4
:103E80006A14A14200D100BF0A1201249440A3B2D7
:103E9000DC43048010BD00000038014000440040B5
:103EA00000480040004C00400050004031490143B0
:103EB000314A1160704770B5002100230F22C47889
:103EC00004B32D4C246804F4E064C4F5E064210AD2
:103ED000C1F10403CA40447804FA03F18478144021
:103EE00021430901254C0678A155047804F01F05EB
:103EF0000124AC4005786D11AD0005F1E025C5F851
:103F0000004109E0047804F01F050124AC401C4D79
:103F10000678761145F8264070BD1A4A0A400243D9
:103F2000154B1B1F1A60704739B1134A121D1268D6
:103F30000243114B1B1D1A6006E00F4A121D126846
:103F400082430D4B1B1D1A607047042808D14FF0A7
:103F5000E021096941F004014FF0E022116107E01E
:103F60004FF0E021096921F004014FF0E0221161D6
:103F7000704700000000FA050CED00E000E400E0EE
:103F800080E100E080FFFF1F01684FF6FE721140E4
:103F900001600021016041608160C1608D498842FB
:103FA00008D18C490839496841F00F01894A083A1B
:103FB00051608AE087491431884208D1854908391F
:103FC000496841F0F001834A083A51607DE0814937
:103FD0002831884208D17F490839496841F4706125
:103FE0007C4A083A516070E07A493C31884208D1F5
:103FF00078490839496841F47041764A083A516075
:1040000063E074495031884208D1724908394968DF
:1040100041F470216F4A083A516056E06D496431AD
:10402000884208D16B490839496841F47001694AEE
:10403000083A516049E067497831884208D16549BA
:104040000839496841F07061624A083A51603CE0C1
:104050006149884206D1011F096841F00F01021F22
:10406000116032E05C491431884208D15A49091F75
:10407000096841F0F001584A121F116025E05649C5
:104080002831884208D15449091F096841F47061F8
:10409000514A121F116018E04F493C31884208D143
:1040A0004D49091F096841F470414B4A121F1160C4
:1040B0000BE049495031884207D14749091F096837
:1040C00041F47021444A121F1160704710B500225C
:1040D000026847F6F0739A430C6A8B6823430C69B5
:1040E00023434C6923438C692343CC6923434C6AA3
:1040F00023438C6A23431A430260CB6843600B68F6
:1041000083604B68C36010BD002101604160816025
:10411000C160016141618161C1610162416281628D
:10412000704721B1026842F00102026004E00268B7
:104130004FF6FE731A40026070471AB103680B43D2
:10414000036002E003688B4303607047416070477F
:104150000146486880B2704701460020002201F005
:1041600080531BB11C4B083B1A6802E0194B083BFB
:104170001A6802EA01030BB1012000E00020704739
:1041800000F0805119B11449091F086002E011497B
:1041900008394860704701460020002201F0805332
:1041A0001BB10D4B083B1A6802E00A4B083B1A682A
:1041B00002EA01030BB1012000E00020704700F08B
:1041C000805119B10449091F086002E0014908390A
:1041D000486070470800024008040240FB4800683D
:1041E00040F00100F949086008464068F849084075
:1041F000F649486008460068F6490840F3490860F7
:104200000846006820F4802008600846406820F4D2
:10421000FE0048600846006820F0A05008604FF497
:104220007F0088600020C8627047E849096821F46F
:104230008031E64A11601146096821F4802111603D
:10424000B0F5803F03D0B0F5802F0ED106E0DF49F6
:10425000096841F48031DD4A116007E0DB490968F3
:1042600041F4A021D94A116000E000BF00BF7047AF
:1042700010B501460022002300204A11012A02D174
:10428000D24C236806E0022A02D1D04C236A01E016
:10429000CE4C636A01F01F02012494401C400CB113
:1042A000012000E0002010BD38B50020009000245F
:1042B000002500BF3120FFF7DBFF05460098401CBA
:1042C00000900098B0F5A06F01D0002DF2D0312001
:1042D000FFF7CEFF08B1012400E00024204638BDDE
:1042E00001460020B94A106820F0F80040EAC100F9
:1042F00010607047B8490860704702460020B34B11
:10430000586820F4741042EA01031843AF4B586018
:104310007047B1490866704702460020AB4BD86A27
:10432000AE4B184042EA01031843A84BD8627047CD
:1043300001460020A54AD06A20F0F0000843D06270
:10434000704701460020A14AD06A20F470600843FB
:10435000D0627047A04988667047014600209B4A9A
:10436000D06A20F470400843D06270479A490867C9
:10437000704701460020954A506820F0030008432A
:10438000506070479148406800F00C00704701464B
:1043900000208E4A506820F0F000084350607047BB
:1043A00001460020894A506820F4E06008435060CC
:1043B000704701460020854A506820F4605040EA6A
:1043C000C1005060704729B1804A527A02437F4B46
:1043D0005A7204E07D4A527A82437C4B5A7270478B
:1043E0007D49D8310860704701460020774A5068FF
:1043F00020F4404008435060704779490860704796
:104400007749091D086070470021704A20321170F9
:104410006E4A82F82010012802D004280AD104E054
:1044200001216A4A2032117005E00521674A2032D5
:10443000117000E000BF00BF70476A490860704714
:104440006249096A0143614A11627047654944390A
:10445000086070472DE9F04100210022002500236B
:104460000026002400278C46DFF86081D8F80480FD
:1044700008F00C0121B1042907D0082959D109E01D
:10448000DFF86481C0F8008058E0DFF86081C0F890
:10449000008053E0DFF83481D8F8048008F470120B
:1044A000DFF82881D8F8048008F48035920C0D2AB2
:1044B00001D0921C00E0062235B9DFF8348102FBFE
:1044C00008F8C0F8008033E0DFF80081D8F82C80CD
:1044D00008F48036DFF8F480D8F82C8008F00F0854
:1044E00008F1010446B9DFF80481B8FBF4F808FBD1
:1044F00002F8C0F800801BE0DFF8D080D8F82C80EC
:10450000C8F3031808F10107DFF8C080D8F82C8041
:10451000C8F3032808F1020CDFF8D080B8FBF7F8E5
:1045200008FB0CF8B8FBF4F808FB02F8C0F80080B0
:1045300004E0DFF8B480C0F8008000BF00BFDFF8FF
:104540008C80D8F8048008F0F0010909DFF8A48015
:1045500018F80130D0F8008028FA03F8C0F8048079
:10456000DFF86880D8F8048008F4E061090ADFF811
:10457000848018F80130D0F8048028FA03F8C0F8D5
:104580000880DFF84880D8F8048008F46051C90A30
:10459000DFF8608018F80130D0F8048028FA03F8BA
:1045A000C0F80C80DFF82480D8F8048008F440417B
:1045B000890BDFF8448018F80130D0F80C80B8FB84
:1045C000F3F8C0F81080BDE8F08100000010024050
:1045D0000000FFF0FFFFF6FE00004242F0FFFEFF8A
:1045E000C40542428004424200127A0040787D01B4
:1045F00000093D00040600201406002029B1354AB8
:1046000052690243334B5A6104E0324A5269824391
:10461000304B5A61704729B12E4A926902432D4BA3
:104620009A6104E02B4A926982432A4B9A6170474F
:1046300029B1284AD2690243264BDA6104E0254AAF
:10464000D2698243234BDA61704729B1214A926AC9
:104650000243204B9A6204E01E4A926A82431D4B39
:104660009A62704729B11B4AD2680243194BDA603B
:1046700004E0184AD2688243164BDA60704729B1C9
:10468000144A12690243134B1A6104E0114A126979
:104690008243104B1A6170470F49086070470F49F9
:1046A000C86470470B49C87170470A48406A40F0B7
:1046B000807008494862704701460020054A9268A8
:1046C0000A400AB1012000E00020704701498872C9
:1046D0007047000000100240400442420000424285
:1046E000002044490860091D0860091D0860091D73
:1046F000086041483F4914310860704700213D4936
:104700008279002A3AD00A46126803689A430B4617
:104710001A600A1D126803689A430B1D1A60027919
:1047200011440A6803681A430A60324A0832126860
:1047300003689A432F4B08331A601A1D12680368E6
:104740009A432C4B0C331A604279102A0ED11A1F4F
:10475000126803681A43274B08331A601A1D12683F
:1047600003681A43234B0C331A600DE02149427948
:1047700011440A6803681A430A6005E0027911448B
:104780000A6803689A430A6070470021016001715A
:104790000C2141710021817170471649103109685F
:1047A0000143144A10321160704701460020114A3B
:1047B000143212680A400AB1012000E0002070475C
:1047C0000C49143108607047014600200022094B53
:1047D0001B6803EA0102074B14331B680B4013B13B
:1047E0000AB1012000E0002070470249143108603E
:1047F0007047000000040140FFFF0F0010B50446A1
:10480000FE48844208D10121C014FFF72BFF00218C
:10481000E014FFF727FFC4E0B4F1804F08D1012175
:104820000846FFF72CFF00210120FFF728FFB8E022
:10483000F348844208D101210220FFF720FF002124
:104840000220FFF71CFFACE0EE48844208D10121B2
:104850000420FFF714FF00210420FFF710FFA0E061
:10486000E948844208D101210820FFF708FF002110
:104870000820FFF704FF94E0E448844208D10121B6
:104880001020FFF7FCFE00211020FFF7F8FE88E063
:10489000DF48844208D101212020FFF7F0FE0021EB
:1048A0002020FFF7ECFE7CE0DA48844208D10121A9
:1048B0004014FFF7D7FE00216014FFF7D3FE70E02D
:1048C000D548844209D10121C804FFF7CBFE00215D
:1048D0004FF40020FFF7C6FE63E0D048844209D1C0
:1048E00001210805FFF7BEFE00214FF48010FFF7FD
:1048F000B9FE56E0CA48844209D101214805FFF7B4
:10490000B1FE00214FF40010FFF7ACFE49E0C548AE
:10491000844208D101214020FFF7B1FE0021402050
:10492000FFF7ADFE3DE0C048844208D10121802060
:10493000FFF7A5FE00218020FFF7A1FE31E0BB4874
:10494000844208D101218015FFF799FE0021A015AE
:10495000FFF795FE25E0B648844209D101210804FD
:10496000FFF780FE00214FF48030FFF77BFE18E058
:10497000B048844209D101214804FFF773FE0021A9
:104980004FF40030FFF76EFE0BE0AB48844208D1D5
:1049900001218804FFF766FE00214FF48020FFF715
:1049A00061FE10BD00220288944B98420ED0994BB4
:1049B00098420BD0B0F1804F08D0914B984205D06F
:1049C000904B984202D0904B984204D14FF68F738F
:1049D0001A404B881A438D4B984207D08C4B984213
:1049E00004D04FF6FF431A40CB881A4302808B88CD
:1049F00083850B880385814B98420BD0854B984269
:104A000008D08B4B984205D08A4B984202D08A4BF3
:104A1000984201D10B7A038601238382704770B5D7
:104A2000002400220023058C4FF6FE7635400584D5
:104A3000028C8388048B4FF68F752C40B51E2C405A
:104A40000D882C43751E2A400D892A434D882A4320
:104A50006A4DA8420BD06F4DA84208D0744DA842B1
:104A600005D0744DA84202D0734DA84213D14FF621
:104A7000F7752A404D892A434FF6FB752A408D88E9
:104A80002A434FF6FF652B404FF6FF552B408D898B
:104A90002B43CD892B4383800483CD888586028474
:104AA00070BD70B5002400220023058C4FF6EF7610
:104AB00035400584028C8388048B48F6FF752C40B2
:104AC0004FF6FF452C400D884FF6FF7606EA052588
:104AD0002C434FF6DF752A400D8906EA05152A4357
:104AE0004D8806EA05152A43444DA84202D0494D97
:104AF000A8421DD14FF67F752A404D894FF6FF76AB
:104B000006EA05152A434FF6BF752A408D8806EA46
:104B100005152A434FF6FF352B404FF2FF752B400A
:104B20008D8906EA85052B43CD8906EA85052B4349
:104B300083800483CD880587028470BD70B500240E
:104B400000220023058C4FF6FF6635400584028C59
:104B50008388848B4FF68F752C404FF6FC752C4064
:104B60000D882C434FF6FF552A400D894FF6FF76EE
:104B700006EA05252A434D8806EA05252A431F4DE6
:104B8000A84202D0234DA8421DD14FF2FF752A4002
:104B90004D894FF6FF7606EA05252A434FF6FF3585
:104BA0002A408D8806EA05252A434EF6FF752B40DC
:104BB0004DF6FF752B408D8906EA05152B43CD89EF
:104BC00006EA05152B4383808483CD88858702847C
:104BD00070BD70B5002200230024058C4EF6FF76D0
:104BE00035400584038C8488828B48F6FF752A4003
:104BF0004FF6FF452A400D8820E00000002C0140C0
:104C00000004004000080040000C0040001000407C
:104C10000014004000340140004C014000500140AD
:104C20000054014000180040001C004000200040DB
:104C30000040014000440140004801404FF6FF762B
:104C400006EA05252A434DF6FF752B400D8906EA35
:104C500005352B434D8806EA05352B43FA4DA8420E
:104C600002D0FA4DA84208D14BF6FF752C408D8931
:104C70004FF6FF7606EA85152C4384808283CD8823
:104C8000A0F84050038470BD828B4FF2FF331A406E
:104C90008283828B4FF6FF7303EA01231A438283D8
:104CA0007047F0B50C461546002200210026078CFF
:104CB0004EF6FF7C07EA0C070784828B018C4FF6C7
:104CC000FF7707EA043640F6FF473A404FF6FF7792
:104CD00007EA05273A434FF6FF7707EA03373A43D7
:104CE000D94FB8420ED0D94FB8420BD0B0F1804F57
:104CF00008D0D74FB84205D0D64FB84202D0D64FD1
:104D0000B84206D14DF6FF77394046F48057394313
:104D100005E047F6FF57394044F480573943828312
:104D20000184F0BD828B4FF6F3731A408283828B2D
:104D30000A4382837047F0B50C46154600220021D5
:104D40000026078C4FF6FF6C07EA0C070784828B5E
:104D5000018C4FF6FF7707EA04264FF60C773A40AE
:104D60004FF6FF7707EA03172F433A43B64FB8428F
:104D70000ED0B64FB8420BD0B0F1804F08D0B44F30
:104D8000B84205D0B34FB84202D0B34FB84206D1B3
:104D90004FF6FF57394046F48077394305E04FF22C
:104DA000FF57394044F48077394382830184F0BD52
:104DB000028B4FF2FF331A400283028B4FF6FF73D0
:104DC00003EA01231A4302837047F0B50C461546E7
:104DD000002200210026078C4FF6EF7C07EA0C0723
:104DE0000784028B018C4FF6FF7707EA041640F622
:104DF000FF473A404FF6FF7707EA03373A434FF64B
:104E0000FF7707EA05273A438F4FB8420ED08F4FFE
:104E1000B8420BD0B0F1804F08D08D4FB84205D0CA
:104E20008C4FB84202D08C4FB84206D14FF6DF7794
:104E3000394046F01007394305E04FF65F773940B7
:104E400044F01007394302830184F0BD028B4FF612
:104E5000F3731A400283028B0A4302837047F0B552
:104E60000C46154600220021068C4FF6FE773E4088
:104E70000684028B018C4FF60C7632407E1C06EACB
:104E800003162E433243704EB0420ED06F4EB042E6
:104E90000BD0B0F1804F08D06D4EB04205D06D4EB2
:104EA000B04202D06C4EB04206D14FF6FD76314092
:104EB00044F00106314305E04FF6F576314044F009
:104EC0000106314302830184F0BD70B505460C46EE
:104ED0005D4885420ED05D4885420BD0B5F1804FCC
:104EE00008D05B48854205D05A48854202D05A48CE
:104EF000854200D100E000BF208850B92389A288F4
:104F000061882846FFF7ABFFE1882846FFF79EFF40
:104F100025E0208804280AD12389A28861882846B0
:104F2000FFF753FFE1882846FFF742FF17E020888C
:104F300008280AD12389A28861882846FFF7FBFE4A
:104F4000E1882846FFF7EEFE09E02389A288618800
:104F50002846FFF7A6FEE1882846FFF795FE70BDBC
:104F60002DE9F04105460C4600260127608808B966
:104F7000022600E00026A088012801D1022700E0D7
:104F800001272088A0B92389A28861882846FFF7D5
:104F900066FFE1882846FFF759FF23893A463146E4
:104FA0002846FFF712FFE1882846FFF701FF13E0CC
:104FB0002389A28861882846FFF707FFE1882846F1
:104FC000FFF7F6FE23893A4631462846FFF747FFAA
:104FD000E1882846FFF73AFFBDE8F0810A884B8850
:104FE0001A438B881A43CB881A430B891A434B897F
:104FF0001A438B891A43A0F8442070474FF6FF717B
:10500000818000210180C1804180017270470021B0
:10501000018041808180C180018141818181C18184
:105020007047002101804180012181800021C180E1
:10503000018170470021018041808180C180018110
:105040004181818170470000002C01400034014003
:105050000004004000080040000C004021B102881C
:1050600042F00102028004E002884FF6FE731A400B
:105070000280704731B1B0F8442042F40042A0F8F9
:10508000442005E0B0F84420C2F30E02A0F844200A
:1050900070471AB183890B43838102E083898B4374
:1050A000838170478182704741EA0203A0F848304B
:1050B00070471AB183890B43838102E083898B4354
:1050C0008381704701894FF6F87211400181704762
:1050D0000A46002101894FF68F731940114301815F
:1050E000704730B504460D4629462046FFF7F0FFCD
:1050F000208940F00700208130BD2DE9F0410446B1
:105100000D4616461F46602D06D13B46012231460C
:105110002046FFF75AFE05E03B4601223146204675
:10512000FFF79DFE29462046FFF7D2FF208940F079
:1051300007002081BDE8F08130B50C4600210189CF
:10514000C9B24FF6FF7505EA0325154325432943E8
:10515000018130BD2DE9F04105460E4617469846BF
:10516000002443463A4631462846FFF7E5FF2C899E
:105170004FF6F870044044F007044FF68F70044077
:1051800044F070042C81BDE8F081F0B504460D4672
:1051900016461F463B46324629462046FFF7CCFFBF
:1051A000208940F480402081F0BD018582827047D3
:1051B0000A46002101884FF68F7319401143018080
:1051C0007047F0B50C4615461E460021002200230C
:1051D0000189028B038C4FF6F877394021434FF653
:1051E000FC473A4040F201173A434FF6DD773B4027
:1051F0004FF6FF7707EA06172F433B4301810283EF
:105200000384F0BD0A460021018B4FF68F731940CD
:105210001143018370470A460021018B48F6FF7352
:1052200019404FF6FF7303EA0223194301837047C5
:105230000A460021818B4FF68F73194011438183F9
:1052400070470A460021818B48F6FF7319404FF6DC
:10525000FF7303EA022319438183704721B1028857
:1052600042F08002028004E002884FF67F731A4009
:105270000280704721B1828842F00402828004E0FB
:1052800082884FF6FB731A408280704721B1828872
:1052900042F00802828004E082884FF6F7731A40D9
:1052A0008280704721B1828842F00102828004E04E
:1052B00082884FF6FE731A40828070470A460021AA
:1052C000018B4FF6F77319401143018370470A466B
:1052D0000021018B4FF2FF7319404FF6FF7303EA71
:1052E00002231943018370470A460021818B4FF640
:1052F000F77319401143818370470A460021818B5F
:105300004FF2FF7319404FF6FF7303EA022319436C
:10531000818370470A460021018B4FF6FB731940C9
:105320001143018370470A460021018B4FF6FF337A
:1053300019404FF6FF7303EA0223194301837047B4
:105340000A460021818B4FF6FB731940114381837C
:1053500070470A460021818B4FF6FF3319404FF604
:10536000FF7303EA02231943818370470A46002131
:10537000018B4FF67F7319401143018370470A4632
:105380000021018BC1F30E014FF6FF7303EA0223E4
:105390001943018370470A460021818B4FF67F73C2
:1053A00019401143818370470A460021818BC1F364
:1053B0000E014FF6FF7303EA0223194381837047FE
:1053C0000A460021018C4FF6FD73194011430184F8
:1053D00070470A460021018C4FF6F77319401143BC
:1053E000018470470A460021018C4FF6DF73194093
:1053F0004FF6FF7303EA02131943018470470A460C
:105400000021018C4FF67F7319404FF6FF7303EABA
:1054100002131943018470470A460021018C4FF69C
:10542000FF5319404FF6FF7303EA02231943018427
:1054300070470A460021018C4FF2FF7319404FF666
:10544000FF7303EA02231943018470470A460021CF
:10545000018C4DF6FF7319404FF6FF7303EA0233D8
:1054600019430184704730B5002301248C40A3B256
:10547000048C9C430484048C02FA01F5ADB22C43E5
:10548000048430BD30B5002304248C40A3B2048CC6
:105490009C430484048C02FA01F5ADB22C430484CD
:1054A00030BD70B503460020002418461830012591
:1054B0008D40ACB21D8CA5431D8409B1082909D1CA
:1054C00000EB6100056825F070050560056815436F
:1054D00005600EE00D1FC5F34E052844056825F450
:1054E000E045056005684FF6FF7606EA022635437B
:1054F000056070BD21B1028842F00202028004E022
:1055000002884FF6FD731A400280704721B102886D
:1055100042F00402028004E002884FF6FB731A4056
:105520000280704721B1828842F08002828004E0CC
:1055300082884FF67F731A408280704702884FF648
:10554000F7731A40028002880A43028070478288FB
:105550004FF68F731A40828082880A438280704798
:1055600002894FF6F8731A40028102890A430281C8
:10557000704702894FF67F731A40028102890A43FD
:1055800002817047818470478185704781867047AA
:105590000187704781877047A0F8401070470288E4
:1055A0004FF6FF431A40028002880A430280704788
:1055B0000146888E70470146088F70470146888FE4
:1055C00070470146B1F8400070470146888C70472B
:1055D0000146088D704702460020138A0B400BB12C
:1055E000012000E000207047CA430282704730B5B6
:1055F0000246002000230024158A05EA010395894C
:1056000005EA010413B10CB1012000E0002030BD17
:10561000CA4302827047000010B501214807FFF716
:105620002EF800214FF00050FFF729F810BD30B5DB
:10563000002200235A4C226840F6FE748440A243A4
:10564000D1E900452C438D682C43CD6844EA05031D
:1056500003FA00F42243524C226030BD0021016065
:1056600041608160C160704739B14D4A12680123C1
:1056700083401A434A4B1A6006E0494A12680123E4
:1056800083409A43464B1A60704741B1444A1268BE
:105690004FF4805383401A43414B1A6007E0404A5D
:1056A00012684FF4805383409A433D4B1A60704711
:1056B00010B551B13A4A121D126804090123A340E2
:1056C0001A43374B1B1D1A6009E0354A121D126838
:1056D00004090123A3409A43314B1B1D1A6010BDDE
:1056E00040B12F49091D096841F003012C4A121DE0
:1056F000116007E02A49091D096821F00301284AC1
:10570000121D1160704710B53AB1254B1B6801FAA4
:1057100000F42343224C236006E0214B1B6801FA6E
:1057200000F4A3431E4C236010BD08B50022009274
:105730001B4A009200F10802009B1A440092009A52
:10574000116008BD08B500220092154A009200F1D0
:105750001402009B1A440092009A116008BD30B5F3
:1057600000240023082802D142EA012401E042EA91
:1057700001440B4B00F120052B441C6030BD08B5E3
:10578000014600200090064800902C2000EB91007C
:10579000009A104400900098006880B208BD000094
:1057A000007400400948804709480047FEE7FEE7CB
:1057B000FEE7FEE7FEE7FEE7FEE7FEE7FEE7FEE7C1
:1057C00004480549054A064B70470000F558000893
:1057D00051010008F8160020F81C0020F8180020DD
:1057E000F81800200CB50020019000909248006845
:1057F00040F480309049086000BF8F48006800F492
:10580000003000900198401C0190009818B9019850
:10581000B0F5A06FF1D18848006800F4003010B1F5
:105820000120009001E000200090009801285CD148
:105830008248006840F0100080490860084600680F
:1058400020F0030008600846006840F0020008608D
:10585000794840687849486008464068486008468A
:10586000406840F4806048600846C06A7449084057
:105870007149C8620846C06A724908436E49C862E5
:105880000846006840F08060086000BF6A48006811
:1058900000F000600028F9D06748406820F47C10D0
:1058A000654948600846406840F4E810486008468A
:1058B000006840F08070086000BF5F48006800F03A
:1058C00000700028F9D05C48406820F003005A4975
:1058D00048600846406840F00200486000BF5648F3
:1058E000406800F00C000828F9D10CBD10B5FFF796
:1058F00079FF10BD10B55048006840F001004E49D6
:10590000086008464068504908404B4948600846CE
:1059100000684E490840484908600846006820F47D
:10592000802008600846406820F4FE004860084671
:10593000006820F0A05008604FF47F0088600020CD
:10594000C862FFF7D3FF4FF000604149086010BD07
:10595000F0B50021002000230024002200250026AD
:10596000354F7F6807F00C0121B1042908D00829C0
:105970004BD10BE0374FDFF8E0C0CCF800704AE0C5
:10598000364FDFF8D4C0CCF8007044E02A4F7F686F
:1059900007F47010284F7F6807F48033800C0D28BF
:1059A00001D0801C00E0062033B92D4F4743DFF8BB
:1059B000A8C0CCF8007027E01F4FFF6A07F48034BE
:1059C0001D4FFF6A07F00F077A1C44B9234FB7FB3E
:1059D000F2F74743DFF880C0CCF8007014E0164FB0
:1059E000FF6AC7F303177D1C134FFF6AC7F3032732
:1059F000BE1C1A4FB7FBF5F77743B7FBF2F74743E7
:105A0000DFF854C0CCF8007005E0124FDFF848C052
:105A1000CCF8007000BF00BF074F7F68C7F30317C3
:105A2000DFF840C01CF807100B4F3F68CF40DFF88D
:105A300028C0CCF80070F0BD0010024000200240E9
:105A400000F0FEFF440601000000FFF0FFFFF6FE3D
:105A500008ED00E000127A001806002040787D0171
:105A600000093D001C0600204FF0E021096921F0EB
:105A700004014FF0E0221161C21700EB5272D21004
:105A800002EB4203C3EBC2124FF6FF7303EAC202FA
:105A9000134B1A807047B0F5E96F01DD4FF4E960F0
:105AA000E0B10F4A128842434FF0E0235A610022CE
:105AB0009A611A46126942F001021A6100BF4FF062
:105AC000E022116901F001021AB101F48032002ACA
:105AD000F5D000224FF0E0231A619A617047000070
