:020000040800F2
:10000000602900202D020008310200083302000898
:10001000350200083702000839020008000000001D
:100020000000000000000000000000003B0200088B
:100030003D020008000000003F02000841020008E5
:10004000430200084302000843020008430200087C
:10005000430200084302000843020008430200086C
:10006000430200084302000843020008430200085C
:10007000430200084302000843020008430200084C
:10008000430200084302000843020008430200083C
:10009000430200084302000843020008430200082C
:1000A000430200084302000843020008430200081C
:1000B00043020008430200082556000843020008D6
:1000C00043020008430200084302000843020008FC
:1000D0004302000895570008430200084302000845
:1000E00043020008430200084302000843020008DC
:1000F00043020008430200084302000843020008CC
:1001000043020008430200084302000843020008BB
:1001100043020008430200084302000843020008AB
:10012000430200084302000843020008430200089B
:1001300000F002F800F06BF80AA090E8000C82448E
:100140008344AAF10107DA4501D100F060F8AFF26B
:10015000090EBAE80F0013F0010F18BFFB1A43F0A5
:1001600001031847949E0000B49E00000A444FF01B
:10017000000C10F8013B13F0070408BF10F8014B06
:100180001D1108BF10F8015B641E05D010F8016B4B
:10019000641E01F8016BF9D113F0080F1EBF10F8AF
:1001A000014BAD1C0C1B09D16D1E58BF01F801CBD2
:1001B000FAD505E014F8016B01F8016B6D1EF9D555
:1001C0009142D6D37047000000230024002500266A
:1001D000103A28BF78C1FBD8520728BF30C148BFAA
:1001E0000B607047642900F09980752900F09680B3
:1001F000782900F0CF80632900F02E82732900F067
:100200003382002070471FB51FBD10B510BD00F030
:1002100065FA1146FFF7F7FF05F0A6FE00F083FA36
:1002200003B4FFF7F2FF03BC05F031FE08480047B6
:10023000FEE7FEE7FEE7FEE7FEE7FEE7FEE7FEE796
:10024000FEE7FEE703480449024A044B70470000FA
:100250003101000860250020602900206025002071
:10026000704700000FB4044910B503AA029800F0CB
:10027000FFF910BC5DF814FB0800002070B50446BF
:1002800085690068C10601D5302600E02026C00738
:1002900007D070BDD4E9012130469047206A401C48
:1002A00020626D1EF6D570BD70B504468569007874
:1002B000C00707D170BDD4E9012120209047206AF2
:1002C000401C20626D1EF6D570BD70B50C4605460B
:1002D000012A05D02878800600D5EA69002302E0CB
:1002E000012305E05B1C934202D2E05C0028F9D1B7
:1002F000A869E618C01AA861286A18442862284626
:10030000FFF7BCFF04E0D5E9012114F8010B904789
:10031000B442F8D32846FFF7C7FF70BD2DE9F0417E
:100320000646002410687529314616A510D0AFF393
:100330000080002802DA404213A507E031688A07EE
:1003400001D512A502E0490704D511A5012401E059
:10035000AFF3008000210A2206F1240709E0B0FB78
:10036000F2FCB0FBF2F302FB1C003030785418466C
:10037000491C0028F3D123462A463046BDE8F04107
:1003800000F007B9000000002D0000002B00000065
:100390002000000070B504460D4621461068AFF3FA
:1003A00000802188090502D50F4A7A4402E00E4AEE
:1003B0007A440E32002104F1240305E000F00F0618
:1003C0000009965D5E54491C0028F7D1207800236F
:1003D000000704D5702D02D009B102231132204646
:1003E000BDE8704000F0D5B83C9A00002DE9F05F00
:1003F000894604464FF0000ADFF874B1FB44C0F8A8
:1004000020A02046E1688847002874D0252806D01F
:10041000D4E901219047206A401C2062F1E70026C0
:100420005F462046E16888472028054607DB312DD6
:1004300005D2781910F8200C08B10643F1E7B0078F
:1004400001D526F00406C4F81CA00027C4F818A0A3
:100450002A2D09D0284605F013FD38B304EB870890
:10046000303DC8F8185019E059F8041B204604EB39
:1004700087029161E1688847012F054618D1E0693C
:10048000002820DA26F020061DE0D8F8180000EB3E
:10049000800005EB40003038C8F818002046E168BD
:1004A0008847054605F0ECFC0028EED1012F0AD064
:1004B0002E2D08D12046E16888477F1C0546022F73
:1004C00046F02006C4DBA069002803DA404246F06B
:1004D0000106A061F00701D026F010066C2D0BD0AC
:1004E000682D09D04C2D39D06A2D35D0742D35D0DA
:1004F0007A2D33D016E038E0E1682F462046884751
:10050000B842054609D16C2F26D04FF48060E168CF
:10051000064320468847054604E06C2F1AD04FF466
:10052000807006430DB3A5F14100192802D820358B
:1005300046F400664A462946204626604E46FFF7A6
:1005400051FE80B101280BD0F61D26F0070000F106
:10055000080956E74020E4E78020D8E70020D6E7E6
:1005600006F104094DE7284652E7206ABDE8F09FEE
:10057000129A0000704770477047704710B500F03E
:1005800089F8006810BD10B5044600F083F80460D7
:1005900010BD2DE9F0470D4699469246044600F1FC
:1005A00024080168880604D5E06921F01001216063
:1005B00000E00120A84201DD471B00E00027A169FF
:1005C0007A1902EB0900081AA0612078C00602D44B
:1005D0002046FFF753FE002608E0D4E901211AF86F
:1005E00006009047206A401C761C20624E45F4DBD2
:1005F0002078C0060AD52046FFF740FE06E0D4E981
:10060000012130209047206A401C2062381EA7F14B
:100610000107F4DC07E0D4E9012118F80500904750
:10062000206A401C2062281EA5F10105F3DC20464B
:10063000FFF73AFE2078000602D50220BDE8F087D9
:100640000120FBE710B5436913B1AFF3008001E06F
:10065000FFF73BFE012010BD127800F124010A7063
:1006600000224A700122EDE711684FF0FF32E9E7FE
:10067000074B70B50D467B4400F015F8044628463C
:1006800000F024F810B14FF0FF3070BD204670BD6F
:10069000D358000000487047FC24002001694A1C20
:1006A00002610878704700B58FB0CDE901310021B3
:1006B000059105497944CDE9031011466846FFF7D5
:1006C00095FE0FB000BD0000E5FFFFFF007B00F0CE
:1006D0008000704700487047FC2400207546FFF7F3
:1006E000F9FFAE4605006946534620F007008546EF
:1006F00018B020B5FFF7A6FDBDE820404FF000067A
:100700004FF000074FF000084FF0000B21F00701F9
:10071000AC46ACE8C009ACE8C009ACE8C009ACE83C
:10072000C0098D4670470446AFF300802046FFF7AE
:1007300077FD00004C48806940F004004A49886118
:100740004A48006820F0F00048490860464880693F
:1007500040F40070444988610846C06840F4007065
:10076000C8600846C06820F40070C8600846406849
:1007700020F4404048600846406840F4004048602B
:100780003B4800683B490840394908600846006812
:1007900008600846006820F480700860081D006842
:1007A00020F00200091D08600846006820F460205F
:1007B00008600846006840F4602008600846006849
:1007C00040F4801008600846006820F4006008606B
:1007D0000846006840F4000008602548283000689A
:1007E00020F470002249283108600846006808603B
:1007F0001F480C30006820F003001D490C310860D0
:100800000846006840F038000860081F006820F4BF
:10081000E010091F08600846006840F4E010086016
:10082000081F006840F00100091F086008460068C2
:1008300040F00800086000BF0D48001D006800F08F
:1008400008000028F8D10A48001D006840F00400A4
:100850000749091D086000BF0548001D006800F039
:1008600004000028F8D17047001002400008014041
:1008700004240140FFFFF00039B1084A1268012347
:1008800083401A43054B1A6006E0044A12680123AC
:1008900083409A43014B1A60704700000074004087
:1008A00041B1094A12684FF4805383401A43064B02
:1008B0001A6007E0044A12684FF4805383409A4359
:1008C000014B1A60704700000074004030B50022F0
:1008D00000230A4C226840F6FE748440A243D1E90A
:1008E00000452C438D682C43CD6844EA050303FA88
:1008F00000F42243014C226030BD0000007400402F
:100900000021016041608160C160704721B10268CF
:1009100042F00102026004E002684FF6FE731A40E2
:100920000260704701684FF6FE72114001600021BD
:10093000016041608160C1604B49884208D14A49E9
:100940000839496841F00F01474A083A51608AE086
:1009500045491431884208D143490839496841F072
:10096000F001414A083A51607DE03F492831884210
:1009700008D13D490839496841F470613A4A083A5A
:10098000516070E038493C31884208D13649083915
:10099000496841F47041344A083A516063E0324991
:1009A0005031884208D130490839496841F47021F2
:1009B0002D4A083A516056E02B496431884208D1EB
:1009C00029490839496841F47001274A083A5160B9
:1009D00049E025497831884208D1234908394968D6
:1009E00041F07061204A083A51603CE01F4988425A
:1009F00006D1011F096841F00F01021F116032E0AA
:100A00001A491431884208D11849091F096841F070
:100A1000F001164A121F116025E01449283188425E
:100A200008D11249091F096841F470610F4A121F69
:100A3000116018E00D493C31884208D10B49091F6B
:100A4000096841F47041094A121F11600BE007491F
:100A50005031884207D10549091F096841F47021C6
:100A6000024A121F11607047080002400804024049
:100A700010B50022026847F6F0739A430C6A8B683F
:100A800023430C6923434C6923438C692343CC697A
:100A900023434C6A23438C6A23431A430260CB6886
:100AA00043600B6883604B68C36010BD1948806960
:100AB00040F00400174988610846C06940F00050C2
:100AC000C8611548006820F4702013490860084682
:100AD000006808601148006840F001000F49086094
:100AE0000846006840F00200086008460068086098
:100AF0000846006808600846006808600846006804
:100B00000860084600680860002004490831086051
:100B100070470000001002400008014000740040CF
:100B20002DE9F0470446204607F0A8FB81460F490F
:100B3000484607F0C1FA81464FF08B41484607F01E
:100B4000B1FB824607F02AFA07464FF06632084B9F
:100B500006F050FE054606F06BFD8146484607F05C
:100B60006DFB04490860BDE8F087000000007A448E
:100B700066660A40087400402DE9F04102460025EF
:100B80000026002000230024002791F803C00CF069
:100B90000F0591F803C00CF0100CBCF1000F03D04E
:100BA00091F802C04CEA050591F800C0BCF1000FB5
:100BB00031D0146800202BE04FF0010C0CFA00F348
:100BC000B1F800C00CEA03069E4220D183004FF02A
:100BD0000F0C0CFA03F7BC4305FA03FC4CEA0404BF
:100BE00091F803C0BCF1280F06D14FF0010C0CFAAC
:100BF00000FCC2F814C00AE091F803C0BCF1480F31
:100C000005D14FF0010C0CFA00FCC2F810C0401CDA
:100C10000828D1D31460B1F800C0BCF1FF0F34DD57
:100C2000546800202EE000F1080C4FF0010808FA8B
:100C30000CF3B1F800C00CEA03069E4221D18300F8
:100C40004FF00F0C0CFA03F7BC4305FA03FC4CEA17
:100C5000040491F803C0BCF1280F05D100F1080C81
:100C600008FA0CF8C2F8148091F803C0BCF1480FE0
:100C700007D100F1080C4FF0010808FA0CF8C2F88F
:100C80001080401C0828CED35460BDE8F08101617B
:100C90007047000001460F48006820F01F000D4A11
:100CA000106010460068084310600A482C3800683D
:100CB00040F48000074A2C3A106000BF05483438E1
:100CC000006800F002000028F8D0024818300068E0
:100CD00080B27047342401402DE9F04107460C46AC
:100CE0000025002608E03846FFF7D4FF054405201C
:100CF00005F0F0F8701CC6B2A642F4DBB5FBF4F0C8
:100D000080B2BDE8F08100001548806940F0040021
:100D1000134988610846806940F0400088611148A5
:100D2000006820F00F000F4908600846006840F096
:100D3000080008600C4800680C4908400A4908602F
:100D4000084600680A4908430749086006480C300D
:100D5000006840F01C0004490C3108607047000036
:100D6000001002400008014000180140FF00F0FFA1
:100D70000088080010B5044614B10120234908700A
:100D80002248007858B32248006858B12048001F14
:100D9000006838B11E480838006818B11D4800685E
:100DA00001281CD10A2005F095F800201749087089
:100DB0001748006808B9012010BD1548001F0068D9
:100DC00008B90220F8E712480838006808B903207B
:100DD000F2E710480068012815D10420ECE70C4820
:100DE000006801280FD10A48001F006801280AD1B5
:100DF000074808380068012805D10648006810B97E
:100E00000120024908700020D6E7000012000020EF
:100E1000100123420001214270B504460026174804
:100E20000588408845431548808846F60401884275
:100E300016D112488079012812D100200F498871FB
:100E40002A2048812B2088810021084603F062FF78
:100E500001200A4988712B2048812A20888103E0DB
:100E60000021084603F056FF04F05AF9002602E07C
:100E700003480480761CAE42FAD370BDEC240020F7
:100E80000008006C10B50446002C66D16C498871CE
:100E9000F02008804FF4A07048800846808849F20E
:100EA000413188420BD06648808846F6040188426A
:100EB00005D06348808845F2103188421AD12C2031
:100EC0005F4908812A2048812B2088810846808834
:100ED00046F60401884205D05948808845F2103111
:100EE000884206D14FF4A070554908804FF4F07045
:100EF0004880A1E05248808845F21051884210D1C4
:100F00004FF430504E4908814FF4285048814FF437
:100F10002C5088814FF4F07008804FF4487048805E
:100F20008AE04748808841F6631188420DD12C2021
:100F3000434908812B2048812A2088814FF4F07092
:100F400008804FF44870488076E022203C490881B0
:100F500020204881212088816EE001203849887155
:100F60004FF4A0700880F02048800846808849F23D
:100F70004131884205D03248808845F2103188429C
:100F800007D12C202E4908812A2048812B208881D6
:100F90003FE02B48808846F60401884207D12C2088
:100FA000274908812B2048812A20888131E0244864
:100FB000808845F21051884210D14FF430502049BA
:100FC00008814FF4285048814FF42C5088814FF409
:100FD000487008804FF4F07048801AE01848808804
:100FE00041F6631188420DD12C20154908812A2031
:100FF00048812B2088814FF4487008804FF4F070AE
:10100000488006E022200E490881212048812020C6
:1010100088810B48808846F60401884205D008483C
:10102000808845F21031884206D14FF4F0700449AF
:1010300008804FF4A0704880002003F0F5FC10BD3C
:10104000EC24002030B503460C4615465A488088EB
:1010500049F24131884205D05748808845F2103125
:10106000884214D15449488904F054F8181204F005
:101070004BF8D8B204F048F84F49888904F04AF890
:10108000201204F041F8E0B204F03EF88CE04A4847
:10109000808845F21051884220D14749488904F0A0
:1010A00039F8181204F030F843494989491C88B2CC
:1010B00004F030F8D8B204F027F83F49888904F0EA
:1010C00029F8201204F020F83B498989491C88B28C
:1010D00004F020F8E0B204F017F865E036488088A4
:1010E00041F66311884228D13348807920B93248CB
:1010F0000088401EC01A83B22F49488904F00AF8BC
:10110000181204F001F8D8B203F0FEFF181203F031
:10111000FBFFD8B203F0F8FF2749888903F0FAFFF4
:10112000201203F0F1FFE0B203F0EEFF201203F013
:10113000EBFFE0B203F0E8FF36E01F48808846F698
:10114000040188421DD11C488079012804D11A4825
:101150000088401EC01A83B21749488903F0DAFF9D
:10116000181203F0D1FFD8B203F0CEFF12498889DC
:1011700003F0D0FF201203F0C7FFE0B203F0C4FF7A
:1011800012E00D488079012804D10B480088401EE8
:10119000C01A83B208494889194603F0CBFF0649B3
:1011A0008889214603F0C6FF034800890349088067
:1011B000881C058030BD0000EC240020FE07006C78
:1011C00010B5FD48406940F48070FB49486108460D
:1011D000806940F0080088610846806940F020007E
:1011E00088610846806940F040008861084680694F
:1011F00040F480708861F148006820F00F00EF49EA
:1012000008600846006840F003000860EC48006889
:10121000EC490840EA49086008460068EA49084382
:10122000E7490860081F006800F0FF20091F0860F8
:101230000846006840F0BB100860E44800680020E1
:10124000E24908600846006840F0BB300860081FAB
:10125000006820F07040091F08600846006840F0F0
:1012600030400860DA48406820F47020D84948606F
:101270000846406840F4302048600846006820F086
:101280000F0008600846006840F00B00086000206E
:101290004FF020418861C861CE4908604FF020407E
:1012A000806940F480504FF0204188610846806991
:1012B00040F4804088610846806940F010008861F1
:1012C0000846C069C8610846C06940F00100C861AD
:1012D0000846C06940F47060C861BE480068C1F843
:1012E0001C01BC480068C1F81C010846D0F81C016C
:1012F00040F44070C1F81C010846806940F00100CC
:101300008861322004F0E6FD002003F057FBB2496B
:10131000888008468088FF280ADB084680884FF6C8
:10132000FF71884204D0AC488088B0F5134F7CD15F
:10133000D32003F0EFFE03F037FBA749888003F0CA
:1013400033FBA549888003F02FFBA349888008461A
:1013500080884FF6FF7101EA00209F49888003F0E2
:1013600023FB9D49898808439B49888008468088DB
:1013700049F24131884258D0BF2003F0CBFE03F040
:1013800013FB9549888003F00FFB9349888003F095
:101390000BFB9149888003F007FB8F498880084642
:1013A00080884FF6FF7101EA00208B49888003F0A6
:1013B000FBFA8949898808438749888008468088DC
:1013C00046F6040188427AD0D42003F0A3FE03F04D
:1013D000EBFA8149888003F0E7FA7F49888003F0BF
:1013E000E3FA7D498880084680884FF6FF7101EA5C
:1013F00000207949888003F0D7FA77498988084323
:10140000754988800846808845F21031884256D058
:101410004FF45A4003F07EFE03F0C6FA6E4988800E
:101420004FF45B4003F076FE00E048E003F0BCFAC6
:1014300069498880084680884FF6FF7101EA0020DC
:10144000654988804FF45C4003F064FE03F0ACFA19
:101450006149898808436049888008468088B0F5DA
:10146000004F02D145F2105088805B48808845F2D9
:101470001051884223D0A12003F04CFE03F094FACF
:101480005549888003F090FA53498880084680883F
:101490004FF6FF7101EA00204F49888003F084FA7B
:1014A0004D49898808434C4988800846808845F220
:1014B0006171884203D141F66310474988804648EC
:1014C000818846A0FEF7CEFE4348808849F241312C
:1014D000884270D1CF2003F01DFE002003F014FEDF
:1014E000C12003F011FE302003F00EFEED2003F0CA
:1014F00011FE642003F008FE032003F005FE122015
:1015000003F002FE812003F0FFFDE82003F002FE5D
:10151000852003F0F9FD102003F0F6FD7A2003F09A
:10152000F3FDCB2003F0F6FD392003F0EDFD2C2078
:1015300003F0EAFD002003F0E7FD342003F0E4FDB2
:10154000022003F0E1FDF72003F0E4FD202003F08A
:10155000DBFDEA2003F0DEFD002003F0D5FD0020D6
:1015600003F0D2FDC02003F0D5FD1B2003F0CCFD1D
:10157000C12003F0CFFD012003F0C6FDC52003F01C
:10158000C9FD302003F0C0FD302003F0BDFDC720B1
:1015900003F0C0FDB72003F0B7FD362003F0BAFD1D
:1015A000482003F0B1FD3A2003F0B4FD552003F0CC
:1015B000ABFDB1201AE0BFE000100240000C01407A
:1015C0000414014000F0FF00BB0B00BB04180140F5
:1015D000002001401C0100A0EC240020204C4344CA
:1015E0002049443A25780D0A0000000003F092FDDE
:1015F000002003F089FD1A2003F086FDB62003F0D9
:1016000089FD0A2003F080FDA22003F07DFDF22079
:1016100003F080FD002003F077FD262003F07AFD23
:10162000012003F071FDE02003F074FD0F2003F0B2
:101630006BFD2A2003F068FD282003F065FD0820DB
:1016400003F062FD0E2003F05FFD082003F05CFD57
:10165000542003F059FDA92003F056FD432003F068
:1016600053FD0A2003F050FD0F2003F04DFD002034
:1016700003F04AFD002003F047FD002003F044FD85
:10168000002003F041FDE12003F044FD002003F0C1
:101690003BFD152003F038FD172003F035FD072032
:1016A00003F032FD112003F02FFD062003F02CFD86
:1016B0002B2003F029FD562003F026FD3C2003F0EB
:1016C00023FD052003F020FD102003F01DFD0F2059
:1016D00003F01AFD3F2003F017FD3F2003F014FD37
:1016E0000F2003F011FD2B2003F014FD002003F068
:1016F0000BFD002003F008FD012003F005FD3F2055
:1017000003F002FD2A2003F005FD002003F0FCFC9D
:10171000002003F0F9FC002003F0F6FCEF2003F0BA
:10172000F3FC112003F0F6FC782004F0D3FB292011
:1017300003F0F0FC03F01DB9FE48808846F6040172
:1017400088427CD1112003F0E5FC142004F0C2FB98
:10175000D02003F0DFFC072003F0D6FC422003F08A
:10176000D3FC1D2003F0D0FCD12003F0D3FC0020DB
:1017700003F0CAFC1A2003F0C7FC092003F0C4FCE4
:10178000D22003F0C7FC012003F0BEFC222003F0AE
:10179000BBFCC02003F0BEFC102003F0B5FC3B20D6
:1017A00003F0B2FC002003F0AFFC022003F0ACFC1D
:1017B000112003F0A9FCC52003F0ACFC032003F0CA
:1017C000A3FCC82003F0A6FC002003F09DFC25200C
:1017D00003F09AFC212003F097FC052003F094FC11
:1017E000002003F091FC0A2003F08EFC652003F03A
:1017F0008BFC252003F088FC772003F085FC50202B
:1018000003F082FC0F2003F07FFC002003F07CFC3F
:10181000F82003F07FFC012003F076FCFE2003F0AB
:1018200079FC002003F070FC022003F06DFC202006
:1018300003F070FC362003F06DFC082000E02CE083
:1018400003F062FC3A2003F065FC552003F05CFCD9
:101850002B2003F05FFC002003F056FC002003F077
:1018600053FC012003F050FC3F2003F04DFC2A20E4
:1018700003F050FC002003F047FC002003F044FC80
:10188000012003F041FCDF2003F03EFC782004F04F
:1018900021FB292003F03EFC4CE7A648808845F256
:1018A0001031884240F07C87ED2003F033FC0120AA
:1018B00003F02AFCFE2003F027FCEE2003F02AFCB4
:1018C000DE2003F021FC212003F01EFCF12003F0B8
:1018D00021FC012003F018FCDF2003F01BFC10208A
:1018E00003F012FCC42003F015FC8F2003F00CFC65
:1018F000C62003F00FFC002003F006FCE22003F0FA
:1019000003FCE22003F000FCE22003F0FDFBBF201B
:1019100003F000FCAA2003F0F7FBB02003F0FAFB71
:101920000D2003F0F1FB002003F0EEFB0D2003F08F
:10193000EBFB002003F0E8FB112003F0E5FB0020A7
:1019400003F0E2FB192003F0DFFB002003F0DCFBD7
:10195000212003F0D9FB002003F0D6FB2D2003F05B
:10196000D3FB002003F0D0FB3D2003F0CDFB002093
:1019700003F0CAFB5D2003F0C7FB002003F0C4FBAB
:101980005D2003F0C1FB002003F0BEFBB12003F09B
:10199000C1FB802003F0B8FB002003F0B5FB8B20D7
:1019A00003F0B2FB002003F0AFFB962003F0ACFB8A
:1019B000002003F0A9FBB22003F0ACFB002003F0F1
:1019C000A3FB002003F0A0FB022003F09DFB0020FE
:1019D00003F09AFB032003F097FB002003F094FB35
:1019E000B32003F097FB002003F08EFB002003F0F0
:1019F0008BFB002003F088FB002003F085FB002018
:101A000003F082FB002003F07FFB002003F07CFB4F
:101A1000002003F079FB002003F076FB002003F0A8
:101A200073FB002003F070FB002003F06DFB00202F
:101A300003F06AFB002003F067FB002003F064FB67
:101A4000002003F061FB002003F05EFB002003F0A8
:101A50005BFB002003F058FB002003F055FB002047
:101A600003F052FB002003F04FFB002003F04CFB7F
:101A7000002003F049FBB42003F04CFB8B2003F063
:101A800043FB002003F040FB962003F03DFB0020C9
:101A900003F03AFBA12003F037FB002003F034FBF6
:101AA000B52003F037FB022003F02EFB002003F0EB
:101AB0002BFB032003F028FB002003F025FB042070
:101AC00003F022FB002003F01FFBB62003F022FBF3
:101AD000002003F019FB002003F016FBB72003F0F1
:101AE00019FB002003F010FB002003F00DFB3F204A
:101AF00003F00AFB002003F007FB5E2003F004FB69
:101B0000002003F001FB642003F0FEFA002003F044
:101B1000FBFA8C2003F0F8FA002003F0F5FAAC2071
:101B200003F0F2FA002003F0EFFADC2003F0ECFA05
:101B3000002001E0EC24002003F0E6FA702003F01E
:101B4000E3FA002003F0E0FA902003F0DDFA002031
:101B500003F0DAFAEB2003F0D7FA002003F0D4FA0E
:101B6000DC2003F0D1FA002003F0CEFAB82003F015
:101B7000D1FA002003F0C8FA002003F0C5FA0020D3
:101B800003F0C2FA002003F0BFFA002003F0BCFA11
:101B9000002003F0B9FA002003F0B6FA002003F0A9
:101BA000B3FABA2003F0B6FA242003F0ADFA00200D
:101BB00003F0AAFA002003F0A7FA002003F0A4FA29
:101BC000C12003F0A7FA202003F09EFA002003F0C2
:101BD0009BFA542003F098FA002003F095FAFF20B6
:101BE00003F092FA002003F08FFAC22003F092FA79
:101BF0000A2003F089FA002003F086FA042003F09B
:101C000083FA002003F080FAC32003F083FA3C201B
:101C100003F07AFA002003F077FA3A2003F074FA1E
:101C2000002003F071FA392003F06EFA002003F06F
:101C30006BFA372003F068FA002003F065FA3C20C5
:101C400003F062FA002003F05FFA362003F05CFA3A
:101C5000002003F059FA322003F056FA002003F076
:101C600053FA2F2003F050FA002003F04DFA2C20F5
:101C700003F04AFA002003F047FA292003F044FA5F
:101C8000002003F041FA262003F03EFA002003F082
:101C90003BFA242003F038FA002003F035FA242020
:101CA00003F032FA002003F02FFA232003F02CFA7D
:101CB000002003F029FA3C2003F026FA002003F06C
:101CC00023FA362003F020FA002003F01DFA322018
:101CD00003F01AFA002003F017FA2F2003F014FA89
:101CE000002003F011FA2C2003F00EFA002003F07C
:101CF0000BFA292003F008FA002003F005FA262049
:101D000003F002FA002003F0FFF9242003F0FCF9AD
:101D1000002003F0F9F9242003F0F6F9002003F085
:101D2000F3F9232003F0F0F9002003F0EDF9C420CB
:101D300003F0F0F9622003F0E7F9002003F0E4F982
:101D4000052003F0E1F9002003F0DEF9842003F020
:101D5000DBF9002003F0D8F9F02003F0D5F90020DA
:101D600003F0D2F9182003F0CFF9002003F0CCF9EA
:101D7000A42003F0C9F9002003F0C6F9182003F0ED
:101D8000C3F9002003F0C0F9502003F0BDF9002092
:101D900003F0BAF90C2003F0B7F9002003F0B4F90E
:101DA000172003F0B1F9002003F0AEF9952003F0FD
:101DB000ABF9002003F0A8F9F32003F0A5F9002007
:101DC00003F0A2F9E62003F09FF9002003F09CF94C
:101DD000C52003F09FF9322003F096F9002003F0AC
:101DE00093F9442003F090F9002003F08DF9652069
:101DF00003F08AF9002003F087F9762003F084F9D4
:101E0000002003F081F9882003F07EF9002003F020
:101E10007BF9C62003F07EF9202003F075F900203D
:101E200003F072F9172003F06FF9002003F06CF94A
:101E3000012003F069F9002003F066F9C72003F0E0
:101E400069F9002003F060F9002003F05DF900203B
:101E500003F05AF9002003F057F9C82003F05AF9AB
:101E6000002003F051F9002003F04EF9002003F0A8
:101E70004BF9002003F048F9C92003F04BF900208A
:101E800003F042F9002003F03FF9002003F03CF991
:101E9000002003F039F9002003F036F9002003F0A8
:101EA00033F9002003F030F9002003F02DF9002071
:101EB00003F02AF9002003F027F9002003F024F9A9
:101EC000002003F021F9002003F01EF9002003F0A8
:101ED0001BF9002003F018F9002003F015F9E020A9
:101EE00003F018F9162003F00FF9002003F00CF9A5
:101EF0001C2003F009F9002003F006F9212003F06B
:101F000003F9002003F000F9362003F0FDF800206B
:101F100003F0FAF8462003F0F7F8002003F0F4F895
:101F2000522003F0F1F8002003F0EEF8642003F0F3
:101F3000EBF8002003F0E8F87A2003F0E5F8002041
:101F400003F0E2F88B2003F0DFF8002003F0DCF868
:101F5000992003F0D9F8002003F0D6F8A82003F068
:101F6000D3F8002003F0D0F8B92003F0CDF800201A
:101F700003F0CAF8C42003F0C7F8002003F0C4F847
:101F8000CA2003F0C1F8002003F0BEF8D22003F00D
:101F9000BBF8002003F0B8F8D92003F0B5F8002012
:101FA00003F0B2F8E02003F0AFF8002003F0ACF843
:101FB000F32003F0A9F8002003F0A6F8E12003F0D5
:101FC000A9F8162003F0A0F8002003F09DF81C20CB
:101FD00003F09AF8002003F097F8222003F094F819
:101FE000002003F091F8362003F08EF8002003F073
:101FF0008BF8452003F088F8002003F085F8522084
:1020000003F082F8002003F07FF8642003F07CF8EE
:10201000002003F079F87A2003F076F8002003F02E
:1020200073F88B2003F070F8002003F06DF899200E
:1020300003F06AF8002003F067F8A82003F064F8C2
:10204000002003F061F8B92003F05EF8002003F0EF
:102050005BF8C42003F058F8002003F055F8CA20BC
:1020600003F052F8002003F04FF8D22003F04CF8B0
:10207000002003F049F8D82003F046F8002003F0D0
:1020800043F8E02003F040F8002003F03DF8F3208F
:1020900003F03AF8002003F037F8E22003F03AF8B2
:1020A000052003F031F8002003F02EF80B2003F098
:1020B0002BF8002003F028F81B2003F025F800205F
:1020C00003F022F8342003F01FF8002003F01CF87E
:1020D000442003F019F8002003F016F84F2003F015
:1020E00013F8002003F010F8612003F00DF8002031
:1020F00003F00AF8792003F007F8002003F004F851
:10210000882003F001F8002002F0FEFF972002F083
:10211000FBFF002002F0F8FFA62002F0F5FF0020F0
:1021200002F0F2FFB72002F0EFFF002002F0ECFF18
:10213000C22002F0E9FF002002F0E6FFC72002F013
:10214000E3FF002002F0E0FFD12002F0DDFF0020DD
:1021500002F0DAFFD62002F0D7FF002002F0D4FF11
:10216000DD2002F0D1FF002002F0CEFFF32002F0CC
:10217000CBFF002002F0C8FFE32002F0CBFF0520D8
:1021800002F0C2FF002002F0BFFF0A2002F0BCFFF5
:10219000002002F0B9FF1C2002F0B6FF002002F080
:1021A000B3FF332002F0B0FF002002F0ADFF442067
:1021B00002F0AAFF002002F0A7FF502002F0A4FFC7
:1021C000002002F0A1FF622002F09EFF002002F03A
:1021D0009BFF782002F098FF002002F095FF8820F6
:1021E00002F092FF002002F08FFF972002F08CFF98
:1021F000002002F089FFA62002F086FF002002F0F6
:1022000083FFB72002F080FF002002F07DFFC22094
:1022100002F07AFF002002F077FFC72002F074FF7F
:10222000002002F071FFD12002F06EFF002002F0CA
:102230006BFFD52002F068FF002002F065FFDD2073
:1022400002F062FF002002F05FFFF32002F05CFF6B
:10225000002002F059FFE42002F05CFF012002F0B0
:1022600053FF002002F050FF012002F04DFF00203C
:1022700002F04AFF022002F047FF002002F044FF74
:102280002A2002F041FF002002F03EFF3C2002F035
:102290003BFF002002F038FF4B2002F035FF00200A
:1022A00002F032FF5D2002F02FFF002002F02CFF31
:1022B000742002F029FF002002F026FF842002F0A3
:1022C00023FF002002F020FF932002F01DFF0020DA
:1022D00002F01AFFA22002F017FF002002F014FF04
:1022E000B32002F011FF002002F00EFFBE2002F02A
:1022F0000BFF002002F008FFC42002F005FF0020C1
:1023000002F002FFCD2002F0FFFE002002F0FCFEF2
:10231000D32002F0F9FE002002F0F6FEDD2002F0EC
:10232000F3FE002002F0F0FEF32002F0EDFE0020AC
:1023300002F0EAFEE52002F0EDFE002002F0E4FEED
:10234000002002F0E1FE002002F0DEFE002002F09C
:10235000DBFE022002F0D8FE002002F0D5FE29208C
:1023600002F0D2FE002002F0CFFE3C2002F0CCFEB4
:10237000002002F0C9FE4B2002F0C6FE002002F051
:10238000C3FE5D2002F0C0FE002002F0BDFE7420FE
:1023900002F0BAFE002002F0B7FE842002F0B4FE84
:1023A000002002F0B1FE932002F0AEFE002002F009
:1023B000ABFEA22002F0A8FE002002F0A5FEB32092
:1023C00002F0A2FE002002F09FFEBE2002F09CFE62
:1023D000002002F099FEC42002F096FE002002F0D8
:1023E00093FECD2002F090FE002002F08DFED3205F
:1023F00002F08AFE002002F087FEDC2002F084FE5C
:10240000002002F081FEF32002F07EFE002002F0A8
:102410007BFEE62002F07EFE112002F075FE002019
:1024200002F072FE342002F06FFE002002F06CFE1B
:10243000562002F069FE002002F066FE762002F0CF
:1024400063FE002002F060FE772002F05DFE0020B7
:1024500002F05AFE662002F057FE002002F054FE01
:10246000882002F051FE002002F04EFE992002F07A
:102470004BFE002002F048FEBB2002F045FE00208B
:1024800002F042FE992002F03FFE002002F03CFEE6
:10249000662002F039FE002002F036FE552002F0E0
:1024A00033FE002002F030FE552002F02DFE002009
:1024B00002F02AFE452002F027FE002002F024FE52
:1024C000432002F021FE002002F01EFE442002F014
:1024D0001BFE002002F018FEE72002F01BFE322057
:1024E00002F012FE002002F00FFE552002F00CFE5A
:1024F000002002F009FE762002F006FE002002F025
:1025000003FE662002F000FE002002F0FDFD6720C1
:1025100002F0FAFD002002F0F7FD672002F0F4FD62
:10252000002002F0F1FD872002F0EEFD002002F015
:10253000EBFD992002F0E8FD002002F0E5FDBB2054
:1025400002F0E2FD002002F0DFFD992002F0DCFD48
:10255000002002F0D9FD772002F0D6FD002002F025
:10256000D3FD442002F0D0FD002002F0CDFD562026
:1025700002F0CAFD002002F0C7FD232002F0C4FDD6
:10258000002002F0C1FD332002F0BEFD002002F069
:10259000BBFD452002F0B8FD002002F0B5FDE820AB
:1025A00002F0B8FD002002F0AFFD002002F0ACFD0B
:1025B000992002F0A9FD002002F0A6FD872002F07C
:1025C000A3FD002002F0A0FD882002F09DFD002068
:1025D00002F09AFD772002F097FD002002F094FDB2
:1025E000662002F091FD002002F08EFD882002F0AE
:1025F0008BFD002002F088FDAA2002F085FD00205E
:1026000002F082FDBB2002F07FFD002002F07CFD85
:10261000992002F079FD002002F076FD662002F09C
:1026200073FD002002F070FD552002F06DFD0020CA
:1026300002F06AFD552002F067FD002002F064FD03
:10264000442002F061FD002002F05EFD442002F013
:102650005BFD002002F058FD552002F055FD0020E2
:1026600002F052FDE92002F055FDAA2002F04CFDD7
:10267000002002F049FD002002F046FD002002F09B
:1026800043FD002002F046FDAA2002F03DFDCF20D0
:1026900002F040FD002002F037FD002002F034FD82
:1026A000002002F031FD002002F02EFD002002F09B
:1026B0002BFD002002F028FD002002F025FD002067
:1026C00002F022FD002002F01FFD002002F01CFDA0
:1026D000002002F019FD002002F016FD002002F09B
:1026E00013FD002002F010FD002002F00DFD00207F
:1026F00002F00AFD002002F007FDF02002F00AFDC2
:10270000002002F001FD502002F0FEFC002002F04B
:10271000FBFC002002F0F8FC002002F0F5FCF320A6
:1027200002F0F8FC002002F0EFFCF92002F0F2FCCD
:10273000062002F0E9FC102002F0E6FC292002F05D
:10274000E3FC002002F0E0FC3A2002F0E3FC55201C
:1027500002F0DAFC112002F0DDFC642003F0BAFB89
:10276000292002F0D7FC352002F0D4FC002002F032
:10277000CBFC512002F0CEFCFF2002F0C5FC532020
:1027800002F0C8FC2C2002F0BFFC552002F0C2FC75
:10279000822002F0B9FC2C2002F0BCFC02F0E9B867
:1027A000FE48808845F2105188427DD155214FF472
:1027B000704002F0BFFCAA214FF2010002F0BAFC07
:1027C00052214FF2020002F0B5FC08214FF2030043
:1027D00002F0B0FC01214FF2040002F0ABFC0D212D
:1027E0004FF4304002F0A6FC0D214BF2010002F044
:1027F000A1FC0D214BF2020002F09CFC34214FF4AD
:10280000364002F097FC34214BF2016002F092FC5A
:1028100034214BF2026002F08DFC0D214FF4314067
:1028200002F088FC0D214BF2011002F083FC0D2117
:102830004BF2021002F07EFC34214FF4374002F0DC
:1028400079FC34214BF2017002F074FC34214BF21C
:10285000027002F06FFC00214FF4324002F06AFC7B
:1028600000214BF2012002F065FC00214BF2022016
:1028700002F060FC24214FF4384002F05BFC24217C
:102880004BF6010002F056FC24214BF6020002F048
:1028900051FC01214FF43F4002F04CFC0F214FF45A
:1028A000334002F047FC00E0FDE30F214BF2013022
:1028B00002F040FC0F214BF2023002F03BFC3421CD
:1028C0004FF4394002F036FC34214BF6011002F08F
:1028D00031FC34214BF6021002F02CFC08214FF49D
:1028E000354002F027FC08214BF2015002F022FC97
:1028F00008214BF2025002F01DFC03214FF442402C
:1029000002F018FC24214FF43A4002F013FC242179
:102910004BF6012002F00EFC24214BF6022002F0BF
:1029200009FC00214FF43C4002F004FC78214BF6F6
:10293000014002F0FFFB00214BF6024002F0FAFBDF
:1029400000214FF43D4002F0F5FB78214BF6015099
:1029500002F0F0FB00214BF6025002F0EBFB0021ED
:102960004FF43E4002F0E6FB64214BF6016002F0BA
:10297000E1FB00214FF4514002F0DCFB33214DF22A
:10298000011002F0D7FB00214DF2021002F0D2FB41
:1029900034214DF2031002F0CDFB00214DF2041062
:1029A00002F0C8FB3A214DF2051002F0C3FB0021F2
:1029B0004DF2061002F0BEFB4A214DF2071002F064
:1029C000B9FB00214DF2081002F0B4FB5C214DF27E
:1029D000091002F0AFFB00214DF20A1002F0AAFB31
:1029E00081214DF20B1002F0A5FB00214DF20C10DD
:1029F00002F0A0FBA6214DF20D1002F09BFB00217E
:102A00004DF20E1002F096FBE5214DF20F1002F090
:102A100091FB01214DF2101002F08CFB13214DF2BD
:102A2000111002F087FB01214DF2121002F082FB1F
:102A300054214DF2131002F07DFB01214DF21410D0
:102A400002F078FB82214DF2151002F073FB012198
:102A50004DF2161002F06EFBCA214DF2171002F073
:102A600069FB02214DF2181002F064FB00214DF2C7
:102A7000191002F05FFB02214DF21A1002F05AFB0E
:102A800001214DF21B1002F055FB02214DF21C10EA
:102A900002F050FB34214DF21D1002F04BFB0221DD
:102AA0004DF21E1002F046FB67214DF21F1002F09E
:102AB00041FB02214DF2201002F03CFB84214DF23B
:102AC000211002F037FB02214DF2221002F032FBFE
:102AD000A4214DF2231002F02DFB02214DF224100F
:102AE00002F028FBB7214DF2251002F023FB022152
:102AF0004DF2261002F01EFBCF214DF2271002F0FE
:102B000019FB02214DF2281002F014FBDE214DF2D8
:102B1000291002F00FFB02214DF22A1002F00AFBED
:102B2000F2214DF22B1002F005FB02214DF22C1088
:102B300002F000FBFE214DF22D1002F0FBFA032102
:102B40004DF22E1002F0F6FA10214DF22F1002F085
:102B5000F1FA03214DF2301002F0ECFA33214DF27C
:102B6000311002F0E7FA03214DF2321002F0E2FADE
:102B70006D214DF2331002F0DDFA00214FF4524086
:102B800002F0D8FA33214DF2012002F0D3FA0021ED
:102B90004DF2022002F0CEFA342101E0EC240020B4
:102BA0004DF2032002F0C6FA00214DF2042002F09B
:102BB000C1FA3A214DF2052002F0BCFA00214DF293
:102BC000062002F0B7FA4A214DF2072002F0B2FACD
:102BD00000214DF2082002F0ADFA5C214DF20920EF
:102BE00002F0A8FA00214DF20A2002F0A3FA812196
:102BF0004DF20B2002F09EFA00214DF20C2002F063
:102C000099FAA6214DF20D2002F094FA00214DF21E
:102C10000E2002F08FFAE5214DF20F2002F08AFA21
:102C200001214DF2102002F085FA13214DF21120FE
:102C300002F080FA01214DF2122002F07BFA5421B9
:102C40004DF2132002F076FA01214DF2142002F029
:102C500071FA82214DF2152002F06CFA01214DF239
:102C6000162002F067FACA214DF2172002F062FA2C
:102C700002214DF2182002F05DFA00214DF21920D8
:102C800002F058FA02214DF21A2002F053FA012103
:102C90004DF21B2002F04EFA02214DF21C2002F0F0
:102CA00049FA34214DF21D2002F044FA02214DF27E
:102CB0001E2002F03FFA67214DF21F2002F03AFA7F
:102CC00002214DF2202002F035FA84214DF221201C
:102CD00002F030FA02214DF2222002F02BFAA42158
:102CE0004DF2232002F026FA02214DF2242002F0B8
:102CF00021FAB7214DF2252002F01CFA02214DF2F3
:102D0000262002F017FACF214DF2272002F012FA06
:102D100002214DF2282002F00DFADE214DF2292089
:102D200002F008FA02214DF22A2002F003FAF22101
:102D30004DF22B2002F0FEF902214DF22C2002F080
:102D4000F9F9FE214DF22D2002F0F4F903214DF2A4
:102D50002E2002F0EFF910214DF22F2002F0EAF9B7
:102D600003214DF2302002F0E5F933214DF23120FC
:102D700002F0E0F903214DF2322002F0DBF96D217F
:102D80004DF2332002F0D6F900214FF4534002F007
:102D9000D1F933214DF2013002F0CCF900214DF28E
:102DA000023002F0C7F934214DF2033002F0C2F9CB
:102DB00000214DF2043002F0BDF93A214DF2053008
:102DC00002F0B8F900214DF2063002F0B3F94A21C1
:102DD0004DF2073002F0AEF900214DF2083002F05A
:102DE000A9F95C214DF2093002F0A4F900214DF25D
:102DF0000A3002F09FF981214DF20B3002F09AF96E
:102E000000214DF20C3002F095F9A6214DF20D3063
:102E100002F090F900214DF20E3002F08BF9E5211D
:102E20004DF20F3002F086F901214DF2103002F020
:102E300081F913214DF2113002F07CF901214DF29C
:102E4000123002F077F954214DF2133002F072F98A
:102E500001214DF2143002F06DF982214DF215304E
:102E600002F068F901214DF2163002F063F9CA212F
:102E70004DF2173002F05EF902214DF2183002F0E7
:102E800059F900214DF2193002F054F902214DF2A6
:102E90001A3002F04FF901214DF21B3002F04AF9CD
:102EA00002214DF21C3002F045F934214DF21D3063
:102EB00002F040F902214DF21E3002F03BF9672189
:102EC0004DF21F3002F036F902214DF2203002F0AF
:102ED00031F984214DF2213002F02CF902214DF21A
:102EE000223002F027F9A4214DF2233002F022F91A
:102EF00002214DF2243002F01DF9B7214DF22530A8
:102F000002F018F902214DF2263002F013F9CF2118
:102F10004DF2273002F00EF902214DF2283002F076
:102F200009F9DE214DF2293002F004F902214DF2B7
:102F30002A3002F0FFF8F2214DF22B3002F0FAF8BD
:102F400002214DF22C3002F0F5F8FE214DF22D3029
:102F500002F0F0F803214DF22E3002F0EBF81021D0
:102F60004DF22F3002F0E6F803214DF2303002F03E
:102F7000E1F833214DF2313002F0DCF803214DF25B
:102F8000323002F0D7F86D214DF2333002F0D2F832
:102F900000214FF4544002F0CDF833214DF20140AE
:102FA00002F0C8F800214DF2024002F0C3F83421CB
:102FB0004DF2034002F0BEF800214DF2044002F051
:102FC000B9F83A214DF2054002F0B4F800214DF273
:102FD000064002F0AFF84A214DF2074002F0AAF88D
:102FE00000214DF2084002F0A5F85C214DF20940A5
:102FF00002F0A0F800214DF20A4002F09BF8812176
:103000004DF20B4002F096F800214DF20C4002F018
:1030100091F8A6214DF20D4002F08CF800214DF2FE
:103020000E4002F087F8E5214DF20F4002F082F8E1
:1030300001214DF2104002F07DF813214DF21140B4
:1030400002F078F801214DF2124002F073F8542199
:103050004DF2134002F06EF801214DF2144002F0DF
:1030600069F882214DF2154002F064F801214DF219
:10307000164002F05FF8CA214DF2174002F05AF8EC
:1030800002214DF2184002F055F800214DF219408E
:1030900002F050F802214DF21A4002F04BF80121E3
:1030A0004DF21B4000E006E302F044F802214DF22D
:1030B0001C4002F03FF834214DF21D4002F03AF876
:1030C00002214DF21E4002F035F867214DF21F40FB
:1030D00002F030F802214DF2204002F02BF884215A
:1030E0004DF2214002F026F802214DF2224002F07A
:1030F00021F8A4214DF2234002F01CF802214DF2E8
:10310000244002F017F8B7214DF2254002F012F8E2
:1031100002214DF2264002F00DF8CF214DF227405A
:1031200002F008F802214DF2284002F003F8DE21F7
:103130004DF2294001F0FEFF02214DF22A4001F03C
:10314000F9FFF2214DF22B4001F0F4FF02214DF284
:103150002C4001F0EFFFFE214DF22D4001F0EAFF7F
:1031600003214DF22E4001F0E5FF10214DF22F40DA
:1031700001F0E0FF03214DF2304001F0DBFF33218D
:103180004DF2314001F0D6FF03214DF2324001F003
:10319000D1FF6D214DF2334001F0CCFF00214FF4FF
:1031A000554001F0C7FF33214DF2015001F0C2FF3D
:1031B00000214DF2025001F0BDFF34214DF20350C9
:1031C00001F0B8FF00214DF2045001F0B3FF3A21A5
:1031D0004DF2055001F0AEFF00214DF2065001F016
:1031E000A9FF4A214DF2075001F0A4FF00214DF242
:1031F000085001F09FFF5C214DF2095001F09AFF49
:1032000000214DF20A5001F095FF81214DF20B5043
:1032100001F090FF00214DF20C5001F08BFFA62130
:103220004DF20D5001F086FF00214DF20E5001F0DD
:1032300081FFE5214DF20F5001F07CFF01214DF29D
:10324000105001F077FF13214DF2115001F072FF81
:1032500001214DF2125001F06DFF54214DF2135037
:1032600001F068FF01214DF2145001F063FF82214B
:103270004DF2155001F05EFF01214DF2165001F0A4
:1032800059FFCA214DF2175001F054FF02214DF2AF
:10329000185001F04FFF00214DF2195001F04AFF84
:1032A00002214DF21A5001F045FF01214DF21B5051
:1032B00001F040FF02214DF21C5001F03BFF342190
:1032C0004DF21D5001F036FF02214DF21E5001F06B
:1032D00031FF67214DF21F5001F02CFF02214DF20A
:1032E000205001F027FF84214DF2215001F022FFF0
:1032F00002214DF2225001F01DFFA4214DF2235076
:1033000001F018FF02214DF2245001F013FFB72104
:103310004DF2255001F00EFF02214DF2265001F032
:1033200009FFCF214DF2275001F004FF02214DF299
:10333000285001F0FFFEDE214DF2295001F0FAFE87
:1033400002214DF22A5001F0F5FEF2214DF22B50F0
:1033500001F0F0FE02214DF22C5001F0EBFEFE21B7
:103360004DF22D5001F0E6FE03214DF22E5001F0FA
:10337000E1FE10214DF22F5001F0DCFE03214DF251
:10338000305001F0D7FE33214DF2315001F0D2FE22
:1033900003214DF2325001F0CDFE6D214DF233503C
:1033A00001F0C8FE00214FF4564001F0C3FE332166
:1033B0004DF2016001F0BEFE00214DF2026001F00D
:1033C000B9FE34214DF2036001F0B4FE00214DF24C
:1033D000046001F0AFFE3A214DF2056001F0AAFE53
:1033E00000214DF2066001F0A5FE4A214DF2076072
:1033F00001F0A0FE00214DF2086001F09BFE5C216F
:103400004DF2096001F096FE00214DF20A6001F0D4
:1034100091FE81214DF20B6001F08CFE00214DF2F6
:103420000C6001F087FEA6214DF20D6001F082FED6
:1034300000214DF20E6001F07DFEE5214DF20F609E
:1034400001F078FE01214DF2106001F073FE1321AE
:103450004DF2116001F06EFE01214DF2126001F09B
:1034600069FE54214DF2136001F064FE01214DF21A
:10347000146001F05FFE82214DF2156001F05AFEEA
:1034800001214DF2166001F055FECA214DF2176080
:1034900001F050FE02214DF2186001F04BFE0021B8
:1034A0004DF2196001F046FE02214DF21A6001F062
:1034B00041FE01214DF21B6001F03CFE02214DF264
:1034C0001C6001F037FE34214DF21D6001F032FE28
:1034D00002214DF21E6001F02DFE67214DF21F60AA
:1034E00001F028FE02214DF2206001F023FE84212C
:1034F0004DF2216001F01EFE02214DF2226001F02A
:1035000019FEA4214DF2236001F014FE02214DF2B8
:10351000246001F00FFEB7214DF2256001F00AFE94
:1035200002214DF2266001F005FECF214DF2276009
:1035300001F000FE02214DF2286001F0FBFDDE21CA
:103540004DF2296001F0F6FD02214DF22A6001F0F2
:10355000F1FDF2214DF22B6001F0ECFD02214DF264
:103560002C6001F0E7FDFE214DF22D6001F0E2FD3F
:1035700003214DF22E6001F0DDFD10214DF22F6090
:1035800001F0D8FD03214DF2306001F0D3FD33216D
:103590004DF2316001F0CEFD03214DF2326001F0B9
:1035A000C9FD6D214DF2336001F0C4FD55214FF48A
:1035B000704001F0BFFDAA214FF2010001F0BAFDF9
:1035C00052214FF2020001F0B5FD08214FF2030035
:1035D00001F0B0FD00214FF2040001F0ABFDCC2161
:1035E0004FF4314001F0A6FD00214BF2011001F033
:1035F000A1FD05214FF4364001F09CFD70214FF4F0
:10360000374001F097FD70214BF2017001F092FDFF
:1036100001214FF4384001F08DFD03214BF60100EC
:1036200001F088FD03214BF6020001F083FD032128
:103630004BF6030001F07EFD02214FF43C4001F007
:1036400079FD00214BF6014001F074FD00214BF69D
:10365000024001F06FFDD0214FF4494001F06AFDB6
:1036600002214CF6011001F065FD50214CF60210CC
:1036700001F060FD50214CF6031001F05BFD50217C
:103680004CF6041001F056FD00214FF4545001F0A7
:1036900051FD55214FF4685001F04CFD4FF4885016
:1036A00001F038FD782002F033FC4FF4245001F093
:1036B00031FD01F05EB9FE48808849F2253188422B
:1036C0007ED147F6F001E52001F034FD4FF4807122
:1036D000012001F02FFD4FF4E061022001F02AFDEE
:1036E00041F23001032001F025FD0021042001F00A
:1036F00021FD40F20221082001F01CFD00210920DB
:1037000001F018FD00210A2001F014FD00210C2019
:1037100001F010FD00210D2001F00CFD00210F2013
:1037200001F008FD0021102001F004FD0721112007
:1037300001F000FD0021122001F0FCFC002113200B
:1037400001F0F8FC0021072001F0F4FC41F2906147
:10375000102001F0EFFC40F22721112001F0EAFCDB
:103760009D21122001F0E6FC4FF4C851132001F016
:10377000E1FC2521292001F0DDFC0D212B2001F0A9
:10378000D9FC0721302001F0D5FC40F20331312073
:1037900001F0D0FC0321322001F0CCFC40F20621E4
:1037A000352001F0C7FC0821362001F0C3FC40F2AF
:1037B0000641372001F0BEFC4FF44171382000E093
:1037C00057E001F0B7FC0721392001F0B3FC40F2CB
:1037D00002613C2001F0AEFC08213D2001F0AAFC72
:1037E0000021502001F0A6FCEF21512001F0A2FCA5
:1037F0000021522001F09EFC40F23F11532001F0C5
:1038000099FC4FF42741602001F094FC01216120D4
:1038100001F090FC00216A2001F08CFC0021802046
:1038200001F088FC0021812001F084FC002182202D
:1038300001F080FC0021832001F07CFC0021842029
:1038400001F078FC0021852001F074FC102190200B
:1038500001F070FC4FF4C061922001F06BFC40F26B
:103860003311072001F066FC2221002001F062FCE8
:103870001FE78F48808849F2283188427ED141F283
:103880008F01EC2001F056FC41F23421EF2001F0D1
:1038900051FC4FF48071012001F04CFC4FF4E061C9
:1038A000022001F047FC41F23001032001F042FC0C
:1038B0000021042001F03EFC40F20221082001F02A
:1038C00039FC0021092001F035FC00210A2001F01B
:1038D00031FC01210C2001F02DFC00210D2001F014
:1038E00029FC00210F2001F025FC0021102001F00F
:1038F00021FC0721112001F01DFC0021122001F004
:1039000019FC0021132001F015FC0121072001F012
:1039100011FC322002F0DEFA41F29041102001F059
:1039200009FC40F22721112001F004FC322002F0B2
:10393000D1FA8A21122001F0FDFB322002F0CAFAEE
:103940004FF4D051132001F0F5FB0621292001F09E
:10395000F1FB0D212B2001F0EDFB322002F0BAFA31
:103960000021202001F0E6FB0021212001F0E2FBF4
:10397000322002F0AFFA0021302000E074E001F0C4
:10398000D9FB40F20461312001F0D4FB40F2053153
:10399000322001F0CFFB0021352001F0CBFB40F6B7
:1039A0000941362001F0C6FB4FF40171372001F0C8
:1039B000C1FB40F20131382001F0BCFB40F207713D
:1039C000392001F0B7FB00213C2001F0B3FB40F6A9
:1039D0000A213D2001F0AEFB322002F07BFA0021EB
:1039E000502001F0A7FBEF21512001F0A3FB0021A3
:1039F000522001F09FFB40F23F11532001F09AFB4F
:103A00004FF42741602001F095FB0121612001F076
:103A100091FB00216A2001F08DFB0021802001F044
:103A200089FB0021812001F085FB0021822001F02B
:103A300081FB0021832001F07DFB0021842001F027
:103A400079FB0021852001F075FB1021902001F009
:103A500071FB4FF4C061922001F06CFB40F2331116
:103A6000072001F067FB24E61148808849F22031E5
:103A700088427DD10021084601F05CFB4FF4807143
:103A8000012001F057FB4FF4E061022001F052FBEE
:103A900041F23001032001F04DFB0021042001F030
:103AA00049FB40F20221082001F044FB002101E023
:103AB000EC240020092001F03DFB00210A2001F048
:103AC00039FB01210C2001F035FB00210D2001F014
:103AD00031FB00210F2001F02DFB322002F0FAF91A
:103AE00040F20111072001F025FB322002F0F2F92B
:103AF0004FF48651102001F01DFB0721112001F029
:103B000019FB4FF48871122001F014FB4FF430615F
:103B1000132001F00FFB0021292001F00BFB44F2E0
:103B200010012B2001F006FB0021502001F002FBC8
:103B3000EF21512001F0FEFA0021522001F0FAFAA3
:103B400040F23F11532001F0F5FA4FF41C51602070
:103B500001F0F0FA0121612001F0ECFA00216A2065
:103B600001F0E8FA0021802001F0E4FA002100E0F1
:103B700031E0812001F0DEFA0021822001F0DAFA42
:103B80000021832001F0D6FA0021842001F0D2FA2E
:103B90000021852001F0CEFA1021902001F0CAFA10
:103BA0000021922001F0C6FA0121932001F0C2FA0F
:103BB0004FF48871952001F0BDFA0021972001F0A3
:103BC000B9FA0021982001F0B5FA40F273110720EC
:103BD00001F0B0FA6DE5FE48808849F23131884243
:103BE0007DD141F21401E72001F0A4FA4FF4807175
:103BF000012001F09FFA4FF40071022001F09AFABF
:103C000041F23801032001F095FA40F20221082028
:103C100001F090FA0021092001F08CFA00210A201D
:103C200001F088FA00210C2001F084FA00210D2017
:103C300001F080FA00210F2001F07CFA0021102011
:103C400001F078FA0721112001F074FA0021122006
:103C500001F070FA0021132001F06CFAC82002F084
:103C600039F941F29061102001F064FA40F2272105
:103C7000112001F05FFA322002F02CF90C21122001
:103C800001F058FA322002F025F94FF400611320B8
:103C900001F050FA1121292001F04CFA0B212B20C0
:103CA00001F048FA322002F015F90021202001F03D
:103CB00041FA40F23F11212001F03CFA002130206E
:103CC00001F038FA4FF48371312001F033FA00210A
:103CD000322001F02FFA4FF40171352000E064E04A
:103CE00001F028FA41F20A61362001F023FA40F28D
:103CF0000771372001F01EFA4FF48371382001F06C
:103D000019FA40F20771392001F014FA40F2024129
:103D10003C2001F00FFA40F60F413D2001F00AFA75
:103D20000021502001F006FAEF21512001F002FAA3
:103D30000021522001F0FEF940F23F11532001F022
:103D4000F9F94FF41C51602001F0F4F901216120D0
:103D500001F0F0F900216A2001F0ECF90021802047
:103D600001F0E8F90021812001F0E4F9002182202E
:103D700001F0E0F90021832001F0DCF9002184202A
:103D800001F0D8F90021852001F0D4F9102190200C
:103D900001F0D0F94FF4C061922001F0CBF940F26C
:103DA0003311072001F0C6F983E48948808845F281
:103DB000084188427ED14FF48071012001F0BAF9A8
:103DC0004FF4E061022001F0B5F941F23001032027
:103DD00001F0B0F90021042001F0ACF940F2072114
:103DE000082001F0A7F90021092001F0A3F9002122
:103DF0000A2001F09FF900210C2001F09BF900211D
:103E00000D2001F097F900210F2001F093F9142003
:103E100002F060F841F2B061102001F08BF901214D
:103E2000112001F087F90121172001F083F94FF4E7
:103E30009C71122001F07EF94FF40061132001F013
:103E400079F90921292001F075F909212A2001F0C9
:103E500071F90021A42001F06DF90021502001F03A
:103E600069F9EF21512001F065F90021522001F09C
:103E700061F940F23F11532001F05CF94FF41C51FD
:103E8000602001F057F90121612001F053F9002170
:103E90006A2001F04FF90021802001F04BF9002148
:103EA000812001F047F90021822001F043F900212F
:103EB000832000E023E001F03DF90021842001F09F
:103EC00039F90021852001F035F91321902001F006
:103ED00031F90021922001F02DF90321932001F006
:103EE00029F94FF48871952001F024F940F27311FB
:103EF000072001F01FF9322001F0ECFFB8E434484C
:103F0000808841F2055188427ED10021072001F0CE
:103F100011F9322001F0DEFF4FF48E71122001F012
:103F200009F90121A42001F005F90F21082001F071
:103F300001F908210A2001F0FDF808210D2001F007
:103F4000F9F840F20771302001F0F4F80721312030
:103F500001F0F0F840F20361322001F0EBF84FF489
:103F6000E061332001F0E6F840F20221342001F054
:103F7000E1F80221352001F0DDF841F60F7136201D
:103F800001F0D8F840F20771372001F0D3F8002192
:103F9000382001F0CFF80021392001F0CBF840F2B1
:103FA00007713A2001F0C6F800213B2001F0C2F869
:103FB00007213C2001F0BEF800213D2001F0BAF8B5
:103FC000322001F087FF0121072001F0B3F801E062
:103FD000EC2400200121172001F0ACF8322001F080
:103FE00079FF4FF4BD51102001F0A4F840F21721E1
:103FF000112001F09FF84FF48F71122001F09AF810
:104000004FF47061132000E097E001F093F8002175
:104010002A2001F08FF80A21292001F08BF84FF4B3
:104020009F71122001F086F80021502001F082F8E3
:10403000EF21512001F07EF80021522001F07AF8A2
:1040400040F23F11532001F075F84FF41C516020ED
:1040500001F070F80121612001F06CF800216A2064
:1040600001F068F80021802001F064F8002181202F
:1040700001F060F80021822001F05CF8002183202B
:1040800001F058F80021842001F054F80021852027
:1040900001F050F81321902001F04CF84FF44071DA
:1040A000922001F047F80521932001F043F8002108
:1040B000952001F03FF80021972001F03BF8002106
:1040C000982001F037F84FF48071012001F032F8A8
:1040D0004FF4E061022001F02DF841F23801032095
:1040E00001F028F80021042001F024F800210C2020
:1040F00001F020F800210F2001F01CF80021202001
:1041000001F018F80021212001F014F821210720E6
:1041100001F010F8142001F0DDFE6121072001F00C
:1041200009F8142001F0D6FE40F27311072001F0C7
:1041300001F8142001F0CEFE95E4FE4880884BF291
:10414000055188427ED10021084600F0F3FF00218E
:10415000084600F0EFFF0021084600F0EBFF0021C9
:10416000084600F0E7FF0121A42000F0E3FF14203F
:1041700001F0B0FE4FF41C51602000F0DBFF40F274
:104180000221082000F0D6FF4FF40571302000F026
:10419000D1FF43F21571312000F0CCFF40F20461F1
:1041A000322000F0C7FF40F61661332000F0C2FF56
:1041B00042F21121342000F0BDFF4FF4A851352008
:1041C00000F0B8FF48F20751362000F0B3FF41F28B
:1041D0000741372000F0AEFF41F20341382000F0E4
:1041E000A9FF2021392000F0A5FF1A21902000F01E
:1041F000A1FF0021102000F09DFF0721112000F0F9
:1042000099FF0021122000F095FF0021132000F0FB
:1042100091FF142001F05EFE4FF4E661102000F0E3
:1042200089FF40F23711112000F084FF142001F0C3
:1042300051FE4FF4DC71122000F07CFF142001F0DD
:1042400049FE00E083E04FF47061132000F072FF3C
:1042500080212A2000F06EFF4821292000F06AFF0B
:10426000142001F037FE4FF48071012000F062FF4E
:104270004FF4E061022000F05DFF41F238010320BD
:1042800000F058FF40F20221082000F053FF002107
:104290000A2000F04FFF00210C2000F04BFF00210E
:1042A0000D2000F047FF30210E2000F043FF0021D9
:1042B000502000F03FFFEF21512000F03BFF002194
:1042C000522000F037FF40F23F11532000F032FF40
:1042D0004FF41C51602000F02DFF0121612000F0FF
:1042E00029FF00216A2000F025FF1121902000F015
:1042F00021FF4FF4C061922000F01CFF40F2024108
:10430000932000F017FF0221942000F013FF1420E7
:1043100001F0E0FD0121072000F00CFF142001F066
:10432000D9FD6121072000F005FF40F2731107203D
:1043300000F000FF0021202000F0FCFE00212120E1
:1043400000F0F8FE2221002000F0F4FE11E379488D
:1043500080884CF2055188427ED10021084600F049
:10436000E9FE0021084600F0E5FE142001F0B2FD50
:104370000021084600F0DEFE0021084600F0DAFECB
:104380000021084600F0D6FE0021084600F0D2FECB
:104390000121A42000F0CEFE142001F09BFD4FF47B
:1043A0001C51602000F0C6FE40F60601082000F017
:1043B000C1FE40F20371302000F0BCFE012131202B
:1043C00000F0B8FE0421322000F0B4FE4FF48171F9
:1043D000332000F0AFFE4FF44071342000F0AAFE0D
:1043E00040F20311352000F0A5FE1F21362000F019
:1043F000A1FE40F20371372000F09CFE012138201D
:1044000000F098FE0421392000F094FE1521902040
:1044100000F090FE4FF48261102000F08BFE40F21D
:104420004721112000F086FE4FF4DE71122000F0CB
:1044300081FE4FF46061132000F07CFE782001F0D3
:1044400049FD4FF48071012000F074FE4FF40071BB
:10445000022000F06FFE00E050E041F23001032046
:1044600000F068FE08210A2000F064FE00210C2004
:1044700000F060FE20210E2000F05CFE00210F20E5
:1044800000F058FE0021202000F054FE00212120E1
:1044900000F050FE3D212A2000F04CFE142001F0D7
:1044A00019FD2D21292000F045FE0021502000F0AB
:1044B00041FE4DF2EF01512000F03CFE0021522060
:1044C00000F038FE40F23F11532000F033FE00218F
:1044D000612000F02FFE00216A2000F02BFE4FF437
:1044E0004071922000F026FE0521932000F022FE6C
:1044F0004FF48071072000F01DFE3AE20D488088DD
:1045000044F2315188427CD10121002000F012FE9A
:104510000A2001F0DFFC41F22861102000F00AFEC1
:104520000E21122000F006FE40F63921132000F083
:1045300001FE01E0EC2400200A2001F0CBFC402128
:10454000112000F0F7FD5021152000F0F3FD0A20A6
:1045500001F0C0FC1E21122000F0ECFD0A2001F049
:10456000B9FC4FF4B151102000F0E4FD42F63921BE
:10457000132000F0DFFD0A2001F0ACFC4FF4807145
:10458000012000F0D7FD4FF44071022000F0D2FD71
:1045900041F23801032000F0CDFD40F20221082055
:1045A00000F0C8FD08210A2000F0C4FD00213020E1
:1045B00000F0C0FD40F20241312000F0BBFD4FF49D
:1045C0008371322000F0B6FD40F20351332000F039
:1045D000B1FD4FF48271342000F0ACFD40F20131A6
:1045E000352000F0A7FD40F20771362000F0A2FD53
:1045F00040F20531372000F09DFD4FF40271382064
:1046000000E040E000F096FD40F60B71392000F02C
:1046100091FD0221412000F08DFD4FF41C516020DE
:1046200000F088FD0121612000F084FD4FF4047149
:10463000902000F07FFD4FF48571922000F07AFD0C
:104640000421932000F076FD4FF48071A02000F04B
:1046500071FD0121072000F06DFD2121072000F0F0
:1046600069FD2321072000F065FD3321072000F0BC
:1046700061FD40F23311072000F05CFD0021A02015
:1046800000F058FD75E1C048808844F235518842F9
:104690007ED13021152000F04DFD10219A2000F030
:1046A00049FD2021112000F045FD43F22841102052
:1046B00000F040FD0221122000F03CFD41F23801E3
:1046C000132000F037FD282001F004FC12210846D9
:1046D00000F030FD282001F0FDFB43F220411020C6
:1046E00000F028FD43F23801132000F023FD46209E
:1046F00001F0F0FB0021302000F01CFD40F20241EF
:10470000312000F017FD40F20731322000F012FD99
:104710004FF44171332000F00DFD0421342000F0EE
:1047200009FD40F20141352000F004FD40F207711F
:10473000362000F0FFFC40F20531372000F0FAFC93
:104740004FF4C261382000F0F5FC4FF4C26139200B
:1047500000F0F0FC4FF48071012000F0EBFC4FF40E
:104760004071022000F0E6FC41F23001032000F02D
:10477000E1FC40F60801082000F0DCFC08210A20DA
:1047800000F0D8FC4FF41C51602000F0D3FC00E096
:1047900031E00121612000F0CDFC4FF49F719020A9
:1047A00000F0C8FC4FF48071922000F0C3FC4FF47D
:1047B0008071932000F0BEFC4FF44051A02000F027
:1047C000B9FC1021A32000F0B5FC0121072000F066
:1047D000B1FC2121072000F0ADFC2321072000F0CF
:1047E000A9FC3321072000F0A5FC40F2331107207B
:1047F00000F0A0FCBDE06448808841F66311884267
:10480000F8D1E22000F086FC1D2000F07DFC0220A3
:1048100000F07AFC042000F077FC642001F078FBC3
:10482000E02000F077FC012000F06EFC0A2001F08F
:1048300051FBE02000F06EFC032000F065FC0C2032
:1048400001F048FB012000F065FC0A2001F042FB6A
:10485000E62000F05FFC2F2000F056FCFF2000F067
:1048600053FCFF2000F050FCB02000F053FC20204F
:1048700000F04AFC002000F047FC032000F044FC5C
:1048800040F21F3000F040FC012000F03DFC40F2FF
:10489000DF1000F039FC002000F036FCB42000F0FE
:1048A00039FC042000F030FC40F21F4000F02CFCEA
:1048B000002000F029FC2E2000F026FC002000F053
:1048C00023FC002000F020FC002000F01DFC002054
:1048D00000F01AFCB62000F01DFC022000F014FCD1
:1048E0004FF4037000F010FC002000F00DFC1720C6
:1048F00000F00AFC152000F007FC002000F004FC8A
:10490000002000F001FCF02000F004FC032000F087
:10491000FBFB292000F0FEFBD02000F0FBFB002079
:1049200000F0F2FBBE2000F0F5FB052000F0ECFBF0
:10493000FE2000F0E9FB012000F0E6FB002000F083
:10494000E3FB002000F0E0FB002000F0DDFBB820DE
:1049500000F0E0FB032000F0D7FB012000F0D4FBC7
:10496000BA2000F0D7FB012000F0CEFB642000F05D
:1049700031F80020FCF786FA0120044908604FF660
:10498000FF70FCF749FA10BDEC2400208081214221
:1049900010B50246012000E050430B00A1F10104D4
:1049A000E1B2F9D110BD000008B5034800880090BD
:1049B000BDF8000008BD00000008006C10B50446FA
:1049C000204600F0A7FB052001F0A2FAFFF7ECFF5C
:1049D00010BD00002DE9F0470446BE2000F09AFB10
:1049E000052000F091FB204603F0D0F807464FF079
:1049F00066320C4B03F0DEF8054603F083F81FFA2D
:104A000080F9484600F080FB012000F07DFBFF208C
:104A100000F07AFB002000F077FB002000F074FB30
:104A2000BDE8F0876666044070B5044600230026A2
:104A3000B748807901280BD1B548808846F6040133
:104A4000884205D0B248808841F66311884208D177
:104A5000AF488079F0B9AE48808841F6631188424A
:104A600018D1082C15D2DFE804F00406080A0C0E51
:104A7000101206240DE007240BE0042409E00524AD
:104A800007E0012405E0002403E0032401E0022400
:104A900000BF00BF9E48808849F24131884217D04C
:104AA0009B48808846F60401884211D09848808847
:104AB00045F2103188420BD09548808845F210515C
:104AC000884205D09248808841F6631188427DD1A2
:104AD000082C1CD2DFE804F00406090C0F1215188C
:104AE00000BF14E043F0800311E043F040030EE008
:104AF00043F0C0030BE043F0200308E043F0600301
:104B000005E043F0A00302E043F0E00300BF00BF74
:104B10007F48808845F21051884202D14FF45856A0
:104B200000E036267A48808845F2103188420DD060
:104B30007748808845F21051884207D074488088B1
:104B400041F66311884201D043F008037048808821
:104B500046F60401884201D143F00203194630466B
:104B600000F0E8FA6A48808841F6631188421DD057
:104B700003F0200068B1664800886549498888428A
:104B800014DA6348058840886149088008464580F2
:104B90000CE05F4800885E494988884206DD5C4831
:104BA000058840885A4908800846458058488088CA
:104BB00045F21051884254D15549488900F0AAFA6B
:104BC000002000F0A1FA5249498900E078E0491C30
:104BD00088B200F09FFA002000F096FA4C4949890B
:104BE000891C88B200F096FA49490988491EC1F328
:104BF0000F2000F089FA46494989C91C88B200F0A3
:104C000089FA43490978491EC8B200F07DFA404943
:104C1000888900F07FFA002000F076FA3C49898903
:104C2000491C88B200F076FA002000F06DFA38498D
:104C30008989891C88B200F06DFA35494988491E76
:104C4000C1F30F2000F060FA31498989C91C88B28C
:104C500000F060FA2E498978491EC8B200F054FA73
:104C600055E02B49488900F055FA002000F04CFA35
:104C7000002000F049FA26490988491EC1F30F2097
:104C800000F042FA22490978491EC8B200F03CFA05
:104C90001F49888900F03EFA002000F035FA002014
:104CA00000F032FA1A494988491EC1F30F2000F07A
:104CB0002BFA17498978491EC8B200F025FA26E078
:104CC000082C1CD2DFE804F004070A0D0F12151897
:104CD00043F0300313E043F0100310E043F02003EF
:104CE0000DE000BF0BE043F0380308E043F0280379
:104CF00005E043F0180302E043F0080300BF00BFE3
:104D0000032643F480531946304600F013FA70BD71
:104D1000EC24002010B503460C466748808849F211
:104D20004131884205D06448808845F2103188427C
:104D300014D16149488900F0EDF9181200F0E4F946
:104D4000D8B200F0E1F95C49888900F0E3F920125B
:104D500000F0DAF9E0B200F0D7F9ABE0564880880D
:104D600046F6040188421DD153488079012804D1B8
:104D700051480088401EC01A83B24F49488900F04C
:104D8000C9F9181200F0C0F9D8B200F0BDF94A49CB
:104D9000888900F0BFF9201200F0B6F9E0B200F007
:104DA000B3F987E04448808841F66311884247D1CF
:104DB00041488079A8B940480088401EC01A83B293
:104DC0003D49488900F0A6F9002000F09DF9002037
:104DD00000F09AF9181200F097F9D8B200F094F99F
:104DE00016E03549488900F095F9181200F08CF961
:104DF000D8B200F089F930490988491EC1F30F2063
:104E000000F082F92C490978491EC8B200F07CF9FB
:104E10002949888900F07EF9201200F075F9E0B286
:104E200000F072F924494988491EC1F30F2000F0AF
:104E30006BF921498978491EC8B200F065F939E05B
:104E40001D48808845F21051884220D11A4948896E
:104E500000F060F9181200F057F917494989491C08
:104E600088B200F057F9D8B200F04EF9124988899B
:104E700000F050F9201200F047F90F498989491CC8
:104E800088B200F047F9E0B200F03EF912E00A48BB
:104E90008079012804D108480088401EC01A83B2D6
:104EA00005494889194600F045F903498889214692
:104EB00000F040F910BD0000EC2400202DE9F84F6F
:104EC00080460E4617461C46B3462046E31704EBC1
:104ED0005373DB1021464FEAE47C04EB5C7C4FEA21
:104EE000EC0CA4EBCC0CBCF1000F02D04FF0010C89
:104EF00001E04FF0000C6344224604EBD27C4FEA01
:104F00006C0C03FB0CF3DBB20093A7F12000C7B2DB
:104F1000002556E00C2C07D107EB47002B4901EB8D
:104F2000800010F8059013E0102C05D1284800EB04
:104F3000071010F805900BE0182C07D107EBC700FD
:104F4000244901EB800010F8059001E0BDE8F88FDE
:104F50004FF0000A2FE009F0800030B11E480288AF
:104F600031464046FCF76EF807E00A9828B91B481E
:104F7000028831464046FCF765F84FEA49604FEA3F
:104F80001069701C86B216484088B04200DCDDE72C
:104F9000A6EB0B00A0420AD15E4608F101001FFA01
:104FA00080F80F480088404500DCCFE706E00AF1B2
:104FB000010000F0FF0ABAF1080FCCDB00BF681C4B
:104FC000C5B200988542A5DB00BFBFE72A8600086E
:104FD0009E8A00088E9000080E000020100000201D
:104FE000EC2400202DE9F84704460D4690469946EA
:104FF000DDE9096704F0FF0A08EB04001FFA80F8F6
:1050000009EB05001FFA80F916E0444502DB54461F
:10501000A81985B24D4500DB14E0002000903A78D5
:10502000334629462046FFF749FF304606EBD0714C
:1050300004EB61018CB27F1C38787E2802DC387862
:105040002028E2DA00BFBDE8F8872DE9FF4F82B0E3
:10505000064692461F46DDE90F48002001900025D4
:105060004DE0781B401EC1B20A20FFF791FCBAFB4D
:10507000F0F00A21B0FBF1F201FB1209019850BBDC
:10508000781EA84227DDB9F1000F22D108F0800078
:1050900078B108F00100A34604EBDB71491001FB75
:1050A0000561009088B2234630220399FFF706FF7E
:1050B0000EE008F00100A34604EBDB71491001FB90
:1050C0000561009088B2234620220399FFF7F6FE7F
:1050D00013E00120019008F00100A34604EBDB710E
:1050E000491001FB0561009088B209F13001CAB294
:1050F00023460399FFF7E2FE00BF681CC5B2BD421C
:10510000AFDB06B0BDE8F08F0149088070470000B2
:105110000008006C0149088070470000FE07006C21
:10512000024800890249088070470000EC240020F2
:10513000FE07006C024A1080921C1180704700002C
:10514000FE07006C1848806940F008001649886125
:105150000846806940F0400088611448006820F4E7
:105160007000124908600846006840F4401008606A
:105170000E480C30006840F020000C490C310860EB
:105180000B48006820F47000094908600846006870
:1051900040F44010086006480C30006840F02000E1
:1051A00003490C310860704700100240000C0140B8
:1051B0000018014000B5002015490861C86014209E
:1051C000486100208861C8610846006840F001001D
:1051D0000860084640680F4908400D494860084685
:1051E00000680D4908400A4908600846006820F434
:1051F000802008600846406820F4FE0048600020D7
:10520000886000214FF0006000F058F800BD0000F9
:10521000001002400000FFF8FFFFF6FE2DE9F0410C
:105220000746884614461D46284600F033F8C5F167
:10523000040007FA00F60F20284100EA08000643A0
:1052400006F00F06E21704EBD2625211920002F14F
:10525000E022D2F800212146E31704EBD3635B116F
:10526000A4EB431C012303FA0CF31A432046E31773
:1052700004EBD3635B119B0003F1E023C3F800212F
:105280000348005D40EA061001490855BDE8F08179
:1052900000E400E00146072323EA01021202054B65
:1052A00018684FF6FF031840034B18431043014B97
:1052B000186070470CED00E00000FA05024A0A4051
:1052C0000243024B1A60704780FFFF1F08ED00E0A9
:1052D00029B1064A52690243044B5A6104E0034A69
:1052E00052698243014B5A6170470000001002402E
:1052F00029B1064AD2690243044BDA6104E0034A49
:10530000D2698243014BDA6170470000001002400D
:1053100029B1064A92690243044B9A6104E0034AA8
:1053200092698243014B9A6170470000001002406D
:1053300070B504460848B0FBF4F085B200F0F0F810
:10534000284600F00BF900F009F800F02FF80121D1
:10535000880700F085F970BD400D03001FB50121DD
:105360004807FFF7C5FF6846FBF7CAFA24200090FC
:10537000002001900220039069460020FBF7A6FA66
:1053800069461020FBF7A2FA01210020FBF774FA0E
:1053900001211020FBF770FA01210020FBF780FAB1
:1053A00001211020FBF77CFA1FBD000000B58BB077
:1053B00001210220FFF78CFF1C48FBF7B3FA1C48C1
:1053C00000901C480190102002904FF4B47003909C
:1053D00000200490802005904000069080000790F7
:1053E000202008904FF44050099000200A90694610
:1053F0000E48FBF73DFB0D481430FBF793FA0C48C1
:105400000C3000904FF44050099069460748143022
:10541000FBF72EFB01210548FBF778FA0121034831
:105420001430FBF773FA0BB000BD000030040240EB
:10543000087400404C0100202DE9F04796B0054665
:105440008846002459E02F48006802F0A7FD064670
:1054500000222D4B02F01EF9CDE90E01681E02F06C
:105460007EFBCDE90201204602F090FB06460022B9
:10547000264B02F09FFBCDE90001DDE9022302F09B
:10548000B9F900224FF08043CDE9040102F092FB0C
:1054900081461F4A1F4B02F08DFBCDE9060100F04B
:1054A00063FFCDE90A011748006802F077FD064660
:1054B0000022154B02F0EEF8CDE90801DDE90A23E0
:1054C00002F078FBCDE90C01DDE90E2302F0E2F8F1
:1054D0000022114BCDE9100102F06CFB4FF0663257
:1054E0000E4BCDE9120102F085F9CDE9140102F06D
:1054F00009FB28F81400601C84B2AC42A3DB16B090
:10550000BDE8F087000000200000E03F0000F03F11
:105510004AD8124DFB21094000FEAF4066660A40A2
:1055200008B501210420FFF7F3FE3020ADF800009C
:1055300010208DF8030003208DF80200102106488A
:10554000FBF7A5FB20210448FBF7A1FB69460248B5
:10555000FBF712FB08BD0000000801403EB5044601
:1055600001210846FFF7C4FE684600F0E1F800207C
:10557000ADF80000ADF80600A0B2ADF80400694631
:105580004FF0804000F082F82021480600F074F8C7
:105590003EBD000030B504460025FFF70BFE1F4856
:1055A000006840F480301D49086000BF1B48006857
:1055B000400C0028FAD04FF4806018494860A01EC3
:1055C000C4B20846406840EA8440486008464068E3
:1055D00040F4803048601248006840F032001049C2
:1055E00008600E48006840F080700C49086000BFF9
:1055F0000A480068400E0028FAD00848406840F089
:1056000002000649486005E004484068C0F3870589
:1056100005F00305022DF7D130BD00000010024057
:105620000020024010B50C48008800F0010058B17D
:105630000A490869804700200749143108804FF45F
:105640007A7005491C3108800348008820F0010069
:105650000149088010BD00001008004058000020DB
:1056600021B1028842F00102028004E002884FF674
:10567000FE731A400280704782884FF68F731A407B
:10568000828082880A43828070470000002202885C
:105690001D4B98420ED01D4B98420BD0B0F1804F5D
:1056A00008D01B4B984205D01A4B984202D01A4B97
:1056B000984204D14FF68F731A404B881A43174B08
:1056C000984207D0164B984204D04FF6FF431A4039
:1056D000CB881A4302808B8883850B8803850A4B0D
:1056E00098420BD0094B984208D00E4B984205D0F7
:1056F0000D4B984202D00D4B984201D10B7A038694
:105700000123838270470000002C014000340140D7
:105710000004004000080040000C00400010004061
:105720000014004000400140004401400048014096
:105730004FF6FF71818000210180C180418001729C
:105740007047000070B505460C461048C06940F02F
:1057500004000E49C8610E480580001F04800C48F3
:105760002038008840F001000949203908800848A5
:105770002C38008840F0010005492C3908800223AC
:105780001E2203210846FFF749FD70BD00100240AC
:105790002C0800401D49098801F0200111B31B4964
:1057A000091D0988C8B21A49098801F40041C9B91C
:1057B0001749098801F4804161B10A2803D000210A
:1057C000134A118020E01249098841F40041104A2F
:1057D000118019E00D2806D10D49098841F4804156
:1057E0000B4A118010E00A490988C1F30D01094AEA
:1057F000505407490988491C054A118011460988F7
:10580000C72901DD002111807047000000380140E8
:105810000C00002024240020490050EAC12018BFB9
:1058200004204A0D18BF40F0010040F2FF72B2EBB5
:10583000515F08BF40F00200012808BF05207047F3
:105840002DE9F74F144694B00021C4E902111599CF
:10585000079121F00045C9498D4206DC1599C4E93C
:10586000000117B00020BDE8F08FC549DFF814A390
:10587000A9423CDD0799C44E0029C44FC44A15997A
:10588000534619DD02F0A0FA554506D0C14AC24B75
:1058900002F09AFAC4E900010AE04FF0D352BE4B7D
:1058A00002F092FA32463B4602F08EFAC4E9000159
:1058B00017B00120BDE8F08F01F0ECFE554506D091
:1058C000B44AB54B01F0E6FEC4E900010AE04FF02E
:1058D000D352B14B01F0DEFE32463B4601F0DAFE18
:1058E000C4E9000117B04FF0FF30BDE8F08FAB49BD
:1058F000A942159978DB21F0004183468846A84AE1
:10590000A84B02F057F90022A74B01F0C3FE02F0AA
:10591000C9F8099002F023F906460F469C4A5346FF
:1059200002F048F943465A4602F042FA80468A4657
:10593000984A994B3046394602F03CF92A0D012528
:105940000B924246534602F033FA032DC4E900019C
:1059500039D00B98C1F30A51401A05EB45111139A2
:10596000814230DA9148C346784400EB0510CDF807
:105970000CA00C90D0E900233046394602F01AF909
:1059800002460B46049106905846039902F01CFA11
:1059900080468A4602460B465846039902F014FA9E
:1059A000049B069A02F010FA83460C98039139463C
:1059B000D0E90223304602F0FDF85A46039B02F07C
:1059C00003FA6D1CBDE707980028A2BF099817B01D
:1059D000BDE8F08F616881F000416160099817B0FF
:1059E0004042BDE8F08FFFE784461598C1F31301EC
:1059F000C0F30A50A0F2F5304FEA601800F01F061D
:105A0000C6F12000139000200690079041F4801EFC
:105A100005206D4676B1664A08EB00017A4452F8DB
:105A2000213002EB8101B3404A68139922FA01F157
:105A3000194305E05F4908EB0002794451F8221050
:105A4000A1FB0E27A1FB0C131A449A4234BF012379
:105A5000002303EB070A05EB8003D3E901B70F44EA
:105A60008F4234BF0121002193448B4411B19345EF
:105A700002D903E0934501D2012100E00021C3E9EE
:105A800001B7514445F82010011EA0F10100C1DC0E
:105A90000298059F00F10050800F12900298DDE9F6
:105AA0000356800002F05BF8834628460D9102F011
:105AB0006DF86FF01D0202F072FDCDE90E01304667
:105AC00002F064F86FF03D0202F069FD80468A46FC
:105AD000384602F05BF86FF05D0202F060FD0746A9
