:020000040800F2
:1000000038050020CD010008D1010008D301000807
:10001000D5010008D7010008D90100080000000040
:10002000000000000000000000000000DB010008EC
:10003000DD01000800000000DF010008E101000808
:10004000E3010008E3010008E3010008E301000800
:10005000E3010008E3010008E3010008E3010008F0
:10006000E3010008E3010008E3010008E3010008E0
:10007000E3010008E3010008E3010008E3010008D0
:10008000E3010008E3010008E3010008E3010008C0
:10009000E3010008E3010008E3010008E3010008B0
:1000A000E3010008E3010008E3010008E3010008A0
:1000B000E3010008E3010008E3010008E301000890
:1000C000E3010008E3010008E3010008E301000880
:1000D000E3010008F9090008E3010008E301000852
:1000E000E3010008E3010008E3010008E301000860
:1000F000E3010008E3010008E3010008E301000850
:10010000E3010008E3010008E3010008E30100083F
:10011000E3010008E3010008E3010008E30100082F
:10012000E3010008E3010008E3010008E30100081F
:1001300000F002F800F03AF80AA090E8000C8244BF
:100140008344AAF10107DA4501D100F02FF8AFF29C
:10015000090EBAE80F0013F0010F18BFFB1A43F0A5
:1001600001031847E80B0000080C0000103A24BFF8
:1001700078C878C1FAD8520724BF30C830C144BF0C
:1001800004680C607047000000230024002500264E
:10019000103A28BF78C1FBD8520728BF30C148BFEA
:1001A0000B6070471FB51FBD10B510BD00F02DF8D6
:1001B0001146FFF7F7FF00F0A3FC00F04BF803B483
:1001C000FFF7F2FF03BC00F059FC000008480047AD
:1001D000FEE7FEE7FEE7FEE7FEE7FEE7FEE7FEE7F7
:1001E000FEE7FEE703480449024A044B704700005B
:1001F00031010008380100203805002038010020B6
:1002000070477047704770477047754600F028F890
:10021000AE4605006946534620F00700854618B0F3
:1002200020B5FFF7DFFFBDE820404FF000064FF09C
:1002300000074FF000084FF0000B21F00701AC461B
:10024000ACE8C009ACE8C009ACE8C009ACE8C0093A
:100250008D4670470446AFF300802046FFF7AFFF9E
:1002600000487047D400002039B1084A12680123C1
:1002700083401A43054B1A6006E0044A12680123C2
:1002800083409A43014B1A6070470000007400409D
:1002900041B1094A12684FF4805383401A43064B18
:1002A0001A6007E0044A12684FF4805383409A436F
:1002B000014B1A60704700000074004030B5002206
:1002C00000230A4C226840F6FE748440A243D1E920
:1002D00000452C438D682C43CD6844EA050303FA9E
:1002E00000F42243014C226030BD00000074004045
:1002F0000021016041608160C160704721B10268E6
:1003000042F00102026004E002684FF6FE731A40F8
:100310000260704701684FF6FE72114001600021D3
:10032000016041608160C1604B49884208D14A49FF
:100330000839496841F00F01474A083A51608AE09C
:1003400045491431884208D143490839496841F088
:10035000F001414A083A51607DE03F492831884226
:1003600008D13D490839496841F470613A4A083A70
:10037000516070E038493C31884208D1364908392B
:10038000496841F47041344A083A516063E03249A7
:100390005031884208D130490839496841F4702108
:1003A0002D4A083A516056E02B496431884208D101
:1003B00029490839496841F47001274A083A5160CF
:1003C00049E025497831884208D1234908394968EC
:1003D00041F07061204A083A51603CE01F49884270
:1003E00006D1011F096841F00F01021F116032E0C0
:1003F0001A491431884208D11849091F096841F087
:10040000F001164A121F116025E014492831884274
:1004100008D11249091F096841F470610F4A121F7F
:10042000116018E00D493C31884208D10B49091F81
:10043000096841F47041094A121F11600BE0074935
:100440005031884207D10549091F096841F47021DC
:10045000024A121F1160704708000240080402405F
:1004600010B50022026847F6F0739A430C6A8B6855
:1004700023430C6923434C6923438C692343CC6990
:1004800023434C6A23438C6A23431A430260CB689C
:1004900043600B6883604B68C36010BD2DE9F04179
:1004A000024600250026002000230024002791F8A2
:1004B00003C00CF00F0591F803C00CF0100CBCF158
:1004C000000F03D091F802C04CEA050591F800C076
:1004D000BCF1000F31D0146800202BE04FF0010C6C
:1004E0000CFA00F3B1F800C00CEA03069E4220D1DA
:1004F00083004FF00F0C0CFA03F7BC4305FA03FC22
:100500004CEA040491F803C0BCF1280F06D14FF067
:10051000010C0CFA00FCC2F814C00AE091F803C008
:10052000BCF1480F05D14FF0010C0CFA00FCC2F8E9
:1005300010C0401C0828D1D31460B1F800C0BCF131
:10054000FF0F34DD546800202EE000F1080C4FF05E
:10055000010808FA0CF3B1F800C00CEA03069E4249
:1005600021D183004FF00F0C0CFA03F7BC4305FABE
:1005700003FC4CEA040491F803C0BCF1280F05D138
:1005800000F1080C08FA0CF8C2F8148091F803C0C6
:10059000BCF1480F07D100F1080C4FF0010808FA30
:1005A0000CF8C2F81080401C0828CED35460BDE877
:1005B000F08100001848806940F008001649886101
:1005C0000846806940F0400088611448006820F4C3
:1005D0007000124908600846006840F44010086046
:1005E0000E480C30006840F020000C490C310860C7
:1005F0000B48006820F4700009490860084600684C
:1006000040F44010086006480C30006840F02000BC
:1006100003490C310860704700100240000C014093
:100620000018014000B5002015490861C860142079
:10063000486100208861C8610846006840F00100F8
:100640000860084640680F4908400D494860084660
:1006500000680D4908400A4908600846006820F40F
:10066000802008600846406820F4FE0048600020B2
:10067000886000214FF0006000F008F800BD000025
:10068000001002400000FFF8FFFFF6FE024A0A4099
:100690000243024B1A60704780FFFF1F08ED00E025
:1006A00029B1064A52690243044B5A6104E0034AE5
:1006B00052698243014B5A617047000000100240AA
:1006C00029B1064AD2690243044BDA6104E0034AC5
:1006D000D2698243014BDA6170470000001002408A
:1006E00029B1064A92690243044B9A6104E0034A25
:1006F00092698243014B9A617047000000100240EA
:100700001FB501214807FFF7DBFF6846FFF7F0FD43
:1007100024200090002001900220039069460020D0
:10072000FFF7CCFD0420009069461020FFF7C6FDBE
:1007300001210020FFF798FD01211020FFF794FD13
:1007400001210020FFF7A4FD01211020FFF7A0FDEB
:100750001FBD000000B58BB001210220FFF7A0FFF4
:100760001B48FFF7D7FD1B4800901B480190102045
:10077000029000010390002004908020059040002A
:10078000069080000790202008904FF44050099078
:1007900000200A9069460E48FFF762FE0C481430AC
:1007A000FFF7B8FD0B480C3000904FF44050099013
:1007B000694607481430FFF753FE01210448FFF74C
:1007C0009DFD012102481430FFF798FD0BB000BDDC
:1007D00030040240087400404C0B000808B50121A9
:1007E0000420FFF77DFF3020ADF8000010208DF8C9
:1007F000030003208DF8020069460248FFF74EFE11
:1008000008BD00000008014010B5FFF7E7FF00F049
:100810000FF8FFF775FFFFF79DFF0121880700F034
:1008200079F80121014800F075F810BD0010004072
:100830000EB501211120FFF743FF684600F0D2F802
:1008400041F2F950ADF804000020ADF80000ADF819
:100850000600ADF8020069464FF0804000F070F8E5
:10086000AF20ADF804006946054800F069F8202182
:10087000480600F05BF82021014800F057F80EBD53
:100880000010004030B504460025FFF7CBFE1F489E
:10089000006840F480301D49086000BF1B480068B4
:1008A000400C0028FAD04FF4806018494860A01E20
:1008B000C4B20846406840EA844048600846406840
:1008C00040F4803048601248006840F0320010491F
:1008D00008600E48006840F080700C49086000BF56
:1008E0000A480068400E0028FAD00848406840F0E6
:1008F00002000649486005E004484068C0F38705E7
:1009000005F00305022DF7D130BD000000100240B4
:100910000020024021B1028842F00102028004E07E
:1009200002884FF6FE731A400280704782884FF6A5
:100930008F731A40828082880A4382807047000049
:10094000002202881D4B98420ED01D4B98420BD0BE
:10095000B0F1804F08D01B4B984205D01A4B9842FB
:1009600002D01A4B984204D14FF68F731A404B882D
:100970001A43174B984207D0164B984204D04FF6B3
:10098000FF431A40CB881A4302808B8883850B88EB
:1009900003850A4B98420BD0094B984208D00E4B66
:1009A000984205D00D4B984202D00D4B984201D190
:1009B0000B7A03860123838270470000002C0140DC
:1009C000003401400004004000080040000C0040DA
:1009D000001000400014004000400140004401406D
:1009E000004801404FF6FF71818000210180C180E5
:1009F00041800172704700001D49098801F0200103
:100A000011B31B49091D0988C8B21A49098801F4A4
:100A10000041C9B91749098801F4804161B10A2828
:100A200003D00021134A118020E01249098841F4C3
:100A30000041104A118019E00D2806D10D4909889E
:100A400041F480410B4A118010E00A490988C1F342
:100A50000D01094A505407490988491C054A11806B
:100A600011460988C72901DD002111807047000067
:100A700000380140080000200C000020014600BFA3
:100A8000704700004FF0E021096921F004014FF0A8
:100A9000E0221161C21700EB5272C2F3C702074B8A
:100AA0001A701946097801EB4102C2EBC1114FF6E9
:100AB000FF7202EAC101024A118070470000002063
:100AC0000200002001460D4A12884A434FF0E023FD
:100AD0005A6100229A6101221A6100BF4FF0E022A0
:100AE000106900F001021AB100F48032002AF5D03A
:100AF00000224FF0E0231A619A6170470200002043
:100B00000920FFF7BFFE4820FFF7BCFFFFF752FDAB
:100B1000FFF77AFE15E000200A49086001200A4923
:100B2000C1F894014FF47A70FFF7CCFF012005491A
:100B3000086000200449C1F894014FF47A70FFF76F
:100B4000C1FFE8E7948121420000234200083208F7
:100B500064089608C808FA082C095E098F09C009BC
:100B6000F109220A520A820AB10AE10A0F0B3D0B6F
:100B70006B0B980BC50BF10B1C0C470C710C9B0CF1
:100B8000C30CEB0C130D390D5F0D840DA80DCB0DAF
:100B9000ED0D0E0E2F0E4E0E6C0E8A0EA60EC20E10
:100BA000DC0EF50E0E0F250F3B0F500F640F760F66
:100BB000880F980FA70FB50FC20FCE0FD80FE10FF8
:100BC000E90FF00FF60FFA0FFD0FFF0FFF0FFF0FEA
:100BD000FD0FFA0FF60FF00FE90FE10FD80FCE0F50
:100BE000C20FB50FA70F980F880F760F640F500F25
:100BF0003B0F250F0E0FF50EDC0EC20EA60E8A0E51
:100C00006C0E4E0E2F0E0E0EED0DCB0DA80D840D9D
:100C10005F0D390D130DEB0CC30C9B0C710C470CC5
:100C20001C0CF10BC50B980B6B0B3D0B0F0BE10A6A
:100C3000B10A820A520A220AF109C0098F095E0923
:100C40002C09FA08C808960864083208FF07CD077F
:100C50009B07690737070507D306A10670063F06FD
:100C60000E06DD05AD057D054E051E05F004C2042A
:100C7000940467043A040E04E303B8038E03640388
:100C80003C031403EC02C602A0027B0257023402AA
:100C90001202F101D001B1019301750159013D0129
:100CA00023010A01F100DA00C400AF009B008900B3
:100CB0007700670058004A003D00310027001E0001
:100CC00016000F00090005000200000000000000EF
:100CD0000200050009000F0016001E002700310069
:100CE0003D004A0058006700770089009B00AF0074
:100CF000C400DA00F1000A0123013D015901750128
:100D00009301B101D001F1011202340257027B02BA
:100D1000A002C602EC0214033C0364038E03B80372
:100D2000E3030E043A0467049404C204F0041E05AD
:100D30004E057D05AD05DD050E063F067006A106D4
:100D4000D3060507370769079B07CD076C0D000819
:100D5000000000200C0000006C010008780D000865
:100D60000C0000202C050000880100080000000095
:080D700000000000000000007B
:0400000508000131BD
:00000001FF
