:020000040800F2
:1000000088040020450100088F0400082F04000820
:100010008D0400088D010008910800080000000010
:100020000000000000000000000000000D050008B6
:10003000570300080000000091040008B9050008FB
:100040005F0100085F0100085F0100085F01000810
:100050005F0100085F0100085F0100085F01000800
:100060005F0100085F0100085F0100085F010008F0
:100070005F0100085F0100085F0100085F010008E0
:100080005F0100085F0100085F0100085F010008D0
:100090005F0100085F0100085F0100085F010008C0
:1000A0005F0100085F0100085F0100085F010008B0
:1000B0005F0100085F0100085F0100085F010008A0
:1000C0005F0100085F0100085F0100085F01000890
:1000D0005F0100085F0100085F0100085F01000880
:1000E0005F0100085F0100085F0100085F01000870
:1000F0005F0100085F0100085F0100085F01000860
:100100005F0100085F0100085F0100085F0100084F
:100110005F0100085F0100085F0100085F0100083F
:100120005F0100085F0100085F0100085F0100082F
:10013000DFF80CD000F018F800480047A9090008C3
:10014000880400200648804706480047FEE7FEE78F
:10015000FEE7FEE7FEE7FEE7FEE7FEE7FEE7FEE777
:10016000BD05000831010008064C074D06E0E068B7
:1001700040F0010394E8070098471034AC42F6D3EE
:10018000FFF7DAFFD4090008F4090008FEE70000D1
:10019000044B01228240186809B1104300E09043EB
:1001A00018607047007400401FB50121480700F037
:1001B0007DF924200090002001904FF430600290DF
:1001C000022003906946002000F016F8012100206B
:1001D00000F006F801210020FFF7DAFF1FBD000044
:1001E000044B9A148240186809B1104300E0904310
:1001F000186070470074004030B5084C236840F622
:10020000FE7282409343D1E900252A43D1E902518D
:100210000D432A4382401A43226030BD00740040DF
:100220000029016802D041F0010102E04FF6FE72A0
:10023000114001607047000001684FF6FE721140E6
:1002400001600021016041608160C1603149314A33
:100250000839904203D1486840F00F0006E02D4A6B
:100260001432904204D1486840F0F0004860704772
:10027000284A2832904203D1486840F47060F5E77C
:10028000244A3C32904203D1486840F47040EDE784
:10029000204A5032904203D1486840F47020E5E78C
:1002A0001C4A6432904203D1486840F47000DDE794
:1002B000184A7832904203D1486840F07060D5E720
:1002C000154A111F904203D1086840F00F0006E064
:1002D000114A1432904204D1086840F0F0000860DE
:1002E00070470D4A2832904203D1086840F470608C
:1002F000F5E7094A3C32904203D1086840F4704067
:10030000EDE7054A50329042EAD1086840F4702087
:10031000E5E70000080002400804024030B502682A
:1003200047F6F0739A430C6A8B682343D1E904457E
:100330002C4323438C692343CC6923434C6A2343D6
:100340008C6A234313430360CA6842600A68826070
:100350004968C16030BD704708B50121042000F034
:10036000BDF81020ADF8000003208DF80200002039
:100370008DF803006946024800F004F808BD00004B
:1003800000080140F0B5CC78002204F00F03E40629
:1003900001D58C7823430C784FF00F0C14F0FF0F2D
:1003A0004FF0010E1BD005680E880EFA02F42640AD
:1003B000A64210D196000CFA06F725EA070703FAC1
:1003C00006F5CE783D43282E02D0482E02D002E01A
:1003D000446100E00461521C082AE5D305600A88E4
:1003E000FF2A1CD94468002202F108060EFA06F51D
:1003F0000E882E40AE420ED196000CFA06F7BC4392
:1004000003FA06F7CE783C43282E00D14561CE781A
:10041000482E00D10561521C082AE5D34460F0BD86
:100420000246002092680A4200D001207047FEE791
:1004300010B58CB00121022000F02CF8104C2046A1
:10044000FFF7FAFE0F4800900F480190102020227D
:10045000CDE9020200218020CDE904108000069041
:100460008000CDE907028000CDE9090169462046F8
:10047000FFF754FF01212046FFF7D2FE0CB010BD5C
:10048000300402400874004004000020FEE770477A
:1004900070470000044A0029516901D0014300E07F
:1004A000814351617047000000100240044A002956
:1004B000D16901D0014300E08143D1617047000060
:1004C00000100240044A0029116901D0014300E0F4
:1004D000814311617047000000100240044A002966
:1004E000916901D0014300E08143916170470000B0
:1004F00000100240044A0029D16801D0014300E005
:100500008143D16070470000001002407047000036
:100510000CB50022264800920192016841F4803116
:1005200001604FF4A063016801F40031019100996A
:10053000491C0091019911B900999942F3D10168C0
:10054000890333D5012101911A490A6842F010024A
:100550000A600A6822F003020A600A6842F0020296
:100560000A604168416041684160416841F48061CE
:100570004160416821F47C114160416841F4E81117
:100580004160016841F08071016001688901FCD51A
:10059000416821F003014160416841F0020141607E
:1005A0004168C1F381010229FAD10CBD01920CBD51
:1005B0000010024000200240704700000F4810B5B4
:1005C000016841F00101016041680D4A114041603C
:1005D00001680C4A11400160016821F4802101602A
:1005E000416821F4FE0141604FF41F018160FFF773
:1005F0008FFF05494FF00060086010BD00100240F9
:100600000000FFF8FFFFF6FE08ED00E03EB5012117
:100610000846FFF74BFF4FF08044204600F024F8D7
:10062000204600F0D9F80A480188ADF804100120EE
:10063000ADF800000021ADF80610ADF802106946D3
:10064000204600F0D7F82021204600F0CAF83EBD31
:10065000840000200029018802D041F0010101E05E
:1006600021F00101018070474B4910B5884202D149
:100670000121C41486E0B0F1804F09D04749884277
:100680000DD101210220FFF71DFF0021022064E0AF
:1006900001210846FFF716FF002101205DE04049D7
:1006A000884206D101210420FFF70CFF002104201D
:1006B00053E03C49884206D101210820FFF702FFA0
:1006C0000021082049E03849884206D10121102044
:1006D000FFF7F8FE002110203FE03449884206D1A0
:1006E00001212020FFF7EEFE0021202035E03049D7
:1006F000884202D10121441444E02E49884202D1AB
:100700000121CC043EE02C49884202D101210C0594
:1007100038E02A49884202D101214C0532E02849BB
:10072000884206D101214020FFF7CCFE0021402065
:1007300013E02449884206D101218020FFF7C2FE40
:100740000021802009E0204988420AD18415012136
:100750002046FFF7B7FE00212046BDE81040FFF716
:10076000B1BE1A49884202D101210C040AE018499D
:10077000884202D101214C0404E0164988420AD182
:1007800001218C042046FFF7B5FE2046BDE810404D
:100790000021FFF7AFBE10BD002C01400004004057
:1007A00000080040000C0040001000400014004011
:1007B00000340140004C0140005001400054014011
:1007C00000180040001C0040002000400040014094
:1007D0000044014000480140018921F007010181E6
:1007E0007047828822F07002828082880A43828069
:1007F0007047000030B502881B4C1C4DA0420DD044
:10080000A8420BD0B0F1804F08D0194B984205D0C8
:10081000184B984202D0184B984203D122F0700333
:100820004A881A43154B984206D0154B984203D07C
:1008300022F44073CA881A4302808A8882850A8813
:100840000285A0420AD0A84208D00E4A904205D0A4
:100850000D4A904202D00D4A904201D1097A018698
:100860000121818230BD0000002C01400034014094
:100870000004004000080040000C00400010004050
:100880000014004000400140004401400048014085
:10089000FEE702E008C8121F08C1002AFAD170471B
:1008A0007047002001E001C1121F002AFBD17047F0
:1008B0004FF0E0210A6922F004020A610649C008EB
:1008C00000EB40020870C2EBC0104FF6FF7202EA64
:1008D000C0004880704700000000002008B50121DA
:1008E0005820FFF7FBFD4FF44050ADF80000042006
:1008F0008DF8030069460948FFF744FD0120ADF873
:10090000000069460648FFF73DFD4FF40050ADF882
:10091000000069460348FFF735FD08BD000C0140A3
:10092000000801400010014070B5124C4FF4805592
:1009300029462046FFF774FD012819D12946204693
:10094000FFF76EFD0028F9D10B480168491C0160D2
:10095000FFF702FDFFF75AFEFFF726FCFFF768FDE1
:1009600000F00CF8BDE8704001218807FFF772BE67
:1009700070BD0000000C01408400002008B501217A
:100980004020FFF7ABFD3C20ADF8000003208DF8C0
:10099000020010208DF8030069460248FFF7F2FCC0
:1009A00008BD0000001801404820FFF781FFFFF755
:1009B00095FFFFF7D1FCFFF729FEFFF7F5FBFFF7E7
:1009C00037FDFFF7DBFF01218807FFF743FEFFF745
:1009D000ABFFFCE7F40900080000002088000000DD
:1009E000920800087C0A000888000020000400002B
:1009F000A208000800000000FF0700008F090000A7
:100A00000F0B0000710C0000AA0D0000A60E0000E4
:100A1000630F0000D80F0000FF0F0000D80F000088
:100A2000630F0000A60E0000A70D0000710C00006F
:100A30000F0B00008F090000FF0700006F06000089
:100A4000EF0400008D030000570200005801000071
:100A50009B000000260000000000000026000000AF
:100A60009B00000058010000570200008D030000A9
:0C0A7000EF0400006F060000070000000B
:0400000508000131BD
:00000001FF
