:020000040800F2
:10000000C8060020510200085502000857020008E7
:10001000590200085B0200085D02000800000000B1
:100020000000000000000000000000005F02000867
:100030006102000800000000630200086502000879
:1000400067020008670200086702000867020008EC
:1000500067020008670200086702000867020008DC
:1000600067020008670200086702000867020008CC
:1000700067020008670200086702000867020008BC
:1000800067020008670200086702000867020008AC
:10009000670200086702000867020008670200089C
:1000A000670200086702000867020008670200088C
:1000B0006702000867020008E5720008670200088E
:1000C000670200086702000867020008670200086C
:1000D00067020008557400086702000867020008FC
:1000E000670200086702000867020008670200084C
:1000F000670200086702000867020008670200083C
:10010000670200086702000867020008670200082B
:10011000670200086702000867020008670200081B
:10012000670200086702000867020008670200080B
:1001300000F002F800F07CF80AA090E8000C82447D
:100140008344AAF10107DA4501D100F071F8AFF25A
:10015000090EBAE80F0013F0010F18BFFB1A43F0A5
:100160000103184750BF000070BF00000A444FF061
:10017000000C10F8013B13F0070408BF10F8014B06
:100180001D1108BF10F8015B641E05D010F8016B4B
:10019000641E01F8016BF9D113F0080F1EBF10F8AF
:1001A000014BAD1C0C1B09D16D1E58BF01F801CBD2
:1001B000FAD505E014F8016B01F8016B6D1EF9D555
:1001C0009142D6D37047000000230024002500266A
:1001D000103A28BF78C1FBD8520728BF30C148BFAA
:1001E0000B60704766290AF0B681642900F0A88088
:1001F000752900F0A580782900F0DE80632900F0E1
:100200000E85732900F01385002070471FB500F09C
:10021000BBFF04000020002109F008F9401C6060C9
:100220000020002109F0ECF8E0601FBD10B510BD02
:1002300001F088FA1146FFF7E9FF07F00BFE01F025
:10024000D5FC03B4FFF7F2FF03BC07F02FFD00005D
:1002500008480047FEE7FEE7FEE7FEE7FEE7FEE7A9
:10026000FEE7FEE7FEE7FEE703480449024A044BC7
:100270007047000031010008C8020020C8060020B5
:10028000C8020020704700000FB4044910B503AA4B
:10029000029800F0D1FC10BC5DF814FB0C000020AB
:1002A00070B5044685690068C10601D5302600E0B6
:1002B0002026C00707D070BDD4E901213046904701
:1002C000206A401C20626D1EF6D570BD70B50446D4
:1002D00085690078C00707D170BDD4E901212020CD
:1002E0009047206A401C20626D1EF6D570BD70B527
:1002F0000C460546012A05D02878800600D5EA6913
:10030000002302E0012305E05B1C934202D2E05C83
:100310000028F9D1A869E618C01AA861286A18440B
:1003200028622846FFF7BCFF04E0D5E9012114F854
:10033000010B9047B442F8D32846FFF7C7FF70BDC2
:100340002DE9F0410646002410687529314616A5AE
:1003500010D0AFF30080002802DA404213A507E076
:1003600031688A0701D512A502E0490704D511A515
:10037000012401E0AFF3008000210A2206F12407E6
:1003800009E0B0FBF2FCB0FBF2F302FB1C003030E2
:1003900078541846491C0028F3D123462A46304693
:1003A000BDE8F04100F0CBB9000000002D000000D6
:1003B0002B0000002000000070B504460D462146C9
:1003C0001068AFF300802188090502D50F4A7A44EE
:1003D00002E00E4A7A440E32002104F1240305E0C3
:1003E00000F00F060009965D5E54491C0028F7D105
:1003F00020780023000704D5702D02D009B1022314
:1004000011322046BDE8704000F099B944BA0000AE
:100410002DE9F05F894604464FF0000ADFF874B119
:10042000FB44C0F820A02046E1688847002874D02B
:10043000252806D0D4E901219047206A401C20627B
:10044000F1E700265F462046E168884720280546F8
:1004500007DB312D05D2781910F8200C08B10643BE
:10046000F1E7B00701D526F00406C4F81CA0002768
:10047000C4F818A02A2D09D0284607F010FC38B37C
:1004800004EB8708303DC8F8185019E059F8041BF0
:10049000204604EB87029161E1688847012F0546F9
:1004A00018D1E069002820DA26F020061DE0D8F8EF
:1004B000180000EB800005EB40003038C8F8180049
:1004C0002046E1688847054607F0E9FB0028EED1A1
:1004D000012F0AD02E2D08D12046E16888477F1CC5
:1004E0000546022F46F02006C4DBA069002803DA87
:1004F000404246F00106A061F00701D026F0100648
:100500006C2D0BD0682D09D04C2D39D06A2D35D0EB
:10051000742D35D07A2D33D016E038E0E1682F46BF
:1005200020468847B842054609D16C2F26D04FF4A3
:100530008060E168064320468847054604E06C2F4A
:100540001AD04FF4807006430DB3A5F1410019286D
:1005500002D8203546F400664A46294620462660E1
:100560004E46FFF73FFE80B101280BD0F61D26F066
:10057000070000F1080956E74020E4E78020D8E7AB
:100580000020D6E706F104094DE7284652E7206A25
:10059000BDE8F09F1ABA00000FB400B58DB010A9E5
:1005A000099000910B904FF0FF300A9000200C90C2
:1005B000064878440690064878446A4607900F99A2
:1005C00009A800F0B1FD0DB05DF814FB930B00001D
:1005D000AB0B00002DE9FF5F1D464FF0FF3B91463E
:1005E0004FF000085F46D5E90146A96901987F1CD4
:1005F0008847296A824688470028F6D1BAF1FF3F2A
:100600000CD0002E24F4C06419DD600614D5BAF1B4
:100610002B0F09D0BAF12D0F0ED103E0584604B0CC
:10062000BDE8F09F44F48064A96901987F1C884765
:10063000761E8246002E02DDBAF1300F03D0B9F1EA
:10064000000F26D032E0A969761E01987F1C44F481
:1006500000748847002E824605DDBAF1780F06D077
:10066000BAF1580F03D0B9F1000F10D01EE0B9F164
:10067000000F02D0B9F1100F18D1A969761E0198A8
:100680007F1C24F4007488478246102002E0082072
:1006900000E00A20814609E0A96908FB0908761EE6
:1006A00001987F1C44F4007488478246002E05DDC3
:1006B0004946504600F0D2FA0028EDDAE96901987F
:1006C0008847A00502D46FF00100A8E7E00725D114
:1006D000600613D5600502D5C8F1000000E0404671
:1006E00029680A1D2A600968220501D5087015E0ED
:1006F000220701D5088011E008600FE02868011D7D
:1007000029600068210502D580F8008006E02107F5
:1007100002D5A0F8008001E0C0F8008038467EE7EE
:10072000704770477047704710B500F031FD0068A2
:1007300010BD10B5044600F02BFD046010BD2DE97E
:10074000F0470D4699469246044600F12408016898
:10075000880604D5E06921F01001216000E0012045
:10076000A84201DD471B00E00027A1697A1902EBCE
:100770000900081AA0612078C00602D42046FFF7BD
:100780008FFD002608E0D4E901211AF80600904701
:10079000206A401C761C20624E45F4DB2078C0069F
:1007A0000AD52046FFF77CFD06E0D4E90121302080
:1007B0009047206A401C2062381EA7F10107F4DC34
:1007C00007E0D4E9012118F805009047206A401C91
:1007D0002062281EA5F10105F3DC2046FFF776FD17
:1007E0002078000602D50220BDE8F0870120FBE753
:1007F00070472DE9FF4F0C461E464FF0FF378BB078
:10080000D2E90001DDF860800A908A46C1F30A55FA
:1008100005B93D46002108464FF00000BAF1000F2F
:1008200000F4400005DA00EB80004FF4400101EADB
:1008300050004FEA9059B9F1010F00DDB9460A980E
:1008400050EA4A000ED044F61050A5F2FF35454359
:100850002F14B8F1000F1ED07542291E1EDDC9F1FC
:1008600000021CE0B8F1010F4FF0000001D0302170
:1008700003E0F24305E02154401CB042FBDB30466C
:100880000022002121540B99C1F80880C1E9002001
:100890000FB0BDE8F08FBD1B6D1CDEE74A4600DAE5
:1008A000694206A800F0D8FE06AB93E8070003AB48
:1008B00083E8070050460A9901F0F1F98DE8070036
:1008C000A0F500501F3800900398002D09DD42F27A
:1008D0001F014A46084403A90390684601F07BFCC7
:1008E00008E0A0F500504A461F3803A90390684667
:1008F00001F099FC8DE807000004000C03D04FF0D4
:10090000FF30410800E01046B8F1000F03D000228C
:10091000009215461EE0751E05D400F03DFC3032F5
:1009200062556D1EF9D5B3460122084302D000225C
:100930007F1C04E02078302801D100227F1E002A8D
:10094000099786D01DE0112D07DA00F025FC303222
:1009500062556D1C50EA0102F5D1084302D000989F
:10096000C8B10EE00021681E05E0235C625C6354A0
:100970002254401E491C8142F7DBAB46A81B401E97
:100980000990002004F80B000B98099AC0F8088021
:10099000C0E9002B7CE711264FF0000859E72DE94C
:1009A000F04F88460446D21D22F0070191B0D1E9EC
:1009B0000001CDE90A0106F0E1FD02460B98C00FE7
:1009C00001D02D2007E02068810701D52B2002E00F
:1009D000202101EAC000032A099001D0072A05DB83
:1009E00003464146204600F03DFC0BE1207880069E
:1009F00001D5E06900E00620B8F1650F814606D018
:100A0000B8F1660F18D0B8F1670F70D131E000204F
:100A1000B9F1110F009001DB112301E009F101038D
:100A20000AAA01A90CA8FFF7E4FEDDE90C70002674
:100A300009F10105834647E001204B4600904FF045
:100A400000470AAA01A90CA8FFF7D3FEDDE90DB003
:100A50000C995D46002610B909F101000D18B9EB9B
:100A6000050003D4C0F1FF3609F10105A5EB09002B
:100A70002BE0B9F1010F01DA4FF001090020B9F1C3
:100A8000110F0090484601DD112300E003460AAA39
:100A900001A90CA8FFF7ADFEDDE90C704D4600265C
:100AA0008346207800070AD4AB4500DA5D4601A8EA
:100AB000012D04DD411911F8011C302907D04F45E3
:100AC00002DA17F1040F04DA012082460FE06D1EEE
:100AD000EEE7002F02DCED1B3E4403E0781CA84249
:100AE00000DD7D1CB81B00F1010A4FF000472078A3
:100AF000000703D4AA4501DB4FF0FF3A0021B7F10C
:100B0000004F0DF143088DF8431024D002202B2311
:100B1000002F01DA7F422D230A21021EA0F10100DD
:100B200000DC5FB197FBF1FC97FBF1F201FB1C7C51
:100B300017460CF1300C08F801CDEEE7A8F10100E2
:100B400003702188090501D5452100E06521A0F148
:100B5000010800F8011C09980FA9A1EB0807FF1D67
:100B600000B10120411901EBEA70A1693844081A6B
:100B7000401EA0612078C00602D42046FFF790FBFB
:100B8000099828B1D4E901219047206A401C2062CD
:100B90002078C00622D52046FFF782FB1EE0002EFB
:100BA00004DBB34502DD01A8805D00E03020D4E91C
:100BB00001219047206A401C2062761CAAF10100A6
:100BC0005FEA000A0AD100F0DFFAC0680168405C01
:100BD000D4E901219047206A401C2062281EA5F11B
:100BE0000105DCDC07E0D4E9012118F8010B90478E
:100BF000206A401C2062381EA7F10107F3DC204662
:100C0000FFF764FB032011B043E610B5436913B14D
:100C1000AFF3008001E0FFF76AFB012010BD1278FE
:100C200000F124010A7000224A700122EDE71168E8
:100C30004FF0FF32E9E70000074B70B50D467B44EB
:100C400000F0FDFA0446284600F074FD10B14FF0A4
:100C5000FF3070BD204670BD2B7100003A2800D2D5
:100C6000303820F02002412A01D3A2F13700884217
:100C700001D34FF0FF3070472DE9FF4F064689B092
:100C80000878FF2806D0491C2D2805D000244FF0F5
:100C9000000908E000200CE00124F8E709EB8903D3
:100CA000491C00EB43090878FF28F7D114B1C9F1BA
:100CB00000008146107800252C46AA4629462D289A
:100CC00001D02B2804D1521C2D2813D0002082469D
:100CD0008B461078FF280FD04FF0000C0A21521CD1
:100CE000A5FB017804FB018105FB0C11C5194BEB39
:100CF0000104EEE70120EAE7002108464FF000007A
:100D0000BAF1000F02D000EB80004008C0F3815818
:100D1000B8F1010F01DD4FF0FF380C9809EB000727
:100D200055EA040009D04FF0020917F5FA7F0BDAF3
:100D30004FEACA70C6E900B012E04FEACA70C6E9CD
:100D400000B00DB0BDE8F08FB7F5FA7F0DDDF048CB
:100D50007844D0E90010C6E9001040EACA7070601B
:100D600000F016FAC0F80090EBE7391E02DAC8F17D
:100D7000000200E0424600DA794206A800F06CFC6E
:100D800006AB93E8070003AB83E8070044F23E009C
:100D90005BEA04010090584604D144F21E012C463F
:100DA0005D460091210C0904014306D100992404F9
:100DB00044EA15442D041039009104F07F410143A9
:100DC00006D10099240244EA15642D0208390091E5
:100DD00004F07041014306D10099240144EA1574DE
:100DE0002D01091F009104F04041014306D10099F3
:100DF000A40044EA9574AD00891E009104F00041FE
:100E0000084304D100986D196441401E0090424689
:100E10006846002FCDE9014503A902DD01F017FA6C
:100E200001E001F0ECF9BAF1000F04460D4601D0E3
:100E300084F0004440F2FF7724F00040284303D0C0
:100E4000C4F30A50B84212D100F0A2F9C0F80090E1
:100E5000C4F30A50B8420AD1AE487844D0E9001031
:100E6000C6E9001004F000410843706069E7C6E974
:100E7000005466E72DE9FF4F1F464FF0000A4FF080
:100E8000FF38454691B0D7E90146CDF83CA000F0C7
:100E90007BF9C0680168405C1090B96912986D1CBC
:100EA0008847396A814688470028F6D1B9F1FF3F63
:100EB0000AD0002E24F4D06411DDB9F12B0F08D034
:100EC000B9F12D0F0BD102E0404615B03AE744F4DA
:100ED0008064B96912986D1C8847761E814660054A
:100EE00004A901D52D2000E02B20002E01F1010BDB
:100EF0000DF130088DF810003FDDB9F1690F08D011
:100F0000B9F1490F05D0B9F16E0F02D0B9F14E0F0A
:100F10001CD13B4601A8009580E85002DDE9121281
:100F20006FF0020009F07DFBC11CCED10EE0B96963
:100F300012986D1C884781461398761E44F40074FD
:100F400005600F98401C002E0F9016DDB9F1300F90
:100F5000EDD0B9F1780F02D0B9F1580F0DD10F983B
:100F600001280AD13B46CDE90054DDE91212001FE9
:100F7000029609F054FBC11CA7D1109989453ED1B6
:100F800044F0800406E01399681CAAF1010A44F4B5
:100F900000740860B9696D1C1298761E8847302865
:100FA0008146F0D02BE01099894505D1200603D465
:100FB000761E44F0800418E0484606F070FE08B340
:100FC000761E0DF123018B4544F4007408D2A9F17B
:100FD00030000BF8010B200607D5AAF1010003E051
:100FE000200602D40AF101008246A00502D5139919
:100FF000681C0860B96912986D1C88478146002EEC
:10100000D1DC53E0002E51DDB9F1650F02D0B9F10A
:10101000450F4BD1A00549D5B9696D1C1298761EB4
:1010200024F440748847002E81460CDD2B2804D020
:10103000B9F12D0F07D144F48074B96912986D1C71
:101040008847761E8146E00501D52D2100E02B2141
:1010500008F8011BCDF8008021E0761E0DF1390162
:10106000884544F400740CD2A9F1300010F0FF0060
:1010700088F8000002D10099884509D908F10108D3
:1010800006E0E00501D5244801E042F20F708246F7
:10109000B96912986D1C8847814613980560002E27
:1010A00004DD484606F0FBFD0028D6D1F969129808
:1010B0008847FF2053468BF8000088F80000002086
:1010C0000A900B9004AA0CA90AA8FFF7D5FDA00569
:1010D00002D46FF00100F8E614F0240F0AD0E00704
:1010E00014D13868DDE90A12031D3B600068C0E9CD
:1010F00000120BE00AA9684606F07AFDE00705D168
:101100003868009A011D3960006802602846DCE6F4
:1011100080B3000076B20000F1D8FFFF02681144EE
:101120001378016018467047D160054979445161D0
:1011300004497944116200211161114600F0D2B8CE
:10114000EDFFFFFFED000000426842B1016811F8B9
:10115000013B23B1521EC0E900121846704701211D
:10116000C160881E704742685AB1C368016843B9BC
:1011700083688B4205D0491E521CC0E90012002032
:1011800070474FF0FF3070470048704788020020DA
:10119000004870476802002030B5B0F10A024FEAFB
:1011A000900E71F100034EEA817EB0EB0E0061EB10
:1011B00091014FEA101E4EEA017E10EB0E0041EB4A
:1011C00011114FEA102E4EEA016E10EB0E0041EBAA
:1011D00011214FEA104E4EEA014E10EB0E0041EB8A
:1011E0001141401841F100014FEAD00040EA41703E
:1011F0004FEAD10110EB80054FEA810444EA907474
:1012000044EB01046D1944EB0404521BA3414FF05D
:10121000000348BF0A3200D530BD401C41F1000137
:1012200030BD10B5044600F0B3FA0068005D00F070
:10123000010010BD01694A1C02610878704700B5C1
:101240008FB0CDE901310021059105497944CDE9FF
:10125000031011466846FFF7DBF80FB000BD000031
:10126000E5FFFFFF2DE9F0411F4604460326016814
:10127000072A01F4006004DB08B116A505E016A5F5
:1012800003E008B115A500E015A521F010002060CD
:10129000A069C01EA0610FB1401EA0612046FEF7EC
:1012A000FFFF4FB1D4E9012138469047206A401C26
:1012B0002062C01C206206E0206AFAE7D4E901211E
:1012C00015F8010B9047761EF8D22046FEF7FEFF78
:1012D000BDE8F0814E414E006E616E00494E460001
:1012E000696E66002DE9F34F4FF0000A0C46564632
:1012F0008DB001200C9001F10C000B9062690B98ED
:101300000121904705002DD0252D2CD0216A88473A
:10131000C0B162690B9801219047216A8847002873
:10132000F7D16269411E0B98904700E0761CA169D5
:101330000D988847216A88470028F7D1E1690D9800
:101340008847DBE7A1690D988847A842074601D185
:10135000761CD3E7E1690D9888477F1C02D1BAF16A
:10136000000F6FD06BE162690B9800273D4639464C
:1013700090472A2804D162690B98012190470125E2
:10138000DFF8D08262690B9801219047A0F130010B
:101390000A290AD24745E5DC07EB870100EB410744
:1013A000303FDFD445F01005ECE7E90601D46FF0DB
:1013B00000476C280AD04C2814D0682815D06A2819
:1013C0000DD074281CD07A281AD01DE062690B98C1
:1013D000012190476C2802D045F0040514E045F047
:1013E00002050DE045F020050AE062690B98012135
:1013F0009047682802D045F0080505E045F40065EF
:1014000062690B9801219047C4E9015765283DD0D6
:1014100019DC58287AD00CDC452837D004DC252884
:1014200026D041289ED131E046282FD0472899D197
:101430002CE05B2877D0612828D063287CD06428F2
:1014400023D15AE0F6E06F2848D008DC66281DD08A
:1014500067281BD0692821D06E2816D127E0702874
:1014600045D0732868D0752847D078280DD14DE035
:10147000A1690D988847252805463FF469AFE169C1
:101480000D9888476D1C3FF46AAFD8E00D9923464C
:101490006A466FF0010009F0C0F8C5E045F0400071
:1014A00023464FF000026060A80736D43EE0E8070C
:1014B0007FF447AF2068011D21600068290501D530
:1014C00006701BE7290701D5068017E7A90703D592
:1014D000F117C0E9006111E706600FE745F0400031
:1014E00023464FF008026060A80716D41EE040F6BD
:1014F0000E0125EA0100606016E045F04000234639
:101500004FF00A026060A80707D40FE045F04000E2
:101510006060A80708D5234610220D996FF00100DE
:10152000AFF3008080E007E0102223460D996FF0B2
:101530000100FFF74FF877E04FF0000963284F46AE
:10154000C8464B46CB4602D05B2806D038E0E806BA
:1015500001D40120A060012732E06269D4F80CB008
:101560000B98012190475E2807D14FF001094946A9
:101570006269D4F80CB00B989047216939B9002101
:101580000A4603AB43F82120491C0829FADBD8B3EB
:10159000216949B308F1010862690B98012190475C
:1015A0005D28F4D1B9F1000F09D0002003A951F84A
:1015B0002020D24341F82020401C0828F7DB03AB51
:1015C0002069002820794FEA40701ED05B462246F1
:1015D000CDF80080CDE901970D9900286FF001004A
:1015E00020DAAFF300801FE0C11703AA00EBD1613E
:1015F0004B1121F01F0102EB8302411A13680120F5
:10160000884003431360C7E719E00D99224600287C
:101610006FF00100009702DAAFF3008004E0AFF34F
:10162000008001E0AFF3008000280ADA401C06D1F8
:101630000C9820B14FF0FF300FB0BDE8F08F50464E
:10164000FAE7E90701D10AF1010A064400200C90EB
:1016500054E60000CCCCCC0C2DE9F0478146164670
:101660008AB0334878440DC88DE80D00304878447E
:10167000801C03AC0DC884E80D0041F69B30084483
:10168000372190FBF1F290FBF1F5A5F1800501FB0C
:1016900012041B3C02D56442012000E00020DFF868
:1016A00090A080460027FA44AAF1BE0A0DE0E007A8
:1016B00009D03246684607EB47010AEB810100F08A
:1016C000B2FD8DE8070064107F1C002CEFD1184F8D
:1016D0007F44AC3F18E0E80714D007EB04100DF18D
:1016E000180A90E80E008AE80E00C068F04201D1A6
:1016F00098190890324606A903A800F094FD03ABA0
:1017000083E807006D10641C002DE4D13246694661
:10171000B8F1000F03A802D000F05DFD01E000F079
:1017200082FDC9E90001C9F808200AB0BDE8F087C8
:1017300084A90000007B00F08000704700487047DB
:10174000680200207546FFF7F9FFAE4605006946BE
:10175000534620F00700854618B020B5FEF784FDFB
:10176000BDE820404FF000064FF000074FF00008A2
:101770004FF0000B21F00701AC46ACE8C009ACE823
:10178000C009ACE8C009ACE8C0098D46704700004C
:1017900010B5FFF7F9FC001D10BD00BF917C0000E3
:1017A0002DE9FF4F1F464FF03C0987B04FF0004234
:1017B000DDE9141001F10108DDF858A002EA4050FB
:1017C0000390002004908346054604460590B969BD
:1017D000461E08988847AAF1010A0290BAF1000F44
:1017E00037DD02982E2815D01021FFF737FA002890
:1017F0002ADB4FF0010B0499014316D0B9F1000F19
:101800000BDB4A46C11700F037FA05430C43A9F138
:10181000040905E00120059007E008B145F0010545
:1018200001200490059800B9361DB969089808F19F
:1018300001088847BBF1000FAAF1010A0290CDD040
:101840000999C1F80080C9E70298702808D050288B
:1018500006D0F96908988847BBF1000F14D04FE013
:10186000002002900120BBF1000F049009D0B9695B
:10187000089808F101088847AAF10109B9F1000F99
:1018800007DCF969089888476FF001000BB0BDE8E4
:10189000F08F2B2804D02D280CD14FF0FF3004906E
:1018A000B969089808F101088847A9F10109B9F157
:1018B000000FE6DD411CE4D00A21FFF7CFF9002834
:1018C000DFDB029908F1010801EB810100EB410027
:1018D0000290B969089888470A21FFF7BFF9099A69
:1018E000A9F10109B9F1000FC2F8008001DD00285B
:1018F000E7DAF969089888470499029800FB0166BD
:1019000055EA040004D004F04041090002D006E08A
:10191000039898E0A40044EA9574AD00B61E04F064
:101920000041080002D16D196441761E159810F02F
:10193000240F03D04FF00B095C4803E04FF0280957
:101940006FF07D008246564507DAAAEB060189440E
:10195000B9F1410F01DD4FF0410901200021A9F14A
:10196000010200F089F9024628400B462140084355
:1019700001D0012100E00021501E029143F1FF310E
:1019800028402140084301D0012000E000200299B6
:10199000834651EA0B014FD0002108464FF000006A
:1019A000039900F4400039B100EB80004FF440018E
:1019B00000EBD07001EA60008015012802DD4FF0D5
:1019C000FF3000E013D0401C36D0029860B3BBF16A
:1019D000000F0CD14A460120002100F04DF92840AB
:1019E0002140084301D0012000E00020E0B10120A7
:1019F0004A46002100F040F9034640190A46614179
:101A00002D1A8C4111D3B9F1400F09DD159810F052
:101A1000240F02D0AAF1340603E0AAF1170600E071
:101A2000761C00254FF0004406E05B1E42F1FF32B9
:101A300020EA030521EA0204CAF10100B04206DAF5
:101A40001B49039808430190002000900EE0039A80
:101A5000C4F3D321E80A0A43164940EA44500A4332
:101A60003146CDE90002684606F00EF9159810F0EF
:101A7000240F0BD01598C00715D13868DDE9001286
:101A8000031D3B600068C0E900120CE002A8694633
:101A900006F0AEF81598C00705D13868029A011D06
:101AA0003960006802604046F0E6000002FCFFFF7B
:101AB0000000F07F0000F03F2DE9FF4F92461D46E9
:101AC00085B04FF00041DDE9124BDDE914727F1E55
:101AD00001EA4B50414940F0FF4940EA010800212A
:101AE00022F020004928049102D04E2828D04CE052
:101AF0003BA0012607C88DE80700A9690698641C69
:101B000088477F1E014606D41DF8060018B121F053
:101B1000200181420BD0E96906988847032E34D012
:101B2000082E32D06FF0010009B0BDE8F08F761CAE
:101B3000032E01D0082EE0D1601CCAF80000DCE7BB
:101B4000A9690698641C88477F1E2AD420F02000CB
:101B5000412826D1A9690698641C88477F1E20D495
:101B600020F020004E281CD1A9690698641C8847E3
:101B70007F1E48F4002849F48009CAF8004001D4C7
:101B8000282806D0E969069888475FEACB7012D00A
:101B900022E0A9690698641C88477F1E01D40028AA
:101BA00003DAE96906988847BCE72928F1D1641C63
:101BB000CAF80040E9E71BF0240F07D02868049911
:101BC000031D2B600068C0E9001805E02868021DAD
:101BD0002A600068C0F800902046A5E70000F07F6A
:101BE000494E46494E495459000000000446AFF39F
:101BF00000802046FEF725FB4FF0013C50F8042BF7
:101C000051F8043B9A4221D1A2EB0C03934313EA0F
:101C1000CC1317D150F8042B51F8043B9A4215D13C
:101C2000A2EB0C03934313EACC130BD150F8042B13
:101C300051F8043B9A4209D1A2EB0C03934313EAF7
:101C4000CC13DBD04FF00000704700BFD01A01BAB0
:101C5000B1FA81F101F0180122FA01F0CB40C1F193
:101C60002001DBB2C0B2C01A2CFA01F3D11A9143A1
:101C700011EAC311E6D17047B2F120030AD5C2F1CF
:101C8000200301FA02F120FA03F300FA02F041EA1C
:101C90000301704700FA03F14FF0000070475FEA5C
:101CA000400C08BF91F0000F4FEA8C234FEAC1228D
:101CB00043EA51514FEA1C5018BF00F5F0404FEA7B
:101CC000300018BF41F000415FEA6C5C00F02980F1
:101CD000BCF1FF3F08BF40F080407047130C06BFC7
:101CE00012044FF0100C4FF0000C130E04BF120240
:101CF0000CF1080C130F04BF12010CF1040C930F2C
:101D000004BF92000CF1020CD30F04BF52000CF17F
:101D1000010C11464FF00002A0F11F00A0EB0C00D7
:101D2000704711F0004F08BF704731F000413FF499
:101D3000D5AF0B0C06BF09044FF0100C4FF0000C90
:101D40000B0E04BF09020CF1080C0B0F04BF0901B4
:101D50000CF1040C8B0F04BF89000CF1020CCB0FAB
:101D600004BF49000CF1010CCCF12003A0EB0C00E6
:101D700022FA03F302FA0CF241EA030100F1010036
:101D8000704720F07F4C80EA030023F07F47ACEBE4
:101D9000070303F57C5300F0004003F1FF032DE936
:101DA00080494FEA154B09B44FEA144325EA0B4E1C
:101DB00024EA03480FF2042606EB132749083E786D
:101DC0005FEA320203FB0667C7F5000707FB06F66A
:101DD0004FEA54374FEAD64606F1020607FB066C77
:101DE000CCF1005C4FEA1C472CEA074C07FB06F4D9
:101DF0000CFB06F504EB15464FEA961634BF00209F
:101E00004FF000404FEAD13706FB07FC4FEA1C4C6D
:101E10000CFB0BF7D21B03FB0CF761EB07010CFB70
:101E20000EF7B0EB074072EB17420CFB08F734BF1C
:101E3000A2EB0742B2EB074261EB17414FEA0C44B9
:101E40004FEA910706FB07FC4FEA1C4C0CFB0BF713
:101E5000B0EBC74072EB573203FB0CF734BFA2EB79
:101E6000C742B2EBC74261EB57310CFB0EF7B0EB48
:101E7000C70072EB57720CFB08F734BFA2EBC70226
:101E8000B2EBC70261EB5771039F4FEA816141EAF0
:101E9000921104EBCC044FEAD1374FEA826206FB81
:101EA00007FC42EA90124FEA80604FEA1C4C0CFBA0
:101EB0000BF7D21B03FB0CF761EB07010CFB0EF7D2
:101EC000B0EB074072EB17420CFB08F734BFA2EBF4
:101ED0000742B2EB074261EB17414FEA8C554FEADC
:101EE000910704EB9C2406FB07FC4FEA1C4C0CFBFF
:101EF0000BF7B0EBC74072EB573203FB0CF734BF64
:101F0000A2EBC742B2EBC74261EB57310CFB0EF7B5
:101F1000B0EBC70072EB57720CFB08F734BFA2EBB3
:101F2000C702B2EBC70261EB577115EB4C254FEAC4
:101F3000816141EA92114FEA82624FEAD13742EA67
:101F4000901206FB07FC44F100044FEA80604FEA60
:101F50001C4C0CFB0BF7D21B03FB0CF761EB0701CE
:101F60000CFB0EF7B0EB074072EB17420CFB08F7C7
:101F700034BFA2EB0742B2EB074261EB174115EB0E
:101F80001C154FEA813141EA92414FEA823242EA1E
:101F900090424FEA80304FEA0C7644F1000448EA60
:101FA00003434EEA0B484FF0000EB2EB080C71EB06
:101FB000030724BF624639464EEB0E0E4FF0000B6E
:101FC0000018524149414BEB0B0BB2EB080C71EB83
:101FD00003077BF1000B24BF624639464EEB0E0E21
:101FE0004FF0000B0018524149414BEB0B0BB2EB89
:101FF000080C71EB03077BF1000B24BF62463946E6
:102000004EEB0E0E51EA020718BF46F0010616EB22
:102010000E7655F1000254F1000103D5BDE88901A7
:10202000BDE80088BDE88901BDE80048B619524105
:1020300041EB0101A3F10103704780807F7E7D7C2D
:102040007B7A7978777676757473727171706F6E4A
:102050006E6D6C6C6B6A6A696868676666656464F5
:10206000636362616160605F5F5E5E5D5D5C5C5B7F
:102070005B5A5A59595858575756565555555454EE
:10208000535352525251515050504F4F4F4E4E4D4C
:102090004D4D4C4C4C4B4B4B4A4A4A494949484898
:1020A00048474747474646464545454444444443D8
:1020B00043434342424242414141000046EA064610
:1020C000A3F570534FEA164646EA42564FEAD2222B
:1020D00042EA415210B54FEAD121A3F1010300F0C9
:1020E00017F820F0004000F1010C00F0004701EB70
:1020F00000501146BCF5006F40EA070000D210BD49
:1021000002484FF0000140EA070010BD0000F07FD8
:10211000002B26D4770021D01CB54FEA370703B433
:102120004FF010004FF010014FF000000FBCBDE861
:1021300010400BF1010BBBF1010F08BF5FEA17075D
:1021400022BF12F1010211F101014FF0004143F1F0
:10215000000300F0004043EA00007047F9D357083D
:10216000DAE746EA064613F1400F4FEA16461FDD4E
:1021700013F1200FDFBF16430A46002120335B42D4
:10218000C8D0C3F1200746EA064602FA07F74FEA2D
:10219000164646EA0706C3F1200722FA03F201FABF
:1021A00007F721FA03F14FF0000342EA0702B1E713
:1021B00046EA020646EA06464FEA164646EA01069F
:1021C000BCBF46EA0646360C4FF000034FF0000253
:1021D0004FF000019EE72DE9C048934630B491E8E6
:1021E000380007C831EA400C48BF34EA430C03D535
:1021F000FFF7C7FDFFF78CFFF0BCBDE800882DE9B5
:10220000C048934630B491E8380007C831EA400C22
:1022100048BF34EA430C03D5FFF7B3FDFFF74EFF89
:10222000F0BCBDE800882DE9C048934630B491E881
:10223000380007C810F0804F08BF13F0804F03D15B
:1022400000F019F8FFF764FFF0BCBDE800882DE945
:10225000C048934630B491E8380007C810F0804F6A
:1022600008BF13F0804F03D100F005F8FFF726FFF9
:10227000F0BCBDE8008820F07F4780EA030023F02F
:102280007F4C07EB0C03A3F57C5300F00040A3F157
:10229000FE0392F0000F00F0B38095F0000F00F005
:1022A00077802DE901494FEA11404FEA144621EAAF
:1022B000004800FB06FC24EA064708FB06F607FB7D
:1022C00008F800FB07F718EB06484CEB164C4FEAF2
:1022D000124B18EB07484FEA15464CEB174022EA21
:1022E0000B4E0BFB06FC25EA06470EFB06F607FB2A
:1022F0000EFE0BFB07F71EEB064E4CEB164C4FF099
:1023000000061EEB074E4CEB174B18EB0B0840F189
:10231000000018EB0E0B58EB000840F100008F1A7C
:102320004FF000013CBFC943661B14BFB5EB040C62
:1023300000213CBFC943F61B4FEA17444EEA8E0EFC
:1023400027EA04454FEA1C4704FB07622CEA074CC6
:1023500005FB07F70CFB05F604FB0CFC16EB074628
:1023600042EB174216EB0C4642EB1C421BEB0606F7
:1023700058EB0202414146EA9E0601D5BDE80189BB
:10238000B619524141EB0101A3F10103BDE80189F6
:102390004FEA14454FEA114724EA054621EA074C63
:1023A00005FB07F406FB07F70CFB06F105FB0CFC2D
:1023B00011EB074144EB17444FEA124711EB0C4174
:1023C00044EB1C4422EA074C05FB07F206FB07F727
:1023D0000CFB06F605FB0CFC16EB074642EB17421E
:1023E00016EB0C4642EB1C456A1854F1000148BF3D
:1023F0007047B619524141EB0101A3F10103704747
:1024000095F0000F37D04FEA11424FEA144721EA06
:10241000024624EA074C02FB07F106FB07F70CFB18
:1024200006F402FB0CFC14EB074441EB17414FEAA6
:10243000154714EB0C4441EB1C4125EA074C02FB09
:1024400007F506FB07F70CFB06F602FB0CFC16EB88
:10245000074645EB174516EB0C4645EB1C42121997
:1024600051F1000148BF7047B619524141EB0101DB
:10247000A3F1010370474FEA14454FEA114724EADC
:10248000054621EA074C05FB07F106FB07F70CFBA5
:1024900006F24FF0000605FB0CFC12EB074241EB85
:1024A000174112EB0C4251EB1C4148BF7047921888
:1024B00041EB0101A3F10103704700004C48806922
:1024C00040F004004A4988614A48006820F0F00062
:1024D000484908604648806940F400704449886172
:1024E0000846C06840F40070C8600846C06820F420
:1024F0000070C8600846406820F4404048600846C4
:10250000406840F4004048603B4800683B49084050
:10251000394908600846006808600846006820F4E9
:1025200080700860081D006820F00200091D086026
:102530000846006820F4602008600846006840F4FF
:10254000602008600846006840F480100860084673
:10255000006820F4006008600846006840F400004D
:10256000086025482830006820F47000224928318E
:1025700008600846006808601F480C30006820F0BA
:1025800003001D490C3108600846006840F038001F
:102590000860081F006820F4E010091F0860084662
:1025A000006840F4E0100860081F006840F0010077
:1025B000091F08600846006840F00800086000BF76
:1025C0000D48001D006800F008000028F8D10A48F6
:1025D000001D006840F004000749091D086000BFA5
:1025E0000548001D006800F004000028F8D170477D
:1025F000001002400008014004240140FFFFF000E9
:1026000039B1084A1268012383401A43054B1A6006
:1026100006E0044A1268012383409A43014B1A6082
:10262000704700000074004041B1094A12684FF43D
:10263000805383401A43064B1A6007E0044A12682D
:102640004FF4805383409A43014B1A607047000057
:102650000074004030B5002200230A4C226840F686
:10266000FE748440A243D1E900452C438D682C437D
:10267000CD6844EA050303FA00F42243014C2260CA
:1026800030BD0000007400400021016041608160A5
:10269000C160704721B1026842F00102026004E0AB
:1026A00002684FF6FE731A400260704701684FF6E9
:1026B000FE72114001600021016041608160C160D3
:1026C0004B49884208D14A490839496841F00F010D
:1026D000474A083A51608AE045491431884208D196
:1026E00043490839496841F0F001414A083A5160CC
:1026F0007DE03F492831884208D13D490839496881
:1027000041F470613A4A083A516070E038493C310E
:10271000884208D136490839496841F47041344A41
:10272000083A516063E032495031884208D130495B
:102730000839496841F470212D4A083A516056E041
:102740002B496431884208D129490839496841F444
:102750007001274A083A516049E02549783188429A
:1027600008D123490839496841F07061204A083A84
:1027700051603CE01F49884206D1011F096841F0C1
:102780000F01021F116032E01A491431884208D14A
:102790001849091F096841F0F001164A121F11601B
:1027A00025E014492831884208D11249091F0968D7
:1027B00041F470610F4A121F116018E00D493C315D
:1027C000884208D10B49091F096841F47041094A40
:1027D000121F11600BE007495031884207D10549AB
:1027E000091F096841F47021024A121F11607047E5
:1027F000080002400804024010B50022026847F6B3
:10280000F0739A430C6A8B6823430C6923434C6929
:1028100023438C692343CC6923434C6A23438C6A4A
:1028200023431A430260CB6843600B6883604B68A4
:10283000C36010BD1948806940F0040017498861E1
:102840000846C06940F00050C8611548006820F48F
:102850007020134908600846006808601148006845
:1028600040F001000F4908600846006840F002008F
:102870000860084600680860084600680860084666
:10288000006808600846006808600846006808603C
:102890000020044908310860704700000010024021
:1028A00000080140007400402DE9F047044620462E
:1028B00007F0BEFC81460F49484607F0D7FB81462A
:1028C0004FF08B41484607F0FBFC824607F034FB93
:1028D00007464FF06632084B06F0ACFE054606F0A0
:1028E000BBFD8146484607F083FC04490860BDE80B
:1028F000F087000000007A4466660A4008740040D1
:102900002DE9F04102460025002600200023002486
:10291000002791F803C00CF00F0591F803C00CF0EC
:10292000100CBCF1000F03D091F802C04CEA050571
:1029300091F800C0BCF1000F31D0146800202BE0EA
:102940004FF0010C0CFA00F3B1F800C00CEA0306DA
:102950009E4220D183004FF00F0C0CFA03F7BC43CA
:1029600005FA03FC4CEA040491F803C0BCF1280FFB
:1029700006D14FF0010C0CFA00FCC2F814C00AE0BA
:1029800091F803C0BCF1480F05D14FF0010C0CFACF
:1029900000FCC2F810C0401C0828D1D31460B1F864
:1029A00000C0BCF1FF0F34DD546800202EE000F1C0
:1029B000080C4FF0010808FA0CF3B1F800C00CEA5B
:1029C00003069E4221D183004FF00F0C0CFA03F74F
:1029D000BC4305FA03FC4CEA040491F803C0BCF1C3
:1029E000280F05D100F1080C08FA0CF8C2F8148081
:1029F00091F803C0BCF1480F07D100F1080C4FF06B
:102A0000010808FA0CF8C2F81080401C0828CED340
:102A10005460BDE8F08101617047000001460F4835
:102A2000006820F01F000D4A10601046006808433F
:102A300010600A482C38006840F48000074A2C3A9D
:102A4000106000BF05483438006800F0020000281C
:102A5000F8D002481830006880B270473424014032
:102A60002DE9F04107460C460025002608E03846CF
:102A7000FFF7D4FF0544052005F03CF9701CC6B2F1
:102A8000A642F4DBB5FBF4F080B2BDE8F0810000B3
:102A90001548806940F00400134988610846806940
:102AA00040F0400088611148006820F00F000F4995
:102AB00008600846006840F0080008600C4800689C
:102AC0000C4908400A490860084600680A4908435A
:102AD0000749086006480C30006840F01C000449B3
:102AE0000C310860704700000010024000080140EF
:102AF00000180140FF00F0FF0088080070B5044690
:102B0000002617480588408845431548808846F6C2
:102B10000401884216D112488079012812D1002080
:102B20000F4988712A2048812B208881002108467E
:102B300003F062FF01200A4988712B2048812A2076
:102B4000888103E00021084603F056FF04F05AF99B
:102B5000002602E003480480761CAE42FAD370BD22
:102B6000580200200008006C10B50446002C66D105
:102B70006C498871F02008804FF4A07048800846A6
:102B8000808849F2413188420BD06648808846F6F9
:102B90000401884205D06348808845F2103188429C
:102BA0001AD12C205F4908812A2048812B20888156
:102BB0000846808846F60401884205D05948808836
:102BC00045F21031884206D14FF4A0705549088073
:102BD0004FF4F0704880A1E05248808845F21051CF
:102BE000884210D14FF430504E4908814FF428509C
:102BF00048814FF42C5088814FF4F07008804FF4D6
:102C0000487048808AE04748808841F663118842CE
:102C10000DD12C20434908812B2048812A2088810E
:102C20004FF4F07008804FF44870488076E022201E
:102C30003C49088120204881212088816EE00120C4
:102C4000384988714FF4A0700880F0204880084609
:102C5000808849F24131884205D03248808845F267
:102C60001031884207D12C202E4908812A20488122
:102C70002B2088813FE02B48808846F6040188425B
:102C800007D12C20274908812B2048812A208881C0
:102C900031E02448808845F21051884210D14FF429
:102CA0003050204908814FF4285048814FF42C506F
:102CB00088814FF4487008804FF4F07048801AE023
:102CC0001848808841F6631188420DD12C2015499F
:102CD00008812A2048812B2088814FF44870088081
:102CE0004FF4F070488006E022200E490881212030
:102CF0004881202088810B48808846F6040188425C
:102D000005D00848808845F21031884206D14FF43A
:102D1000F070044908804FF4A0704880002003F050
:102D2000F5FC10BD5802002030B503460C46154690
:102D30005A48808849F24131884205D057488088F6
:102D400045F21031884214D15449488904F054F8AE
:102D5000181204F04BF8D8B204F048F84F498889AB
:102D600004F04AF8201204F041F8E0B204F03EF812
:102D70008CE04A48808845F21051884220D147496A
:102D8000488904F039F8181204F030F843494989A9
:102D9000491C88B204F030F8D8B204F027F83F4953
:102DA000888904F029F8201204F020F83B49898929
:102DB000491C88B204F020F8E0B204F017F865E08E
:102DC0003648808841F66311884228D1334880799B
:102DD00020B932480088401EC01A83B22F49488962
:102DE00004F00AF8181204F001F8D8B203F0FEFF5C
:102DF000181203F0FBFFD8B203F0F8FF27498889C7
:102E000003F0FAFF201203F0F1FFE0B203F0EEFF4F
:102E1000201203F0EBFFE0B203F0E8FF36E01F48BA
:102E2000808846F6040188421DD11C48807901281B
:102E300004D11A480088401EC01A83B21749488935
:102E400003F0DAFF181203F0D1FFD8B203F0CEFF7F
:102E50001249888903F0D0FF201203F0C7FFE0B2C7
:102E600003F0C4FF12E00D488079012804D10B481B
:102E70000088401EC01A83B208494889194603F0E9
:102E8000CBFF06498889214603F0C6FF0348008925
:102E900003490880881C058030BD000058020020CE
:102EA000FE07006C10B5FD48406940F48070FB4996
:102EB00048610846806940F00800886108468069DA
:102EC00040F0200088610846806940F04000886139
:102ED0000846806940F480708861F148006820F0FD
:102EE0000F00EF4908600846006840F003000860E2
:102EF000EC480068EC490840EA4908600846006868
:102F0000EA490843E7490860081F006800F0FF200D
:102F1000091F08600846006840F0BB100860E448DC
:102F200000680020E24908600846006840F0BB30B5
:102F30000860081F006820F07040091F08600846FC
:102F4000006840F030400860DA48406820F47020A3
:102F5000D84948600846406840F430204860084638
:102F6000006820F00F0008600846006840F00B0081
:102F7000086000204FF020418861C861CE49086098
:102F80004FF02040806940F480504FF0204188612C
:102F90000846806940F4804088610846806940F0B6
:102FA000100088610846C069C8610846C06940F0E1
:102FB0000100C8610846C06940F47060C861BE483D
:102FC0000068C1F81C01BC480068C1F81C01084633
:102FD000D0F81C0140F44070C1F81C01084680691B
:102FE00040F001008861322004F084FE002003F0EC
:102FF00057FBB249888008468088FF280ADB0846CC
:1030000080884FF6FF71884204D0AC488088B0F5C4
:10301000134F7CD1D32003F0EFFE03F037FBA74919
:10302000888003F033FBA549888003F02FFBA34978
:103030008880084680884FF6FF7101EA00209F498A
:10304000888003F023FB9D49898808439B49888039
:103050000846808849F24131884258D0BF2003F0A9
:10306000CBFE03F013FB9549888003F00FFB9349D7
:10307000888003F00BFB9149888003F007FB8F49A0
:103080008880084680884FF6FF7101EA00208B494E
:10309000888003F0FBFA894989880843874988803A
:1030A0000846808846F6040188427AD0D42003F08E
:1030B000A3FE03F0EBFA8149888003F0E7FA7F4929
:1030C000888003F0E3FA7D498880084680884FF6BF
:1030D000FF7101EA00207949888003F0D7FA774927
:1030E00089880843754988800846808845F21031F0
:1030F000884256D04FF45A4003F07EFE03F0C6FAE1
:103100006E4988804FF45B4003F076FE00E048E0B3
:1031100003F0BCFA69498880084680884FF6FF7141
:1031200001EA0020654988804FF45C4003F064FEAA
:1031300003F0ACFA614989880843604988800846F1
:103140008088B0F5004F02D145F2105088805B486E
:10315000808845F21051884223D0A12003F04CFE14
:1031600003F094FA5549888003F090FA5349888017
:10317000084680884FF6FF7101EA00204F49888099
:1031800003F084FA4D49898808434C4988800846F1
:10319000808845F26171884203D141F66310474946
:1031A00088804648818846A0FDF76EF843488088AD
:1031B00049F24131884270D1CF2003F01DFE00203A
:1031C00003F014FEC12003F011FE302003F00EFEC8
:1031D000ED2003F011FE642003F008FE032003F04D
:1031E00005FE122003F002FE812003F0FFFDE8201F
:1031F00003F002FE852003F0F9FD102003F0F6FD38
:103200007A2003F0F3FDCB2003F0F6FD392003F024
:10321000EDFD2C2003F0EAFD002003F0E7FD342053
:1032200003F0E4FD022003F0E1FDF72003F0E4FDEC
:10323000202003F0DBFDEA2003F0DEFD002003F098
:10324000D5FD002003F0D2FDC02003F0D5FD1B20EA
:1032500003F0CCFDC12003F0CFFD012003F0C6FD3B
:10326000C52003F0C9FD302003F0C0FD302003F07D
:10327000BDFDC72003F0C0FDB72003F0B7FD362029
:1032800003F0BAFD482003F0B1FD3A2003F0B4FD8D
:10329000552003F0ABFDB1201AE0BFE00010024062
:1032A000000C01400414014000F0FF00BB0B00BB08
:1032B00004180140002001401C0100A05802002019
:1032C000204C43442049443A25780D0A0000000070
:1032D00003F092FD002003F089FD1A2003F086FD23
:1032E000B62003F089FD0A2003F080FDA22003F040
:1032F0007DFDF22003F080FD002003F077FD262005
:1033000003F07AFD012003F071FDE02003F074FD6D
:103310000F2003F06BFD2A2003F068FD282003F046
:1033200065FD082003F062FD0E2003F05FFD08201C
:1033300003F05CFD542003F059FDA92003F056FD75
:10334000432003F053FD0A2003F050FD0F2003F04B
:103350004DFD002003F04AFD002003F047FD002052
:1033600003F044FD002003F041FDE12003F044FDA3
:10337000002003F03BFD152003F038FD172003F07B
:1033800035FD072003F032FD112003F02FFD06204C
:1033900003F02CFD2B2003F029FD562003F026FD21
:1033A0003C2003F023FD052003F020FD102003F056
:1033B0001DFD0F2003F01AFD3F2003F017FD3F20F5
:1033C00003F014FD0F2003F011FD2B2003F014FD7A
:1033D000002003F00BFD002003F008FD012003F0A6
:1033E00005FD3F2003F002FD2A2003F005FD00202B
:1033F00003F0FCFC002003F0F9FC002003F0F6FCD5
:10340000EF2003F0F3FC112003F0F6FC782004F029
:1034100071FC292003F0F0FC03F01DB9FE48808800
:1034200046F6040188427CD1112003F0E5FC14200B
:1034300004F060FCD02003F0DFFC072003F0D6FC92
:10344000422003F0D3FC1D2003F0D0FCD12003F078
:10345000D3FC002003F0CAFC1A2003F0C7FC0920AB
:1034600003F0C4FCD22003F0C7FC012003F0BEFC33
:10347000222003F0BBFCC02003F0BEFC102003F0B0
:10348000B5FC3B2003F0B2FC002003F0AFFC0220AF
:1034900003F0ACFC112003F0A9FCC52003F0ACFC48
:1034A000032003F0A3FCC82003F0A6FC002003F0D7
:1034B0009DFC252003F09AFC212003F097FC0520B9
:1034C00003F094FC002003F091FC0A2003F08EFC32
:1034D000652003F08BFC252003F088FC772003F0A7
:1034E00085FC502003F082FC0F2003F07FFC0020BD
:1034F00003F07CFCF82003F07FFC012003F076FC55
:10350000FE2003F079FC002003F070FC022003F0A1
:103510006DFC202003F070FC362003F06DFC0820C9
:1035200000E02CE003F062FC3A2003F065FC55203B
:1035300003F05CFC2B2003F05FFC002003F056FC42
:10354000002003F053FC012003F050FC3F2003F067
:103550004DFC2A2003F050FC002003F047FC002023
:1035600003F044FC012003F041FCDF2003F03EFCAB
:10357000782004F0BFFB292003F03EFC4CE7A6486E
:10358000808845F21031884240F07C87ED2003F0BE
:1035900033FC012003F02AFCFE2003F027FCEE2080
:1035A00003F02AFCDE2003F021FC212003F01EFCA6
:1035B000F12003F021FC012003F018FCDF2003F0D0
:1035C0001BFC102003F012FCC42003F015FC8F201C
:1035D00003F00CFCC62003F00FFC002003F006FCF7
:1035E000E22003F003FCE22003F000FCE22003F001
:1035F000FDFBBF2003F000FCAA2003F0F7FBB02086
:1036000003F0FAFB0D2003F0F1FB002003F0EEFBCA
:103610000D2003F0EBFB002003F0E8FB112003F08A
:10362000E5FB002003F0E2FB192003F0DFFB0020A4
:1036300003F0DCFB212003F0D9FB002003F0D6FBD4
:103640002D2003F0D3FB002003F0D0FB3D2003F03E
:10365000CDFB002003F0CAFB5D2003F0C7FB002078
:1036600003F0C4FB5D2003F0C1FB002003F0BEFBB0
:10367000B12003F0C1FB802003F0B8FB002003F071
:10368000B5FB8B2003F0B2FB002003F0AFFB9620CC
:1036900003F0ACFB002003F0A9FBB22003F0ACFB6D
:1036A000002003F0A3FB002003F0A0FB022003F0A6
:1036B0009DFB002003F09AFB032003F097FB002002
:1036C00003F094FBB32003F097FB002003F08EFB84
:1036D000002003F08BFB002003F088FB002003F0A8
:1036E00085FB002003F082FB002003F07FFB00201D
:1036F00003F07CFB002003F079FB002003F076FB55
:10370000002003F073FB002003F070FB002003F0A7
:103710006DFB002003F06AFB002003F067FB002034
:1037200003F064FB002003F061FB002003F05EFB6C
:10373000002003F05BFB002003F058FB002003F0A7
:1037400055FB002003F052FB002003F04FFB00204C
:1037500003F04CFB002003F049FBB42003F04CFBCA
:103760008B2003F043FB002003F040FB962003F086
:103770003DFB002003F03AFBA12003F037FB0020C3
:1037800003F034FBB52003F037FB022003F02EFBDF
:10379000002003F02BFB032003F028FB002003F0A4
:1037A00025FB042003F022FB002003F01FFBB620C2
:1037B00003F022FB002003F019FB002003F016FBAE
:1037C000B72003F019FB002003F010FB002003F0EA
:1037D0000DFB3F2003F00AFB002003F007FB5E20F7
:1037E00003F004FB002003F001FB642003F0FEFA69
:1037F000002003F0FBFA8C2003F0F8FA002003F01D
:10380000F5FAAC2003F0F2FA002003F0EFFADC2026
:1038100003F0ECFA002001E05802002003F0E6FA81
:10382000702003F0E3FA002003F0E0FA902003F0A8
:10383000DDFA002003F0DAFAEB2003F0D7FA0020DB
:1038400003F0D4FADC2003F0D1FA002003F0CEFA22
:10385000B82003F0D1FA002003F0C8FA002003F0EA
:10386000C5FA002003F0C2FA002003F0BFFA0020DE
:1038700003F0BCFA002003F0B9FA002003F0B6FA16
:10388000002003F0B3FABA2003F0B6FA242003F0C4
:10389000ADFA002003F0AAFA002003F0A7FA0020F6
:1038A00003F0A4FAC12003F0A7FA202003F09EFA47
:1038B000002003F09BFA542003F098FA002003F054
:1038C00095FAFF2003F092FA002003F08FFAC2204D
:1038D00003F092FA0A2003F089FA002003F086FA36
:1038E000042003F083FA002003F080FAC32003F0E1
:1038F00083FA3C2003F07AFA002003F077FA3A20AA
:1039000003F074FA002003F071FA392003F06EFA24
:10391000002003F06BFA372003F068FA002003F070
:1039200065FA3C2003F062FA002003F05FFA3620CB
:1039300003F05CFA002003F059FA322003F056FA43
:10394000002003F053FA2F2003F050FA002003F078
:103950004DFA2C2003F04AFA002003F047FA292000
:1039600003F044FA002003F041FA262003F03EFA67
:10397000002003F03BFA242003F038FA002003F083
:1039800035FA242003F032FA002003F02FFA232026
:1039900003F02CFA002003F029FA3C2003F026FA69
:1039A000002003F023FA362003F020FA002003F071
:1039B0001DFA322003F01AFA002003F017FA2F2024
:1039C00003F014FA002003F011FA2C2003F00EFA91
:1039D000002003F00BFA292003F008FA002003F07E
:1039E00005FA262003F002FA002003F0FFF9242054
:1039F00003F0FCF9002003F0F9F9242003F0F6F9B4
:103A0000002003F0F3F9232003F0F0F9002003F085
:103A1000EDF9C42003F0F0F9622003F0E7F900208B
:103A200003F0E4F9052003F0E1F9002003F0DEF9EA
:103A3000842003F0DBF9002003F0D8F9F02003F034
:103A4000D5F9002003F0D2F9182003F0CFF90020B7
:103A500003F0CCF9A42003F0C9F9002003F0C6F963
:103A6000182003F0C3F9002003F0C0F9502003F040
:103A7000BDF9002003F0BAF90C2003F0B7F90020DB
:103A800003F0B4F9172003F0B1F9002003F0AEF908
:103A9000952003F0ABF9002003F0A8F9F32003F020
:103AA000A5F9002003F0A2F9E62003F09FF9002019
:103AB00003F09CF9C52003F09FF9322003F096F93A
:103AC000002003F093F9442003F090F9002003F064
:103AD0008DF9652003F08AF9002003F087F976203C
:103AE00003F084F9002003F081F9882003F07EF9C7
:103AF000002003F07BF9C62003F07EF9202003F0BC
:103B000075F9002003F072F9172003F06FF9002017
:103B100003F06CF9012003F069F9002003F066F965
:103B2000C72003F069F9002003F060F9002003F0DA
:103B30005DF9002003F05AF9002003F057F9C8207E
:103B400003F05AF9002003F051F9002003F04EF978
:103B5000002003F04BF9002003F048F9C92003F0DE
:103B60004BF9002003F042F9002003F03FF9002058
:103B700003F03CF9002003F039F9002003F036F996
:103B8000002003F033F9002003F030F9002003F0A7
:103B90002DF9002003F02AF9002003F027F9002076
:103BA00003F024F9002003F021F9002003F01EF9AE
:103BB000002003F01BF9002003F018F9002003F0A7
:103BC00015F9E02003F018F9162003F00FF9002092
:103BD00003F00CF91C2003F009F9002003F006F9AA
:103BE000212003F003F9002003F000F9362003F050
:103BF000FDF8002003F0FAF8462003F0F7F8002063
:103C000003F0F4F8522003F0F1F8002003F0EEF88E
:103C1000642003F0EBF8002003F0E8F87A2003F0CA
:103C2000E5F8002003F0E2F88B2003F0DFF8002035
:103C300003F0DCF8992003F0D9F8002003F0D6F85F
:103C4000A82003F0D3F8002003F0D0F8B92003F047
:103C5000CDF8002003F0CAF8C42003F0C7F8002014
:103C600003F0C4F8CA2003F0C1F8002003F0BEF846
:103C7000D22003F0BBF8002003F0B8F8D92003F0FD
:103C8000B5F8002003F0B2F8E02003F0AFF8002010
:103C900003F0ACF8F32003F0A9F8002003F0A6F835
:103CA000E12003F0A9F8162003F0A0F8002003F0AB
:103CB0009DF81C2003F09AF8002003F097F82220CA
:103CC00003F094F8002003F091F8362003F08EF80A
:103CD000002003F08BF8452003F088F8002003F063
:103CE00085F8522003F082F8002003F07FF864206A
:103CF00003F07CF8002003F079F87A2003F076F8DE
:103D0000002003F073F88B2003F070F8002003F01C
:103D10006DF8992003F06AF8002003F067F8A820F6
:103D200003F064F8002003F061F8B92003F05EF8B6
:103D3000002003F05BF8C42003F058F8002003F0E3
:103D400055F8CA2003F052F8002003F04FF8D220B3
:103D500003F04CF8002003F049F8D82003F046F8AF
:103D6000002003F043F8E02003F040F8002003F0C7
:103D70003DF8F32003F03AF8002003F037F8E22092
:103D800003F03AF8052003F031F8002003F02EF894
:103D90000B2003F02BF8002003F028F81B2003F081
:103DA00025F8002003F022F8342003F01FF800204B
:103DB00003F01CF8442003F019F8002003F016F873
:103DC0004F2003F013F8002003F010F8612003F0F7
:103DD0000DF8002003F00AF8792003F007F800201E
:103DE00003F004F8882003F001F8002002F0FEFF41
:103DF000972002F0FBFF002002F0F8FFA62002F05F
:103E0000F5FF002002F0F2FFB72002F0EFFF0020E4
:103E100002F0ECFFC22002F0E9FF002002F0E6FF12
:103E2000C72002F0E3FF002002F0E0FFD12002F003
:103E3000DDFF002002F0DAFFD62002F0D7FF0020DD
:103E400002F0D4FFDD2002F0D1FF002002F0CEFF0F
:103E5000F32002F0CBFF002002F0C8FFE32002F0C5
:103E6000CBFF052002F0C2FF002002F0BFFF0A20B6
:103E700002F0BCFF002002F0B9FF1C2002F0B6FFE8
:103E8000002002F0B3FF332002F0B0FF002002F068
:103E9000ADFF442002F0AAFF002002F0A7FF50204F
:103EA00002F0A4FF002002F0A1FF622002F09EFFBA
:103EB000002002F09BFF782002F098FF002002F023
:103EC00095FF882002F092FF002002F08FFF9720DC
:103ED00002F08CFF002002F089FFA62002F086FF8E
:103EE000002002F083FFB72002F080FF002002F0E4
:103EF0007DFFC22002F07AFF002002F077FFC7208A
:103F000002F074FF002002F071FFD12002F06EFF7A
:103F1000002002F06BFFD52002F068FF002002F0C5
:103F200065FFDD2002F062FF002002F05FFFF3205A
:103F300002F05CFF002002F059FFE42002F05CFF79
:103F4000012002F053FF002002F050FF012002F098
:103F50004DFF002002F04AFF022002F047FF002040
:103F600002F044FF2A2002F041FF002002F03EFF51
:103F70003C2002F03BFF002002F038FF4B2002F013
:103F800035FF002002F032FF5D2002F02FFF0020FD
:103F900002F02CFF742002F029FF002002F026FF1F
:103FA000842002F023FF002002F020FF932002F083
:103FB0001DFF002002F01AFFA22002F017FF0020D0
:103FC00002F014FFB32002F011FF002002F00EFFF8
:103FD000BE2002F00BFF002002F008FFC42002F018
:103FE00005FF002002F002FFCD2002F0FFFE0020BE
:103FF00002F0FCFED32002F0F9FE002002F0F6FEF3
:10400000DD2002F0F3FE002002F0F0FEF32002F0CB
:10401000EDFE002002F0EAFEE52002F0EDFE0020B9
:1040200002F0E4FE002002F0E1FE002002F0DEFEDD
:10403000002002F0DBFE022002F0D8FE002002F099
:10404000D5FE292002F0D2FE002002F0CFFE3C2057
:1040500002F0CCFE002002F0C9FE4B2002F0C6FEAA
:10406000002002F0C3FE5D2002F0C0FE002002F03E
:10407000BDFE742002F0BAFE002002F0B7FE8420DC
:1040800002F0B4FE002002F0B1FE932002F0AEFE7A
:10409000002002F0ABFEA22002F0A8FE002002F0F9
:1040A000A5FEB32002F0A2FE002002F09FFEBE207B
:1040B00002F09CFE002002F099FEC42002F096FE61
:1040C000002002F093FECD2002F090FE002002F0CE
:1040D0008DFED32002F08AFE002002F087FEDC2055
:1040E00002F084FE002002F081FEF32002F07EFE4A
:1040F000002002F07BFEE62002F07EFE112002F09E
:1041000075FE002002F072FE342002F06FFE0020E7
:1041100002F06CFE562002F069FE002002F066FEFE
:10412000762002F063FE002002F060FE772002F0AD
:104130005DFE002002F05AFE662002F057FE0020CD
:1041400002F054FE882002F051FE002002F04EFEE4
:10415000992002F04BFE002002F048FEBB2002F046
:1041600045FE002002F042FE992002F03FFE0020B2
:1041700002F03CFE662002F039FE002002F036FE1E
:10418000552002F033FE002002F030FE552002F0F0
:104190002DFE002002F02AFE452002F027FE00201E
:1041A00002F024FE432002F021FE002002F01EFE59
:1041B000442002F01BFE002002F018FEE72002F06F
:1041C0001BFE322002F012FE002002F00FFE5520EE
:1041D00002F00CFE002002F009FE762002F006FE3E
:1041E000002002F003FE662002F000FE002002F034
:1041F000FDFD672002F0FAFD002002F0F7FD6720C8
:1042000002F0F4FD002002F0F1FD872002F0EEFD47
:10421000002002F0EBFD992002F0E8FD002002F002
:10422000E5FDBB2002F0E2FD002002F0DFFD992059
:1042300002F0DCFD002002F0D9FD772002F0D6FD6F
:10424000002002F0D3FD442002F0D0FD002002F057
:10425000CDFD562002F0CAFD002002F0C7FD23204C
:1042600002F0C4FD002002F0C1FD332002F0BEFDCB
:10427000002002F0BBFD452002F0B8FD002002F056
:10428000B5FDE82002F0B8FD002002F0AFFD0020EF
:1042900002F0ACFD992002F0A9FD002002F0A6FD7D
:1042A000872002F0A3FD002002F0A0FD882002F08C
:1042B0009DFD002002F09AFD772002F097FD00207E
:1042C00002F094FD662002F091FD002002F08EFDC8
:1042D000882002F08BFD002002F088FDAA2002F069
:1042E00085FD002002F082FDBB2002F07FFD002052
:1042F00002F07CFD992002F079FD002002F076FDAD
:10430000662002F073FD002002F070FD552002F0DF
:104310006DFD002002F06AFD552002F067FD0020CF
:1043200002F064FD442002F061FD002002F05EFD19
:10433000442002F05BFD002002F058FD552002F001
:1043400055FD002002F052FDE92002F055FDAA20A3
:1043500002F04CFD002002F049FD002002F046FD75
:10436000002002F043FD002002F046FDAA2002F0EA
:104370003DFDCF2002F040FD002002F037FD00207F
:1043800002F034FD002002F031FD002002F02EFD8D
:10439000002002F02BFD002002F028FD002002F09A
:1043A00025FD002002F022FD002002F01FFD00206C
:1043B00002F01CFD002002F019FD002002F016FDA5
:1043C000002002F013FD002002F010FD002002F09A
:1043D0000DFD002002F00AFD002002F007FDF02094
:1043E00002F00AFD002002F001FD502002F0FEFC68
:1043F000002002F0FBFC002002F0F8FC002002F09C
:10440000F5FCF32002F0F8FC002002F0EFFCF920AC
:1044100002F0F2FC062002F0E9FC102002F0E6FCBB
:10442000292002F0E3FC002002F0E0FC3A2002F038
:10443000E3FC552002F0DAFC112002F0DDFC6420E0
:1044400003F058FC292002F0D7FC352002F0D4FC00
:10445000002002F0CBFC512002F0CEFCFF2002F045
:10446000C5FC532002F0C8FC2C2002F0BFFC5520F4
:1044700002F0C2FC822002F0B9FC2C2002F0BCFC4D
:1044800002F0E9B8FE48808845F2105188427DD19B
:1044900055214FF4704002F0BFFCAA214FF20100F9
:1044A00002F0BAFC52214FF2020002F0B5FC0821E2
:1044B0004FF2030002F0B0FC01214FF2040002F0C1
:1044C000ABFC0D214FF4304002F0A6FC0D214BF265
:1044D000010002F0A1FC0D214BF2020002F09CFC55
:1044E00034214FF4364002F097FC34214BF2016046
:1044F00002F092FC34214BF2026002F08DFC0D219F
:104500004FF4314002F088FC0D214BF2011002F013
:1045100083FC0D214BF2021002F07EFC34214FF49B
:10452000374002F079FC34214BF2017002F074FC48
:1045300034214BF2027002F06FFC00214FF4324044
:1045400002F06AFC00214BF2012002F065FC002120
:104550004BF2022002F060FC24214FF4384002F0BC
:104560005BFC24214BF6010002F056FC24214BF6A3
:10457000020002F051FC01214FF43F4002F04CFCDC
:104580000F214FF4334002F047FC00E0FDE30F2120
:104590004BF2013002F040FC0F214BF2023002F0EE
:1045A0003BFC34214FF4394002F036FC34214BF609
:1045B000011002F031FC34214BF6021002F02CFC09
:1045C00008214FF4354002F027FC08214BF201503E
:1045D00002F022FC08214BF2025002F01DFC0321E4
:1045E0004FF4424002F018FC24214FF43A4002F00C
:1045F00013FC24214BF6012002F00EFC24214BF683
:10460000022002F009FC00214FF43C4002F004FCBF
:1046100078214BF6014002F0FFFB00214BF60240EF
:1046200002F0FAFB00214FF43D4002F0F5FB782147
:104630004BF6015002F0F0FB00214BF6025002F065
:10464000EBFB00214FF43E4002F0E6FB64214BF609
:10465000016002F0E1FB00214FF4514002F0DCFB6D
:1046600033214DF2011002F0D7FB00214DF2021070
:1046700002F0D2FB34214DF2031002F0CDFB0021F9
:104680004DF2041002F0C8FB3A214DF2051002F081
:10469000C3FB00214DF2061002F0BEFB4A214DF291
:1046A000071002F0B9FB00214DF2081002F0B4FB34
:1046B0005C214DF2091002F0AFFB00214DF20A100F
:1046C00002F0AAFB81214DF20B1002F0A5FB0021A4
:1046D0004DF20C1002F0A0FBA6214DF20D1002F0DD
:1046E0009BFB00214DF20E1002F096FBE5214DF2EE
:1046F0000F1002F091FB01214DF2101002F08CFB23
:1047000013214DF2111002F087FB01214DF212101E
:1047100002F082FB54214DF2131002F07DFB0121C7
:104720004DF2141002F078FB82214DF2151002F0C8
:1047300073FB01214DF2161002F06EFBCA214DF2FF
:10474000171002F069FB02214DF2181002F064FB11
:1047500000214DF2191002F05FFB02214DF21A10F8
:1047600002F05AFB01214DF21B1002F055FB022111
:104770004DF21C1002F050FB34214DF21D1002F0DE
:104780004BFB02214DF21E1002F046FB67214DF259
:104790001F1002F041FB02214DF2201002F03CFB01
:1047A00084214DF2211002F037FB02214DF222103C
:1047B00002F032FBA4214DF2231002F02DFB022166
:1047C0004DF2241002F028FBB7214DF2251002F023
:1047D00023FB02214DF2261002F01EFBCF214DF2E9
:1047E000271002F019FB02214DF2281002F014FBF1
:1047F000DE214DF2291002F00FFB02214DF22A10AA
:1048000002F00AFBF2214DF22B1002F005FB02210F
:104810004DF22C1002F000FBFE214DF22D1002F0A3
:10482000FBFA03214DF22E1002F0F6FA10214DF2A0
:104830002F1002F0F1FA03214DF2301002F0ECFAE1
:1048400033214DF2311002F0E7FA03214DF232101C
:1048500002F0E2FA6D214DF2331002F0DDFA002190
:104860004FF4524002F0D8FA33214DF2012002F009
:10487000D3FA00214DF2022002F0CEFA342101E0F9
:10488000580200204DF2032002F0C6FA00214DF23A
:10489000042002F0C1FA3A214DF2052002F0BCFAE0
:1048A00000214DF2062002F0B7FA4A214DF207200E
:1048B00002F0B2FA00214DF2082002F0ADFA5C21BC
:1048C0004DF2092002F0A8FA00214DF20A2002F070
:1048D000A3FA81214DF20B2002F09EFA00214DF245
:1048E0000C2002F099FAA6214DF20D2002F094FA64
:1048F00000214DF20E2002F08FFAE5214DF20F203B
:1049000002F08AFA01214DF2102002F085FA1321FB
:104910004DF2112002F080FA01214DF2122002F036
:104920007BFA54214DF2132002F076FA01214DF268
:10493000142002F071FA82214DF2152002F06CFA77
:1049400001214DF2162002F067FACA214DF217201C
:1049500002F062FA02214DF2182002F05DFA002105
:104960004DF2192002F058FA02214DF21A2002F0FD
:1049700053FA01214DF21B2002F04EFA02214DF2B2
:104980001C2002F049FA34214DF21D2002F044FAB5
:1049900002214DF21E2002F03FFA67214DF21F2046
:1049A00002F03AFA02214DF2202002F035FA842179
:1049B0004DF2212002F030FA02214DF2222002F0C5
:1049C0002BFAA4214DF2232002F026FA02214DF207
:1049D000242002F021FAB7214DF2252002F01CFA22
:1049E00002214DF2262002F017FACF214DF22720A6
:1049F00002F012FA02214DF2282002F00DFADE2117
:104A00004DF2292002F008FA02214DF22A2002F08C
:104A100003FAF2214DF22B2002F0FEF902214DF2B1
:104A20002C2002F0F9F9FE214DF22D2002F0F4F9CC
:104A300003214DF22E2002F0EFF910214DF22F202C
:104A400002F0EAF903214DF2302002F0E5F93321BA
:104A50004DF2312002F0E0F903214DF2322002F054
:104A6000DBF96D214DF2332002F0D6F900214FF42D
:104A7000534002F0D1F933214DF2013002F0CCF96C
:104A800000214DF2023002F0C7F934214DF203301B
:104A900002F0C2F900214DF2043002F0BDF93A21D2
:104AA0004DF2053002F0B8F900214DF2063002F067
:104AB000B3F94A214DF2073002F0AEF900214DF270
:104AC000083002F0A9F95C214DF2093002F0A4F996
:104AD00000214DF20A3002F09FF981214DF20B3096
:104AE00002F09AF900214DF20C3002F095F9A6215E
:104AF0004DF20D3002F090F900214DF20E3002F02F
:104B00008BF9E5214DF20F3002F086F901214DF2CB
:104B1000103002F081F913214DF2113002F07CF9CE
:104B200001214DF2123002F077F954214DF2133089
:104B300002F072F901214DF2143002F06DF9822178
:104B40004DF2153002F068F901214DF2163002F0F5
:104B500063F9CA214DF2173002F05EF902214DF2DD
:104B6000183002F059F900214DF2193002F054F9D1
:104B700002214DF21A3002F04FF901214DF21B30A3
:104B800002F04AF902214DF21C3002F045F93421BD
:104B90004DF21D3002F040F902214DF21E3002F0BC
:104BA0003BF967214DF21F3002F036F902214DF238
:104BB000203002F031F984214DF2213002F02CF93D
:104BC00002214DF2223002F027F9A4214DF22330C8
:104BD00002F022F902214DF2243002F01DF9B72132
:104BE0004DF2253002F018F902214DF2263002F084
:104BF00013F9CF214DF2273002F00EF902214DF2C8
:104C0000283002F009F9DE214DF2293002F004F9D2
:104C100002214DF22A3002F0FFF8F2214DF22B3042
:104C200002F0FAF802214DF22C3002F0F5F8FE21E4
:104C30004DF22D3002F0F0F803214DF22E3002F04B
:104C4000EBF810214DF22F3002F0E6F803214DF27F
:104C5000303002F0E1F833214DF2313002F0DCF86F
:104C600003214DF2323002F0D7F86D214DF233308E
:104C700002F0D2F800214FF4544002F0CDF8332175
:104C80004DF2014002F0C8F800214DF2024002F05E
:104C9000C3F834214DF2034002F0BEF800214DF27A
:104CA000044002F0B9F83A214DF2054002F0B4F8A0
:104CB00000214DF2064002F0AFF84A214DF20740C4
:104CC00002F0AAF800214DF2084002F0A5F85C219C
:104CD0004DF2094002F0A0F800214DF20A4002F026
:104CE0009BF881214DF20B4002F096F800214DF225
:104CF0000C4002F091F8A6214DF20D4002F08CF824
:104D000000214DF20E4002F087F8E5214DF20F40F0
:104D100002F082F801214DF2104002F07DF81321DB
:104D20004DF2114002F078F801214DF2124002F0EC
:104D300073F854214DF2134002F06EF801214DF248
:104D4000144002F069F882214DF2154002F064F837
:104D500001214DF2164002F05FF8CA214DF21740D2
:104D600002F05AF802214DF2184002F055F80021E5
:104D70004DF2194002F050F802214DF21A4002F0B3
:104D80004BF801214DF21B4000E006E302F044F82D
:104D900002214DF21C4002F03FF834214DF21D403B
:104DA00002F03AF802214DF21E4002F035F8672178
:104DB0004DF21F4002F030F802214DF2204002F087
:104DC0002BF884214DF2214002F026F802214DF209
:104DD000224002F021F8A4214DF2234002F01CF8F9
:104DE00002214DF2244002F017F8B7214DF2254080
:104DF00002F012F802214DF2264002F00DF8CF2108
:104E00004DF2274002F008F802214DF2284002F04E
:104E100003F8DE214DF2294001F0FEFF02214DF2A0
:104E20002A4001F0F9FFF2214DF22B4001F0F4FF8E
:104E300002214DF22C4001F0EFFFFE214DF22D40FA
:104E400001F0EAFF03214DF22E4001F0E5FF1021B1
:104E50004DF22F4001F0E0FF03214DF2304001F010
:104E6000DBFF33214DF2314001F0D6FF03214DF23B
:104E7000324001F0D1FF6D214DF2334001F0CCFF03
:104E800000214FF4554001F0C7FF33214DF201508E
:104E900001F0C2FF00214DF2025001F0BDFF3421AC
:104EA0004DF2035001F0B8FF00214DF2045001F023
:104EB000B3FF3A214DF2055001F0AEFF00214DF253
:104EC000065001F0A9FF4A214DF2075001F0A4FF5E
:104ED00000214DF2085001F09FFF5C214DF2095076
:104EE00001F09AFF00214DF20A5001F095FF812157
:104EF0004DF20B5001F090FF00214DF20C5001F0EB
:104F00008BFFA6214DF20D5001F086FF00214DF2DE
:104F10000E5001F081FFE5214DF20F5001F07CFFB2
:104F200001214DF2105001F077FF13214DF2115085
:104F300001F072FF01214DF2125001F06DFF54217A
:104F40004DF2135001F068FF01214DF2145001F0B1
:104F500063FF82214DF2155001F05EFF01214DF2F9
:104F6000165001F059FFCA214DF2175001F054FFBD
:104F700002214DF2185001F04FFF00214DF219505F
:104F800001F04AFF02214DF21A5001F045FF0121C4
:104F90004DF21B5001F040FF02214DF21C5001F078
:104FA0003BFF34214DF21D5001F036FF02214DF23E
:104FB0001E5001F031FF67214DF21F5001F02CFF10
:104FC00002214DF2205001F027FF84214DF22150A3
:104FD00001F022FF02214DF2225001F01DFFA42119
:104FE0004DF2235001F018FF02214DF2245001F040
:104FF00013FFB7214DF2255001F00EFF02214DF2B3
:10500000265001F009FFCF214DF2275001F004FF97
:1050100002214DF2285001F0FFFEDE214DF2295011
:1050200001F0FAFE02214DF22A5001F0F5FEF221C4
:105030004DF22B5001F0F0FE02214DF22C5001F008
:10504000EBFEFE214DF22D5001F0E6FE03214DF264
:105050002E5001F0E1FE10214DF22F5001F0DCFE48
:1050600003214DF2305001F0D7FE33214DF2315083
:1050700001F0D2FE03214DF2325001F0CDFE6D2140
:105080004DF2335001F0C8FE00214FF4564001F0BC
:10509000C3FE33214DF2016001F0BEFE00214DF24E
:1050A000026001F0B9FE34214DF2036001F0B4FE5C
:1050B00000214DF2046001F0AFFE3A214DF205608F
:1050C00001F0AAFE00214DF2066001F0A5FE4A2182
:1050D0004DF2076001F0A0FE00214DF2086001F0E2
:1050E0009BFE5C214DF2096001F096FE00214DF21D
:1050F0000A6001F091FE81214DF20B6001F08CFEFF
:1051000000214DF20C6001F087FEA6214DF20D60EA
:1051100001F082FE00214DF20E6001F07DFEE521DE
:105120004DF20F6001F078FE01214DF2106001F0A8
:1051300073FE13214DF2116001F06EFE01214DF25C
:10514000126001F069FE54214DF2136001F064FE1B
:1051500001214DF2146001F05FFE82214DF21560D5
:1051600001F05AFE01214DF2166001F055FECA21F0
:105170004DF2176001F050FE02214DF2186001F06F
:105180004BFE00214DF2196001F046FE02214DF266
:105190001A6001F041FE01214DF21B6001F03CFE5E
:1051A00002214DF21C6001F037FE34214DF21D60EA
:1051B00001F032FE02214DF21E6001F02DFE67214A
:1051C0004DF21F6001F028FE02214DF2206001F037
:1051D00023FE84214DF2216001F01EFE02214DF2DA
:1051E000226001F019FEA4214DF2236001F014FEAB
:1051F00002214DF2246001F00FFEB7214DF225602F
:1052000001F00AFE02214DF2266001F005FECF21D9
:105210004DF2276001F000FE02214DF2286001F0FE
:10522000FBFDDE214DF2296001F0F6FD02214DF279
:105230002A6001F0F1FDF2214DF22B6001F0ECFD4E
:1052400002214DF22C6001F0E7FDFE214DF22D60B0
:1052500001F0E2FD03214DF22E6001F0DDFD102191
:105260004DF22F6001F0D8FD03214DF2306001F0C6
:10527000D3FD33214DF2316001F0CEFD03214DF21B
:10528000326001F0C9FD6D214DF2336001F0C4FDC3
:1052900055214FF4704001F0BFFDAA214FF20100EB
:1052A00001F0BAFD52214FF2020001F0B5FD0821D4
:1052B0004FF2030001F0B0FD00214FF2040001F0B5
:1052C000ABFDCC214FF4314001F0A6FD00214BF2A3
:1052D000011001F0A1FD05214FF4364001F09CFDC5
:1052E00070214FF4374001F097FD70214BF20170AF
:1052F00001F092FD01214FF4384001F08DFD0321B2
:105300004BF6010001F088FD03214BF6020001F08D
:1053100083FD03214BF6030001F07EFD02214FF4D3
:105320003C4001F079FD00214BF6014001F074FD95
:1053300000214BF6024001F06FFDD0214FF44940AF
:1053400001F06AFD02214CF6011001F065FD5021CB
:105350004CF6021001F060FD50214CF6031001F0F4
:105360005BFD50214CF6041001F056FD00214FF476
:10537000545001F051FD55214FF4685001F04CFD9F
:105380004FF4885001F038FD782002F0D1FC4FF442
:10539000245001F031FD01F05EB9FE48808849F2E9
:1053A000253188427ED147F6F001E52001F034FD39
:1053B0004FF48071012001F02FFD4FF4E0610220D5
:1053C00001F02AFD41F23001032001F025FD00210A
:1053D000042001F021FD40F20221082001F01CFD13
:1053E0000021092001F018FD00210A2001F014FD20
:1053F00000210C2001F010FD00210D2001F00CFD1A
:1054000000210F2001F008FD0021102001F004FD13
:105410000721112001F000FD0021122001F0FCFC09
:105420000021132001F0F8FC0021072001F0F4FC1A
:1054300041F29061102001F0EFFC40F22721112091
:1054400001F0EAFC9D21122001F0E6FC4FF4C85166
:10545000132001F0E1FC2521292001F0DDFC0D21C4
:105460002B2001F0D9FC0721302001F0D5FC40F2BF
:105470000331312001F0D0FC0321322001F0CCFCBB
:1054800040F20621352001F0C7FC0821362001F04A
:10549000C3FC40F20641372001F0BEFC4FF44171DD
:1054A000382000E057E001F0B7FC0721392001F077
:1054B000B3FC40F202613C2001F0AEFC08213D202B
:1054C00001F0AAFC0021502001F0A6FCEF215120A0
:1054D00001F0A2FC0021522001F09EFC40F23F119D
:1054E000532001F099FC4FF42741602001F094FC17
:1054F0000121612001F090FC00216A2001F08CFC68
:105500000021802001F088FC0021812001F084FC32
:105510000021822001F080FC0021832001F07CFC2E
:105520000021842001F078FC0021852001F074FC2A
:105530001021902001F070FC4FF4C061922001F026
:105540006BFC40F23311072001F066FC22210020A1
:1055500001F062FC1FE78F48808849F228318842B9
:105560007ED141F28F01EC2001F056FC41F2342152
:10557000EF2001F051FC4FF48071012001F04CFC50
:105580004FF4E061022001F047FC41F230010320BA
:1055900001F042FC0021042001F03EFC40F2022117
:1055A000082001F039FC0021092001F035FC002120
:1055B0000A2001F031FC01210C2001F02DFC00211A
:1055C0000D2001F029FC00210F2001F025FC002115
:1055D000102001F021FC0721112001F01DFC002109
:1055E000122001F019FC0021132001F015FC01210B
:1055F000072001F011FC322002F07CFB41F29041C7
:10560000102001F009FC40F22721112001F004FCD8
:10561000322002F06FFB8A21122001F0FDFB3220C4
:1056200002F068FB4FF4D051132001F0F5FB062186
:10563000292001F0F1FB0D212B2001F0EDFB3220A0
:1056400002F058FB0021202001F0E6FB0021212080
:1056500001F0E2FB322002F04DFB0021302000E09F
:1056600074E001F0D9FB40F20461312001F0D4FB79
:1056700040F20531322001F0CFFB0021352001F04E
:10568000CBFB40F60941362001F0C6FB4FF4017117
:10569000372001F0C1FB40F20131382001F0BCFBA2
:1056A00040F20771392001F0B7FB00213C2001F0E6
:1056B000B3FB40F60A213D2001F0AEFB322002F0A0
:1056C00019FB0021502001F0A7FBEF21512001F030
:1056D000A3FB0021522001F09FFB40F23F11532019
:1056E00001F09AFB4FF42741602001F095FB012166
:1056F000612001F091FB00216A2001F08DFB002167
:10570000802001F089FB0021812001F085FB002130
:10571000822001F081FB0021832001F07DFB00212C
:10572000842001F079FB0021852001F075FB102118
:10573000902001F071FB4FF4C061922001F06CFBEE
:1057400040F23311072001F067FB24E611488088FE
:1057500049F2203188427DD10021084601F05CFBEE
:105760004FF48071012001F057FB4FF4E0610220FB
:1057700001F052FB41F23001032001F04DFB00210A
:10578000042001F049FB40F20221082001F044FB13
:10579000002101E058020020092001F03DFB00211A
:1057A0000A2001F039FB01210C2001F035FB00211A
:1057B0000D2001F031FB00210F2001F02DFB3220E4
:1057C00002F098FA40F20111072001F025FB322087
:1057D00002F090FA4FF48651102001F01DFB0721D2
:1057E000112001F019FB4FF48871122001F014FB15
:1057F0004FF43061132001F00FFB0021292001F04C
:105800000BFB44F210012B2001F006FB002150207D
:1058100001F002FBEF21512001F0FEFA002152209D
:1058200001F0FAFA40F23F11532001F0F5FA4FF47B
:105830001C51602001F0F0FA0121612001F0ECFA26
:1058400000216A2001F0E8FA0021802001F0E4FA4A
:10585000002100E031E0812001F0DEFA0021822009
:1058600001F0DAFA0021832001F0D6FA0021842029
:1058700001F0D2FA0021852001F0CEFA102190200B
:1058800001F0CAFA0021922001F0C6FA012193200A
:1058900001F0C2FA4FF48871952001F0BDFA0021A1
:1058A000972001F0B9FA0021982001F0B5FA40F2F2
:1058B0007311072001F0B0FA6DE5FE48808849F2C7
:1058C000313188427DD141F21401E72001F0A4FA80
:1058D0004FF48071012001F09FFA4FF40071022013
:1058E00001F09AFA41F23801032001F095FA40F2F2
:1058F0000221082001F090FA0021092001F08CFA21
:1059000000210A2001F088FA00210C2001F084FA1D
:1059100000210D2001F080FA00210F2001F07CFA17
:105920000021102001F078FA0721112001F074FA0B
:105930000021122001F070FA0021132001F06CFA0E
:10594000C82002F0D7F941F29061102001F064FA0A
:1059500040F22721112001F05FFA322002F0CAF94B
:105960000C21122001F058FA322002F0C3F94FF452
:105970000061132001F050FA1121292001F04CFAA6
:105980000B212B2001F048FA322002F0B3F900215C
:10599000202001F041FA40F23F11212001F03CFAB1
:1059A0000021302001F038FA4FF48371312001F0EA
:1059B00033FA0021322001F02FFA4FF40171352023
:1059C00000E064E001F028FA41F20A61362001F0BB
:1059D00023FA40F20771372001F01EFA4FF4837169
:1059E000382001F019FA40F20771392001F014FA59
:1059F00040F202413C2001F00FFA40F60F413D20F9
:105A000001F00AFA0021502001F006FAEF2151209E
:105A100001F002FA0021522001F0FEF940F23F119C
:105A2000532001F0F9F94FF41C51602001F0F4F912
:105A30000121612001F0F0F900216A2001F0ECF968
:105A40000021802001F0E8F90021812001F0E4F933
:105A50000021822001F0E0F90021832001F0DCF92F
:105A60000021842001F0D8F90021852001F0D4F92B
:105A70001021902001F0D0F94FF4C061922001F084
:105A8000CBF940F23311072001F0C6F983E48948CD
:105A9000808845F2084188427ED14FF48071012010
:105AA00001F0BAF94FF4E061022001F0B5F941F2DA
:105AB0003001032001F0B0F90021042001F0ACF91D
:105AC00040F20721082001F0A7F90021092001F088
:105AD000A3F900210A2001F09FF900210C2001F018
