:020000040800F2
:1000000038070020390200083D0200083F020008BE
:1000100041020008430200084502000800000000F9
:10002000000000000000000000000000470200087F
:1000300049020008000000004B0200084D020008C1
:100040004F0200084F0200084F0200084F0200084C
:100050004F0200084F0200084F0200084F0200083C
:100060004F0200084F0200084F0200084F0200082C
:100070004F0200084F0200084F0200084F0200081C
:100080004F0200084F0200084F0200084F0200080C
:100090004F0200084F0200084F0200084F020008FC
:1000A0004F0200084F0200084F0200084F020008EC
:1000B0004F0200084F0200084F0200084F020008DC
:1000C0004F0200084F0200084F0200084F020008CC
:1000D0004F020008A52500084F0200084F02000843
:1000E0004F0200084F0200084F0200084F020008AC
:1000F0004F0200084F0200084F0200084F0200089C
:100100004F0200084F0200084F0200084F0200088B
:100110004F0200084F0200084F0200084F0200087B
:100120004F0200084F0200084F0200084F0200086B
:1001300000F002F800F070F80AA090E8000C824489
:100140008344AAF10107DA4501D100F065F8AFF266
:10015000090EBAE80F0013F0010F18BFFB1A43F0A5
:100160000103184780440000A04400000A444FF0F7
:10017000000C10F8013B13F0070408BF10F8014B06
:100180001D1108BF10F8015B641E05D010F8016B4B
:10019000641E01F8016BF9D113F0080F1EBF10F8AF
:1001A000014BAD1C0C1B09D16D1E58BF01F801CBD2
:1001B000FAD505E014F8016B01F8016B6D1EF9D555
:1001C0009142D6D37047000000230024002500266A
:1001D000103A28BF78C1FBD8520728BF30C148BFAA
:1001E0000B607047662904F0A080642900F08080CD
:1001F000002070471FB500F099FE04000020002188
:1002000002F0FEFF401C60600020002102F0E2FFCF
:10021000E0601FBD10B510BD01F066F91146FFF793
:10022000E9FF02F05FFE01F0B3FB03B4FFF7F2FF5A
:1002300003BC02F0A1FD000008480047FEE7FEE70E
:10024000FEE7FEE7FEE7FEE7FEE7FEE7FEE7FEE786
:1002500003480449024A044B70470000310100087A
:1002600038030020380700203803002070470000C2
:100270000FB4044910B503AA029800F0AFFB10BCFC
:100280005DF814FB040000202DE9F0410E46044601
:10029000002020622046E168884730B3252805D039
:1002A000D4E901219047206A401CF2E7E16820462A
:1002B00000278847050018D0A5F14100192802D869
:1002C00020354FF400673246294620462760FFF765
:1002D00089FF40B1012804D0F61D26F00706083634
:1002E000D8E7361DD6E72846DAE7206ABDE8F08170
:1002F0002DE9F0410646002410687529314616A5FF
:1003000010D0AFF30080002802DA404213A507E0C6
:1003100031688A0701D512A502E0490704D511A565
:10032000012401E0AFF3008000210A2206F1240736
:1003300009E0B0FBF2FCB0FBF2F302FB1C00303032
:1003400078541846491C0028F3D123462A463046E3
:10035000BDE8F04100F0DBB8000000002D00000017
:100360002B000000200000000FB400B58DB010A9D4
:10037000099000910B904FF0FF300A9000200C90F4
:10038000064878440690064878446A4607900F99D4
:1003900009A800F09BFD0DB05DF814FB670B000091
:1003A0007F0B00002DE9FF5F1D464FF0FF3B91469C
:1003B0004FF000085F46D5E90146A96901987F1C06
:1003C0008847296A824688470028F6D1BAF1FF3F5C
:1003D0000CD0002E24F4C06419DD600614D5BAF1E7
:1003E0002B0F09D0BAF12D0F0ED103E0584604B0FF
:1003F000BDE8F09F44F48064A96901987F1C884798
:10040000761E8246002E02DDBAF1300F03D0B9F11C
:10041000000F26D032E0A969761E01987F1C44F4B3
:1004200000748847002E824605DDBAF1780F06D0A9
:10043000BAF1580F03D0B9F1000F10D01EE0B9F196
:10044000000F02D0B9F1100F18D1A969761E0198DA
:100450007F1C24F4007488478246102002E00820A4
:1004600000E00A20814609E0A96908FB0908761E18
:1004700001987F1C44F4007488478246002E05DDF5
:100480004946504600F0BCFA0028EDDAE9690198C7
:100490008847A00502D46FF00100A8E7E00725D146
:1004A000600613D5600502D5C8F1000000E04046A3
:1004B00029680A1D2A600968220501D5087015E01F
:1004C000220701D5088011E008600FE02868011DAF
:1004D00029600068210502D580F8008006E0210728
:1004E00002D5A0F8008001E0C0F8008038467EE721
:1004F000704770477047704710B500F01BFD0068EB
:1005000010BD10B5044600F015FD046010BD2DE9C6
:10051000F0470D4699469246044600F124080168CA
:10052000880604D5E06921F01001216000E0012077
:10053000A84201DD471B00E00027A1697A1902EB00
:100540000900081AA0612078C00602D42046AFF343
:100550000080002608E0D4E901211AF8060090473F
:10056000206A401C761C20624E45F4DB2078C006D1
:100570000AD52046AFF3008006E0D4E901213020FF
:100580009047206A401C2062381EA7F10107F4DC66
:1005900007E0D4E9012118F805009047206A401CC3
:1005A0002062281EA5F10105F3DC2046AFF3008090
:1005B0002078000602D50220BDE8F0870120FBE785
:1005C00070472DE9FF4F0C461E464FF0FF378BB0AA
:1005D000D2E90001DDF860800A908A46C1F30A552D
:1005E00005B93D46002108464FF00000BAF1000F62
:1005F00000F4400005DA00EB80004FF4400101EA0E
:1006000050004FEA9059B9F1010F00DDB9460A9840
:1006100050EA4A000ED044F61050A5F2FF3545438B
:100620002F14B8F1000F1ED07542291E1EDDC9F12E
:1006300000021CE0B8F1010F4FF0000001D03021A2
:1006400003E0F24305E02154401CB042FBDB30469E
:100650000022002121540B99C1F80880C1E9002033
:100660000FB0BDE8F08FBD1B6D1CDEE74A4600DA17
:10067000694206A800F0C2FE06AB93E8070003AB90
:1006800083E8070050460A9901F0DBF98DE807007E
:10069000A0F500501F3800900398002D09DD42F2AC
:1006A0001F014A46084403A90390684601F065FC0F
:1006B00008E0A0F500504A461F3803A90390684699
:1006C00001F083FC8DE807000004000C03D04FF01C
:1006D000FF30410800E01046B8F1000F03D00022BF
:1006E000009215461EE0751E05D400F027FC30323E
:1006F00062556D1EF9D5B3460122084302D000228F
:100700007F1C04E02078302801D100227F1E002ABF
:10071000099786D01DE0112D07DA00F00FFC30326A
:1007200062556D1C50EA0102F5D1084302D00098D1
:10073000C8B10EE00021681E05E0235C625C6354D2
:100740002254401E491C8142F7DBAB46A81B401EC9
:100750000990002004F80B000B98099AC0F8088053
:10076000C0E9002B7CE711264FF0000859E72DE97E
:10077000F04F88460446D21D22F0070191B0D1E91E
:100780000001CDE90A0101F05FFF02460B98C00F9E
:1007900001D02D2007E02068810701D52B2002E041
:1007A000202101EAC000032A099001D0072A05DBB5
:1007B00003464146204600F027FC0BE120788006E6
:1007C00001D5E06900E00620B8F1650F814606D04A
:1007D000B8F1660F18D0B8F1670F70D131E0002082
:1007E000B9F1110F009001DB112301E009F10103C0
:1007F0000AAA01A90CA8FFF7E4FEDDE90C700026A7
:1008000009F10105834647E001204B4600904FF077
:1008100000470AAA01A90CA8FFF7D3FEDDE90DB035
:100820000C995D46002610B909F101000D18B9EBCD
:10083000050003D4C0F1FF3609F10105A5EB09005D
:100840002BE0B9F1010F01DA4FF001090020B9F1F5
:10085000110F0090484601DD112300E003460AAA6B
:1008600001A90CA8FFF7ADFEDDE90C704D4600268E
:100870008346207800070AD4AB4500DA5D4601A81C
:10088000012D04DD411911F8011C302907D04F4515
:1008900002DA17F1040F04DA012082460FE06D1E20
:1008A000EEE7002F02DCED1B3E4403E0781CA8427B
:1008B00000DD7D1CB81B00F1010A4FF000472078D5
:1008C000000703D4AA4501DB4FF0FF3A0021B7F13E
:1008D000004F0DF143088DF8431024D002202B2344
:1008E000002F01DA7F422D230A21021EA0F1010010
:1008F00000DC5FB197FBF1FC97FBF1F201FB1C7C84
:1009000017460CF1300C08F801CDEEE7A8F1010014
:1009100003702188090501D5452100E06521A0F17A
:10092000010800F8011C09980FA9A1EB0807FF1D99
:1009300000B10120411901EBEA70A1693844081A9D
:10094000401EA0612078C00602D42046AFF300808C
:10095000099828B1D4E901219047206A401C2062FF
:100960002078C00622D52046AFF300801EE0002E7E
:1009700004DBB34502DD01A8805D00E03020D4E94E
:1009800001219047206A401C2062761CAAF10100D8
:100990005FEA000A0AD100F0C9FAC0680168405C49
:1009A000D4E901219047206A401C2062281EA5F14D
:1009B0000105DCDC07E0D4E9012118F8010B9047C0
:1009C000206A401C2062381EA7F10107F3DC204694
:1009D000AFF30080032011B043E60000074B70B571
:1009E0000D467B4400F0FDFA0446284600F074FDF5
:1009F00010B14FF0FF3070BD204670BD17240000CD
:100A00003A2800D2303820F02002412A01D3A2F146
:100A10003700884201D34FF0FF3070472DE9FF4F78
:100A2000064689B00878FF2806D0491C2D2805D035
:100A300000244FF0000908E000200CE00124F8E752
:100A400009EB8903491C00EB43090878FF28F7D11B
:100A500014B1C9F100008146107800252C46AA4641
:100A600029462D2801D02B2804D1521C2D2813D023
:100A7000002082468B461078FF280FD04FF0000CE4
:100A80000A21521CA5FB017804FB018105FB0C1116
:100A9000C5194BEB0104EEE70120EAE70021084607
:100AA0004FF00000BAF1000F02D000EB80004008C8
:100AB000C0F38158B8F1010F01DD4FF0FF380C98F9
:100AC00009EB000755EA040009D04FF0020917F5B9
:100AD000FA7F0BDA4FEACA70C6E900B012E04FEABB
:100AE000CA70C6E900B00DB0BDE8F08FB7F5FA7F67
:100AF0000DDDF0487844D0E90010C6E9001040EA66
:100B0000CA70706000F016FAC0F80090EBE7391E6A
:100B100002DAC8F1000200E0424600DA794206A893
:100B200000F06CFC06AB93E8070003AB83E807001A
:100B300044F23E005BEA04010090584604D144F2BE
:100B40001E012C465D460091210C0904014306D18B
:100B50000099240444EA15442D041039009104F04E
:100B60007F41014306D10099240244EA15642D0215
:100B70000839009104F07041014306D10099240125
:100B800044EA15742D01091F009104F0404101430E
:100B900006D10099A40044EA9574AD00891E009125
:100BA00004F00041084304D100986D196441401ECF
:100BB000009042466846002FCDE9014503A902DDB9
:100BC00001F017FA01E001F0ECF9BAF1000F044668
:100BD0000D4601D084F0004440F2FF7724F000403D
:100BE000284303D0C4F30A50B84212D100F0A2F94E
:100BF000C0F80090C4F30A50B8420AD1AE48784415
:100C0000D0E90010C6E9001004F00041084370600C
:100C100069E7C6E9005466E72DE9FF4F1F464FF02C
:100C2000000A4FF0FF38454691B0D7E90146CDF8AC
:100C30003CA000F07BF9C0680168405C1090B96985
:100C400012986D1C8847396A814688470028F6D17A
:100C5000B9F1FF3F0AD0002E24F4D06411DDB9F1C0
:100C60002B0F08D0B9F12D0F0BD102E0404615B083
:100C70003AE744F48064B96912986D1C8847761E7F
:100C80008146600504A901D52D2000E02B20002E0F
:100C900001F1010B0DF130088DF810003FDDB9F1C5
:100CA000690F08D0B9F1490F05D0B9F16E0F02D024
:100CB000B9F14E0F1CD13B4601A8009580E85002C7
:100CC000DDE912126FF0020003F095FBC11CCED1DA
:100CD0000EE0B96912986D1C884781461398761EFC
:100CE00044F4007405600F98401C002E0F9016DD30
:100CF000B9F1300FEDD0B9F1780F02D0B9F1580F3A
:100D00000DD10F9801280AD13B46CDE90054DDE909
:100D10001212001F029603F06CFBC11CA7D11099A0
:100D200089453ED144F0800406E01399681CAAF17D
:100D3000010A44F400740860B9696D1C1298761EAB
:100D4000884730288146F0D02BE01099894505D19D
:100D5000200603D4761E44F0800418E0484602F0D2
:100D600004F808B3761E0DF123018B4544F400749A
:100D700008D2A9F130000BF8010B200607D5AAF123
:100D8000010003E0200602D40AF101008246A0051A
:100D900002D51399681C0860B96912986D1C8847C0
:100DA0008146002ED1DC53E0002E51DDB9F1650FF4
:100DB00002D0B9F1450F4BD1A00549D5B9696D1CD9
:100DC0001298761E24F440748847002E81460CDD6C
:100DD0002B2804D0B9F12D0F07D144F48074B969E0
:100DE00012986D1C8847761E8146E00501D52D219D
:100DF00000E02B2108F8011BCDF8008021E0761ED1
:100E00000DF13901884544F400740CD2A9F1300089
:100E100010F0FF0088F8000002D10099884509D938
:100E200008F1010806E0E00501D5244801E042F29E
:100E30000F708246B96912986D1C884781461398D5
:100E40000560002E04DD484601F08FFF0028D6D152
:100E5000F96912988847FF2053468BF8000088F8FC
:100E6000000000200A900B9004AA0CA90AA8FFF722
:100E7000D5FDA00502D46FF00100F8E614F0240FB0
:100E80000AD0E00714D13868DDE90A12031D3B607F
:100E90000068C0E900120BE00AA9684601F00EFFE5
:100EA000E00705D13868009A011D396000680260CA
:100EB0002846DCE60C3B0000023A0000F1D8FFFFB8
:100EC000026811441378016018467047D1600549E3
:100ED000794451610449794411620021116111463C
:100EE00000F0D2B8EDFFFFFFED000000426842B114
:100EF000016811F8013B23B1521EC0E900121846E7
:100F000070470121C160881E704742685AB1C368AA
:100F1000016843B983688B4205D0491E521CC0E961
:100F20000012002070474FF0FF30704700487047B4
:100F3000F402002000487047D402002030B5B0F120
:100F40000A024FEA900E71F100034EEA817EB0EB87
:100F50000E0061EB91014FEA101E4EEA017E10EB8C
:100F60000E0041EB11114FEA102E4EEA016E10EB0C
:100F70000E0041EB11214FEA104E4EEA014E10EBEC
:100F80000E0041EB1141401841F100014FEAD00041
:100F900040EA41704FEAD10110EB80054FEA81042D
:100FA00044EA907444EB01046D1944EB0404521BB1
:100FB000A3414FF0000348BF0A3200D530BD401CAA
:100FC00041F1000130BD10B5044600F0B3FA0068ED
:100FD000005D00F0010010BD01694A1C0261087843
:100FE000704700B58FB0CDE9013100210591054969
:100FF0007944CDE9031011466846FFF745F90FB073
:1010000000BD0000E5FFFFFF2DE9F0411F4604464B
:1010100003260168072A01F4006004DB08B116A565
:1010200005E016A503E008B115A500E015A521F01F
:1010300010002060A069C01EA0610FB1401EA06119
:101040002046AFF300804FB1D4E9012138469047E4
:10105000206A401C2062C01C206206E0206AFAE779
:10106000D4E9012115F8010B9047761EF8D22046ED
:10107000AFF30080BDE8F0814E414E006E616E001E
:10108000494E4600696E66002DE9F34F4FF0000AA5
:101090000C4656468DB001200C9001F10C000B90CF
:1010A00062690B980121904705002DD0252D2CD089
:1010B000216A8847C0B162690B9801219047216A73
:1010C00088470028F7D16269411E0B98904700E0DD
:1010D000761CA1690D988847216A88470028F7D1B6
:1010E000E1690D988847DBE7A1690D988847A84218
:1010F000074601D1761CD3E7E1690D9888477F1C2C
:1011000002D1BAF1000F6FD06BE162690B98002732
:101110003D46394690472A2804D162690B9801213F
:1011200090470125DFF8D08262690B980121904732
:10113000A0F130010A290AD24745E5DC07EB870117
:1011400000EB4107303FDFD445F01005ECE7E9063E
:1011500001D46FF000476C280AD04C2814D06828BE
:1011600015D06A280DD074281CD07A281AD01DE01A
:1011700062690B98012190476C2802D045F0040564
:1011800014E045F002050DE045F020050AE0626933
:101190000B9801219047682802D045F0080505E02A
:1011A00045F4006562690B9801219047C4E9015735
:1011B00065283DD019DC58287AD00CDC452837D07A
:1011C00004DC252826D041289ED131E046282FD0A6
:1011D000472899D12CE05B2877D0612828D0632854
:1011E0007CD0642823D15AE0F6E06F2848D008DC90
:1011F00066281DD067281BD0692821D06E2816D1FB
:1012000027E0702845D0732868D0752847D0782803
:101210000DD14DE0A1690D988847252805463FF47A
:1012200069AFE1690D9888476D1C3FF46AAFD8E05B
:101230000D9923466A466FF0010003F0D8F8C5E027
:1012400045F0400023464FF000026060A80736D406
:101250003EE0E8077FF447AF2068011D2160006889
:10126000290501D506701BE7290701D5068017E778
:10127000A90703D5F117C0E9006111E706600FE780
:1012800045F0400023464FF008026060A80716D4DE
:101290001EE040F60E0125EA0100606016E045F010
:1012A000400023464FF00A026060A80707D40FE011
:1012B00045F040006060A80708D5234610220D992C
:1012C0006FF00100AFF3008080E007E010222346BA
:1012D0000D996FF00100FFF765F877E04FF0000916
:1012E00063284F46C8464B46CB4602D05B2806D003
:1012F00038E0E80601D40120A060012732E06269ED
:10130000D4F80CB00B98012190475E2807D14FF01C
:10131000010949466269D4F80CB00B9890472169DD
:1013200039B900210A4603AB43F82120491C08299A
:10133000FADBD8B3216949B308F1010862690B9857
:10134000012190475D28F4D1B9F1000F09D00020A8
:1013500003A951F82020D24341F82020401C08283E
:10136000F7DB03AB2069002820794FEA40701ED0DC
:101370005B462246CDF80080CDE901970D99002803
:101380006FF0010020DAAFF300801FE0C11703AA5D
:1013900000EBD1614B1121F01F0102EB8302411AD6
:1013A00013680120884003431360C7E719E00D99D3
:1013B000224600286FF00100009702DAAFF30080A8
:1013C00004E0AFF3008001E0AFF3008000280ADA08
:1013D000401C06D10C9820B14FF0FF300FB0BDE893
:1013E000F08F5046FAE7E90701D10AF1010A0644F5
:1013F00000200C9054E60000CCCCCC0C2DE9F0473A
:10140000814616468AB0334878440DC88DE80D00F1
:1014100030487844801C03AC0DC884E80D0041F6C8
:101420009B300844372190FBF1F290FBF1F5A5F1D8
:10143000800501FB12041B3C02D56442012000E040
:101440000020DFF890A080460027FA44AAF1BE0AE7
:101450000DE0E00709D03246684607EB47010AEB8A
:10146000810100F0B2FD8DE8070064107F1C002CA4
:10147000EFD1184F7F44AC3F18E0E80714D007EBDA
:1014800004100DF1180A90E80E008AE80E00C068FA
:10149000F04201D198190890324606A903A800F03D
:1014A00094FD03AB83E807006D10641C002DE4D1AC
:1014B00032466946B8F1000F03A802D000F05DFD86
:1014C00001E000F082FDC9E90001C9F808200AB076
:1014D000BDE8F087C0310000007B00F0800070475D
:1014E00000487047D40200207546FFF7F9FFAE466A
:1014F00005006946534620F00700854618B020B520
:10150000FEF7A6FEBDE820404FF000064FF00007B2
:101510004FF000084FF0000B21F00701AC46ACE89B
:10152000C009ACE8C009ACE8C009ACE8C0098D4608
:101530007047000010B5FFF7F9FC001D10BD00BF9B
:10154000C11C00002DE9FF4F1F464FF03C0987B03A
:101550004FF00042DDE9141001F10108DDF858A058
:1015600002EA40500390002004908346054604465A
:101570000590B969461E08988847AAF1010A0290A9
:10158000BAF1000F37DD02982E2815D01021FFF791
:1015900037FA00282ADB4FF0010B0499014316D0DB
:1015A000B9F1000F0BDB4A46C11700F037FA0543CB
:1015B0000C43A9F1040905E00120059007E008B1FA
:1015C00045F0010501200490059800B9361DB96960
:1015D000089808F101088847BBF1000FAAF1010A39
:1015E0000290CDD00999C1F80080C9E7029870280F
:1015F00008D0502806D0F96908988847BBF1000F39
:1016000014D04FE0002002900120BBF1000F0490A5
:1016100009D0B969089808F101088847AAF10109B9
:10162000B9F1000F07DCF969089888476FF00100ED
:101630000BB0BDE8F08F2B2804D02D280CD14FF033
:10164000FF300490B969089808F101088847A9F1AA
:101650000109B9F1000FE6DD411CE4D00A21FFF7D2
:10166000CFF90028DFDB029908F1010801EB8101C5
:1016700000EB41000290B969089888470A21FFF7FA
:10168000BFF9099AA9F10109B9F1000FC2F8008068
:1016900001DD0028E7DAF96908988847049902987B
:1016A00000FB016655EA040004D004F04041090043
:1016B00002D006E0039898E0A40044EA9574AD00D7
:1016C000B61E04F00041080002D16D196441761E77
:1016D000159810F0240F03D04FF00B095C4803E07D
:1016E0004FF028096FF07D008246564507DAAAEBD5
:1016F00006018944B9F1410F01DD4FF04109012094
:101700000021A9F1010200F089F9024628400B46A8
:101710002140084301D0012100E00021501E029128
:1017200043F1FF3128402140084301D0012000E06F
:1017300000200299834651EA0B014FD00021084650
:101740004FF00000039900F4400039B100EB800035
:101750004FF4400100EBD07001EA600080150128D1
:1017600002DD4FF0FF3000E013D0401C36D002986D
:1017700060B3BBF1000F0CD14A460120002100F0FC
:101780004DF928402140084301D0012000E000200D
:10179000E0B101204A46002100F040F9034640191B
:1017A0000A4661412D1A8C4111D3B9F1400F09DD70
:1017B000159810F0240F02D0AAF1340603E0AAF124
:1017C000170600E0761C00254FF0004406E05B1E83
:1017D00042F1FF3220EA030521EA0204CAF10100C6
:1017E000B04206DA1B49039808430190002000909C
:1017F0000EE0039AC4F3D321E80A0A43164940EAEB
:1018000044500A433146CDE90002684601F0A2FA8D
:10181000159810F0240F0BD01598C00715D1386813
:10182000DDE90012031D3B600068C0E900120CE016
:1018300002A8694601F042FA1598C00705D1386838
:10184000029A011D3960006802604046F0E600001F
:1018500002FCFFFF0000F07F0000F03F2DE9FF4F8A
:1018600092461D4685B04FF00041DDE9124BDDE99F
:1018700014727F1E01EA4B50414940F0FF4940EA93
:101880000108002122F020004928049102D04E28AE
:1018900028D04CE03BA0012607C88DE80700A969C5
:1018A0000698641C88477F1E014606D41DF8060072
:1018B00018B121F0200181420BD0E96906988847D0
:1018C000032E34D0082E32D06FF0010009B0BDE8ED
:1018D000F08F761C032E01D0082EE0D1601CCAF8D0
:1018E0000000DCE7A9690698641C88477F1E2AD49B
:1018F00020F02000412826D1A9690698641C884759
:101900007F1E20D420F020004E281CD1A969069803
:10191000641C88477F1E48F4002849F48009CAF8EF
:10192000004001D4282806D0E969069888475FEA74
:10193000CB7012D022E0A9690698641C88477F1EEC
:1019400001D4002803DAE96906988847BCE729280A
:10195000F1D1641CCAF80040E9E71BF0240F07D05E
:1019600028680499031D2B600068C0E9001805E091
:101970002868021D2A600068C0F800902046A5E78C
:101980000000F07F494E46494E495459000000007E
:101990000446AFF300802046FEF747FC4FF0013CC1
:1019A00050F8042B51F8043B9A4221D1A2EB0C03CE
:1019B000934313EACC1317D150F8042B51F8043B8E
:1019C0009A4215D1A2EB0C03934313EACC130BD12B
:1019D00050F8042B51F8043B9A4209D1A2EB0C03B6
:1019E000934313EACC13DBD04FF00000704700BFE5
:1019F000D01A01BAB1FA81F101F0180122FA01F00E
:101A0000CB40C1F12001DBB2C0B2C01A2CFA01F305
:101A1000D11A914311EAC311E6D17047B2F1200304
:101A20000AD5C2F1200301FA02F120FA03F300FA09
:101A300002F041EA0301704700FA03F14FF00000A1
:101A400070475FEA400C08BF91F0000F4FEA8C230B
:101A50004FEAC12243EA51514FEA1C5018BF00F52A
:101A6000F0404FEA300018BF41F000415FEA6C5C83
:101A700000F02980BCF1FF3F08BF40F08040704774
:101A8000130C06BF12044FF0100C4FF0000C130E95
:101A900004BF12020CF1080C130F04BF12010CF169
:101AA000040C930F04BF92000CF1020CD30F04BF7F
:101AB00052000CF1010C11464FF00002A0F11F0082
:101AC000A0EB0C00704711F0004F08BF704731F0D9
:101AD00000413FF4D5AF0B0C06BF09044FF0100CCA
:101AE0004FF0000C0B0E04BF09020CF1080C0B0F99
:101AF00004BF09010CF1040C8B0F04BF89000CF129
:101B0000020CCB0F04BF49000CF1010CCCF12003F7
:101B1000A0EB0C0022FA03F302FA0CF241EA0301F3
:101B200000F10100704720F07F4C80EA030023F0B1
:101B30007F47ACEB070303F57C5300F0004003F153
:101B4000FF032DE980494FEA154B09B44FEA1443CE
:101B500025EA0B4E24EA03480FF2042606EB13276E
:101B600049083E785FEA320203FB0667C7F50007C3
:101B700007FB06F64FEA54374FEAD64606F102064F
:101B800007FB066CCCF1005C4FEA1C472CEA074CC3
:101B900007FB06F40CFB06F504EB15464FEA961618
:101BA00034BF00204FF000404FEAD13706FB07FC5E
:101BB0004FEA1C4C0CFB0BF7D21B03FB0CF761EB41
:101BC00007010CFB0EF7B0EB074072EB17420CFB62
:101BD00008F734BFA2EB0742B2EB074261EB1741B3
:101BE0004FEA0C444FEA910706FB07FC4FEA1C4CF6
:101BF0000CFB0BF7B0EBC74072EB573203FB0CF753
:101C000034BFA2EBC742B2EBC74261EB57310CFBCA
:101C10000EF7B0EBC70072EB57720CFB08F734BF3E
:101C2000A2EBC702B2EBC70261EB5771039F4FEA09
:101C3000816141EA921104EBCC044FEAD1374FEABB
:101C4000826206FB07FC42EA90124FEA80604FEA8C
:101C50001C4C0CFB0BF7D21B03FB0CF761EB0701D1
:101C60000CFB0EF7B0EB074072EB17420CFB08F7CA
:101C700034BFA2EB0742B2EB074261EB17414FEAD8
:101C80008C554FEA910704EB9C2406FB07FC4FEAB6
:101C90001C4C0CFB0BF7B0EBC74072EB573203FB4D
:101CA0000CF734BFA2EBC742B2EBC74261EB57312E
:101CB0000CFB0EF7B0EBC70072EB57720CFB08F78A
:101CC00034BFA2EBC702B2EBC70261EB577115EB51
:101CD0004C254FEA816141EA92114FEA82624FEA54
:101CE000D13742EA901206FB07FC44F100044FEAA8
:101CF00080604FEA1C4C0CFB0BF7D21B03FB0CF76C
:101D000061EB07010CFB0EF7B0EB074072EB1742DB
:101D10000CFB08F734BFA2EB0742B2EB074261EBC2
:101D2000174115EB1C154FEA813141EA92414FEA08
:101D3000823242EA90424FEA80304FEA0C7644F118
:101D4000000448EA03434EEA0B484FF0000EB2EBA2
:101D5000080C71EB030724BF624639464EEB0E0EAA
:101D60004FF0000B0018524149414BEB0B0BB2EB0B
:101D7000080C71EB03077BF1000B24BF6246394668
:101D80004EEB0E0E4FF0000B0018524149414BEB49
:101D90000B0BB2EB080C71EB03077BF1000B24BFBC
:101DA000624639464EEB0E0E51EA020718BF46F066
:101DB000010616EB0E7655F1000254F1000103D531
:101DC000BDE88901BDE80088BDE88901BDE800489B
:101DD000B619524141EB0101A3F101037047808024
:101DE0007F7E7D7C7B7A7978777676757473727175
:101DF00071706F6E6E6D6C6C6B6A6A69686867662D
:101E000066656464636362616160605F5F5E5E5DBE
:101E10005D5C5C5B5B5A5A59595858575756565532
:101E200055555454535352525251515050504F4F94
:101E30004F4E4E4D4D4D4C4C4C4B4B4B4A4A4A49E4
:101E40004949484848474747474646464545454427
:101E500044444443434343424242424141410000DF
:101E600046EA0646A3F570534FEA164646EA42563E
:101E70004FEAD22242EA415210B54FEAD121A3F1F2
:101E8000010300F017F820F0004000F1010C00F011
:101E9000004701EB00501146BCF5006F40EA070017
:101EA00000D210BD02484FF0000140EA070010BD0B
:101EB0000000F07F002B26D4770021D01CB54FEA1C
:101EC000370703B44FF010004FF010014FF000003F
:101ED0000FBCBDE810400BF1010BBBF1010F08BFB7
:101EE0005FEA170722BF12F1010211F101014FF061
:101EF000004143F1000300F0004043EA0000704756
:101F0000F9D35708DAE746EA064613F1400F4FEADD
:101F100016461FDD13F1200FDFBF16430A460021CE
:101F200020335B42C8D0C3F1200746EA064602FAD6
:101F300007F74FEA164646EA0706C3F1200722FADA
:101F400003F201FA07F721FA03F14FF0000342EA26
:101F50000702B1E746EA020646EA06464FEA164697
:101F600046EA0106BCBF46EA0646360C4FF00003BF
:101F70004FF000024FF000019EE72DE9C048934664
:101F800030B491E8380007C831EA400C48BF34EA61
:101F9000430C03D5FFF7C7FDFFF78CFFF0BCBDE88E
:101FA00000882DE9C048934630B491E8380007C84E
:101FB00031EA400C48BF34EA430C03D5FFF7B3FDC8
:101FC000FFF74EFFF0BCBDE800882DE9C0489346FE
:101FD00030B491E8380007C810F0804F08BF13F004
:101FE000804F03D100F019F8FFF764FFF0BCBDE8A3
:101FF00000882DE9C048934630B491E8380007C8FE
:1020000010F0804F08BF13F0804F03D100F005F8A7
:10201000FFF726FFF0BCBDE8008820F07F4780EA8C
:10202000030023F07F4C07EB0C03A3F57C5300F077
:102030000040A3F1FE0392F0000F00F0B38095F092
:10204000000F00F077802DE901494FEA11404FEA77
:10205000144621EA004800FB06FC24EA064708FB78
:1020600006F607FB08F800FB07F718EB06484CEBF1
:10207000164C4FEA124B18EB07484FEA15464CEB4B
:10208000174022EA0B4E0BFB06FC25EA06470EFB27
:1020900006F607FB0EFE0BFB07F71EEB064E4CEB9E
:1020A000164C4FF000061EEB074E4CEB174B18EB8F
:1020B0000B0840F1000018EB0E0B58EB000840F144
:1020C00000008F1A4FF000013CBFC943661B14BFCC
:1020D000B5EB040C00213CBFC943F61B4FEA174483
:1020E0004EEA8E0E27EA04454FEA1C4704FB0762BE
:1020F0002CEA074C05FB07F70CFB05F604FB0CFC70
:1021000016EB074642EB174216EB0C4642EB1C421D
:102110001BEB060658EB0202414146EA9E0601D53A
:10212000BDE80189B619524141EB0101A3F1010358
:10213000BDE801894FEA14454FEA114724EA0546F4
:1021400021EA074C05FB07F406FB07F70CFB06F139
:1021500005FB0CFC11EB074144EB17444FEA124717
:1021600011EB0C4144EB1C4422EA074C05FB07F23F
:1021700006FB07F70CFB06F605FB0CFC16EB074607
:1021800042EB174216EB0C4642EB1C456A1854F121
:10219000000148BF7047B619524141EB0101A3F15C
:1021A0000103704795F0000F37D04FEA11424FEA14
:1021B000144721EA024624EA074C02FB07F106FB1A
:1021C00007F70CFB06F402FB0CFC14EB074441EB95
:1021D00017414FEA154714EB0C4441EB1C4125EA2B
:1021E000074C02FB07F506FB07F70CFB06F602FBA4
:1021F0000CFC16EB074645EB174516EB0C4645EB7A
:102200001C42121951F1000148BF7047B6195241E2
:1022100041EB0101A3F1010370474FEA14454FEA76
:10222000114724EA054621EA074C05FB07F106FBA6
:1022300007F70CFB06F24FF0000605FB0CFC12EB57
:10224000074241EB174112EB0C4251EB1C4148BFD6
:102250007047921841EB0101A3F1010370470000A0
:102260001848806940F0080016498861084680696E
:1022700040F0400088611448006820F47000124962
:1022800008600846006840F4401008600E480C30B2
:10229000006840F020000C490C3108600B480068D1
:1022A00020F47000094908600846006840F44010B6
:1022B000086006480C30006840F0200003490C31EB
:1022C0000860704700100240000C014000180140F7
:1022D00000B5002015490861C8601420486100203D
:1022E0008861C8610846006840F00100086008463F
:1022F00040680F4908400D494860084600680D498C
:1023000008400A4908600846006820F480200860F8
:102310000846406820F4FE004860002088600021E4
:102320004FF0006000F058F800BD000000100240BF
:102330000000FFF8FFFFF6FE2DE9F0410746884652
:1023400014461D46284600F033F8C5F1040007FA8C
:1023500000F60F20284100EA0800064306F00F06A9
:10236000E21704EBD2625211920002F1E022D2F89D
:1023700000212146E31704EBD3635B11A4EB431C5C
:10238000012303FA0CF31A432046E31704EBD3634B
:102390005B119B0003F1E023C3F800210348005DBB
:1023A00040EA061001490855BDE8F08100E400E06C
:1023B0000146072323EA01021202054B18684FF673
:1023C000FF031840034B18431043014B186070473C
:1023D0000CED00E00000FA05024A0A400243024BFD
:1023E0001A60704780FFFF1F08ED00E010B504463B
:1023F00000214FF0804000F0C9F80548B0FBF4F030
:102400004FF0804188850121880700F0BFF810BD9A
:10241000A24A04002DE9F34F87B000200690DDE9C1
:10242000070101F09FFC804601F070FC0646002287
:102430004FF0804300F0E8FF044600F0F7FE0590FF
:10244000079801F063FC04464FF06632244B01F01C
:1024500031FB02D22348079006E0DDE9070101F0D5
:10246000E5FD01D8002008904FF0000A32E0504608
:1024700001F0BBF904461C4A1C4B01F01DFA06464C
:1024800000F0D4FE06900599079801F0D9FE03905C
:10249000069801F03BFCCDE9000100F0DDFD0646A9
:1024A00000F0C4FE0290039901F0F4FD8346059903
:1024B00001F058FC049001F029FC04460C4A0D4B35
:1024C00001F0FAF9804601F063F90B4921F81A008E
:1024D0000AF1010ABAF1FF0FC9DD09B0BDE8F08FBA
:1024E00066660A40333353404E870442A154993FF5
:1024F000022B8716D96493400A00002030B50446A9
:102500000025FFF7E5FE1F48006840F480301D49B4
:10251000086000BF1B480068400C0028FAD04FF448
:10252000806018494860A01EC4B20846406840EA6E
:10253000844048600846406840F480304860124853
:10254000006840F03200104908600E48006840F012
:1025500080700C49086000BF0A480068400E0028DF
:10256000FAD00848406840F002000649486005E09B
:1025700004484068C0F3870505F00305022DF7D134
:1025800030BD0000001002400020024021B102884E
:1025900042F08002028004E002884FF67F731A4006
:1025A000028070472DE9F04186B01948008800F498
:1025B0000040002829D01648007800F02F040020A1
:1025C0001449085503A804AB05AA13A100901148AB
:1025D000FDF7CAFE039801F099FB07468846049868
:1025E00001F094FB05462A460B46CDE900780DA084
:1025F0000599FDF73DFEDDE90310FFF70BFF059898
:10260000FFF7F4FE00200249088006B0BDE8F08123
:10261000080000200C02002025642C25662C25666D
:10262000000000005345542020485A203D202564D6
:102630002C204D4158203D2025662C4D494E203DF3
:102640002025660D0A000000490050EAC12018BF8D
:1026500004204A0D18BF40F0010040F2FF72B2EBB7
:10266000515F08BF40F00200012808BF05207047F5
:102670002DE9F74F144694B00021C4E902111599D1
:10268000079121F00045C9498D4206DC1599C4E93E
:10269000000117B00020BDE8F08FC549DFF814A392
:1026A000A9423CDD0799C44E0029C44FC44A15997C
:1026B000534619DD01F040FA554506D0C14AC24BD8
:1026C00001F03AFAC4E900010AE04FF0D352BE4BE0
:1026D00001F032FA32463B4601F02EFAC4E900011D
:1026E00017B00120BDE8F08F00F0D2FD554506D0AF
:1026F000B44AB54B00F0CCFDC4E900010AE04FF04C
:10270000D352B14B00F0C4FD32463B4600F0C0FD51
:10271000C4E9000117B04FF0FF30BDE8F08FAB49BE
:10272000A942159978DB21F0004183468846A84AE2
:10273000A84B01F0C1F80022A74B00F0A9FD00F062
:10274000F7FF099001F051F806460F469C4A5346A0
:1027500001F0B2F843465A4601F0E2F980468A4653
:10276000984A994B3046394601F0A6F82A0D0125C2
:102770000B924246534601F0D3F9032DC4E9000100
:1027800039D00B98C1F30A51401A05EB45111139A4
:10279000814230DA9148C346784400EB0510CDF809
:1027A0000CA00C90D0E900233046394601F084F8A3
:1027B00002460B46049106905846039901F0BCF975
:1027C00080468A4602460B465846039901F0B4F902
:1027D000049B069A01F0B0F983460C9803913946A0
:1027E000D0E90223304601F067F85A46039B01F016
:1027F000A3F96D1CBDE707980028A2BF099817B080
:10280000BDE8F08F616881F000416160099817B000
:102810004042BDE8F08FFFE784461598C1F31301ED
:10282000C0F30A50A0F2F5304FEA601800F01F061E
:10283000C6F12000139000200690079041F4801EFE
:1028400005206D4676B1664A08EB00017A4452F8DD
:10285000213002EB8101B3404A68139922FA01F159
:10286000194305E05F4908EB0002794451F8221052
:10287000A1FB0E27A1FB0C131A449A4234BF01237B
:10288000002303EB070A05EB8003D3E901B70F44EC
:102890008F4234BF0121002193448B4411B19345F1
:1028A00002D903E0934501D2012100E00021C3E9F0
:1028B00001B7514445F82010011EA0F10100C1DC10
:1028C0000298059F00F10050800F12900298DDE9F8
:1028D0000356800000F089FF834628460D9100F0E2
:1028E0009BFF6FF01D0201F054FDCDE90E01304653
:1028F00000F092FF6FF03D0201F04BFD80468A46EA
:10290000384600F089FF6FF05D0201F042FD074696
:1029100042465346119100F0BBFCDDE90E2300F066
:10292000B7FC5A460D9B00F0B3FC00250E465A46F4
:1029300028460D9B01F000F9DDE90E2301F0FCF8BB
:102940004246534601F0F8F83A46119B01F0E8F888
:10295000DFF898A0244A534600F0AEFF07468846A9
:10296000234A244B3146284600F0A6FF3A46434608
:1029700000F08EFC074688464FF0A8425346314689
:10298000284600F099FF3A46434600F081FC159A2C
:1029900012F0004F04D0129A81F00041524212927C
:1029A000C4E90001129817B0BDE8F08FFB21E93FA0
:1029B0007CD90240FB21F93F7370032E8A19A33B97
:1029C000000040543163621A61B4D03DFB213941AB
:1029D00083C8C96D305FE43F0000E03FC41C0000C5
:1029E000401C0000221C0000182D4454FB21F93D1E
:1029F0003326A611460B113C2DE9FF4D21F000486E
:102A000007460C46B8F1795F08DA00F091FE00281D
:102A100001BF0020324904B0BDE8F08D3A4623469C
:102A20001046194600F048FF054602462D480E465E
:102A30000B460621784400F05DF82A46334600F044
:102A40003BFFDDE9022382468B463846214600F0F3
:102A500033FF04460F4652465B462846314600F097
:102A60002BFF22463B4601F067F807468A464FF0A7
:102A7000FF322846314601F08CFC1B4A90450ADAA9
:102A80003A46534601F058F804B00022BDE8F04D34
:102A9000134B01F045B8154A4245A8BFA8F50015EB
:102AA0004FF00004B8BF124D22462B4601F044F807
:102AB0000646884622462B460020094901F03CF88C
:102AC00004460D463A4653463046414601F034F836
:102AD00004B022462B46BDE8F04D01F021B80000BD
:102AE0000000F03FF81900003333D33F0000E93F06
:102AF0000000D23F2DE9F0414F1E00EBC701044614
:102B0000D1E9000115461E4637F006020DD02A46CF
:102B1000334600F0D1FE7F1E04EBC703D3E9002348
:102B200000F0B6FB37F00602F1D1022F25D0042FBA
:102B300013D0062F18BFBDE8F0812A46334600F0B7
:102B4000BBFED4E90A2300F0A3FB2A46334600F07B
:102B5000B3FED4E9082300F09BFB2A46334600F07D
:102B6000ABFED4E9062300F093FB2A46334600F07F
:102B7000A3FED4E9042300F08BFB2A46334600F081
:102B80009BFED4E9022300F083FB2A46334600F083
:102B900093FED4E90023BDE8F04100F079BB0000CA
:102BA0002DE9FF4D054621F0004084B00C46B0F100
:102BB000795F0BDA2846FFF747FD042808BF00F0CD
:102BC00075F8284608B02146BDE8F08D2A460B4628
:102BD000104600F071FE06460F462A46234600F0D6
:102BE0006BFE804626488A4632463B46052178449D
:102BF000FFF780FF83461098029160B3214A224B71
:102C00004046514600F058FECDE900015A46404684
:102C10005146029B00F050FE82468846DDE90601DF
:102C20004FF0FF3201F0B5FB5246434600F084FFFF
:102C300032463B4600F040FEDDE9062300F07CFF13
:102C4000DDE9002300F078FF08B02A462346BDE8FE
:102C5000F04D00F065BF0B465A463046394600F04D
:102C60002BFE084A084B00F013FB4246534600F087
:102C700023FE08B02A462346BDE8F04D00F008BB0D
:102C800036190000495555555555C5BF012201F06B
:102C900080BB002213461046114600F0B5BB40F23F
:102CA000013200204FF0E04101F073BB024A0020E6
:102CB000110701F06EBB000001FDFFFF10B50446D7
:102CC000D1E9000100F002F8206010BDF8B504461B
:102CD0000D466A4600F0A0F800987E30009000286B
:102CE0001FDC002213462046294600F0E5FC18D0E0
:102CF000002140F608004FF0000006462046294615
:102D000000F094FA044640F6080006EA00014FF08D
:102D1000000034F0004004BF0220FDF7F2FB204623
:102D2000F8BD0098FF280DDB0220FDF7EAFB00222A
:102D300013462046294600F0BDFE8CBF04484FF0E4
:102D4000FF40F8BD20462946BDE8F84000F06EBAC5
:102D5000000080FF10B504460A46D4E90003194676
:102D600000F086F8C4E9000110BD30380A2801D20D
:102D70000120704700207047014600BF70470000E7
:102D80004FF0E021096921F004014FF0E0221161C8
:102D9000C21700EB5272C2F3C702074B1A701946F2
:102DA000097801EB4102C2EBC1114FF6FF7202EA52
:102DB000C101024A1180704700000020020000207B
:102DC00001460D4A12884A434FF0E0235A6100221F
:102DD0009A6101221A6100BF4FF0E022106900F0F1
:102DE00001021AB100F48032002AF5D000224FF01F
:102DF000E0231A619A6170470200002000BF054A73
:102E0000128802F04002002AF9D0C2B2014B1B1D09
:102E10001A8070470038014010B514460022226025
:102E2000114A21F000439342A8BF10BD53EA0002AB
:102E300008BF10BDB3F5801FA8BF226807DA36228D
:102E400001F0A7FA6FF0350221F000432260DFF8AD
:102E50001CC06FF31E510CEB23531A4441F0FF5179
:102E600041F00051226010BD0000F07F02FCFFFF26
:102E70002DE9F04106460C4640F2FF75174635EA4B
:102E800014502BD000221346304600F015FC25D0FC
:102E90003A463046214601F07CFA06460C4635EAB1
:102EA000145010D000221346304600F005FC15D116
:102EB0000220FDF726FBFFF7F9FE0A46214662F3E2
:102EC0001E01BDE8F0810220FDF71BFBFFF7E7FEC6
:102ED0000A46214662F31E01BDE8F08130462146D4
:102EE000BDE8F08100240920FFF708FB4FF4E13131
:102EF000482000F001F94820FFF742FFFFF7B0F942
:102F0000FFF750FB63E000203149086001203149A0
:102F1000C1F894014FF47A70FFF752FF01202C4959
:102F2000086000202B49C1F894014FF47A70FFF734
:102F300047FF2948008800F40040F8B1264800887F
:102F4000C0F30D0625A0FDF793F900250DE02948F3
:102F5000405D2949088000BF2748001F008800F015
:102F600040000028F8D0681C85B2B542EFDB23A0F2
:102F7000FDF77EF900201849088028E0601C84B223
:102F800041F2883094FBF0F100FB114028B91DA0FC
:102F9000FDF76EF923A0FDF76BF9C82094FBF0F163
:102FA00000FB114010B925A0FDF762F91E2094FB2B
:102FB000F0F100FB114038B90548006808B901205C
:102FC00000E00020024908600A20FFF7F9FE9AE7B6
:102FD0009481214200002342080000200D0AC4FA17
:102FE000B7A2CBCDB5C4CFFBCFA2CEAA3A0D0A0D66
:102FF0000A0000000C020020043801400D0A0D0AEE
:10300000000000000D0AD5BDBDA253544D3332BFA0
:10301000AAB7A2B0E520B4AEBFDACAB5D1E90D0AAD
:1030200000000000D5FDB5E3D4ADD7D340414C49F5
:10303000454E54454B0D0A0D0A000000C7EBCAE48B
:10304000C8EBCAFDBEDD2CD2D4BBD8B3B5BCFCBD29
:10305000E1CAF80D0A00000000B5254B21F000423E
:1030600087B09A4203DC0022134600922BE0214BEA
:103070009A4208D140B94FF00100FDF742FAFFF73C
:1030800008FE07B000BD03DBFFF700FE07B000BD80
:1030900002AAFFF7EDFA10F003014FF001000DD086
:1030A000012914D002291AD00DF1080C9CE80F0058
:1030B000FFF7A2FC07B081F0004100BD0DF1080C44
:1030C00000909CE80F00FFF76BFD07B000BD0DF10D
:1030D000080C9CE80F00FFF78FFC07B000BD0DF156
:1030E000080C00909CE80F00FFF75AFDE2E7000093
:1030F000FB21E93F0000F07F2DE9F05F05460E4619
:10310000300100F07FFF81462E4905FB01F000F001
:1031100079FF8246494600F093FE0746384600F0A4
:1031200051FF84B2204600F06DFF8346394601F01E
:103130007DF882464FF0834100F0ACFF814600F0FD
:1031400041FF80464FF6FF7000EA041404EB0800CC
:1031500084B21D48806940F004001B49886108461C
:10316000806940F4804088611848006820F47F60DE
:10317000164908600846006840F40B600860124871
:10318000C06840F480401049C8600846C06820F418
:103190008040C8600E480480001D008842F20C0187
:1031A00008430B49091D08800846008840F02000AC
:1031B00008800223252203210846FFF7BDF8BDE859
:1031C000F09F000040420F00001002400408014040
:1031D0000838014010B500290AD00878002807D027
:1031E00005487844FEF7DAFB002801D0002010BD26
:1031F0000248784410BD00002A1400002214000088
:1032000010B500290AD00878002807D0054878446E
:10321000FEF7C4FB002801D0002010BD024878440E
:1032200010BD00001A1400001214000021F000422A
:10323000A2F16052B2F5801F01F0004328BFD2F125
:103240007F6C0BD95FEA001C43EAC20242EB50706C
:1032500018BF704728BF20F001007047B2F5801FEB
:10326000BCBF184670474FEA410C1CF5001F02D244
:10327000084600F0D6BF70B500F0C8FB000000891A
:10328000FFF7F6BF4FF00040A0F580007047000048
:1032900010B591EA030F48BF83F0004300F1548456
:1032A000841A71EB030C05D2121943EB0C03001BBB
:1032B00061EB0C01DFF824E14FEA1154A4EB135C3D
:1032C0001EEA430F18BF9EEA445F73D023EA0E0341
:1032D000DCF1200E21EA045143F4801332D322FAA8
:1032E0000CFE10EB0E0023FA0CFE41EB0E01CCF1AC
:1032F000200E03FA0EFE10EB0E0051F10001B1F5A5
:10330000801FCCF1200E32D201EB045112FA0EF2E2
:10331000BDE8104058BF7047401C38BF5FEA42020A
:1033200018BF7047002814BF20F0010041F10001D0
:103330004FEA410313F5001F38BF7047A1F1C041A8
:1033400000F0B2BB012A43EB0302ACF1200CDCF12C
:103350001F0E32BF4FF0000E23FA0CF310EB0300E8
:1033600041EB0451B4EB115FD0D0A1EB045101F556
:10337000801149085FEA300001EB04510ED350F18F
:10338000000038BF12FA0EFE08D1BDE81040C9E7B0
:10339000401C38BF5FEA4202CAD1C3E7BDE8104013
:1033A0004FEA410313F5001F38BF7047A1F1C04138
:1033B00000F07ABB9EEA445F08D011EA5E0FBDE8D8
:1033C000104004BF01F0004100207047BDE81040EC
:1033D00070B500F01BFB00BF64FBBE3E0000E0FFC9
:1033E00002494FF0000000F0A2BF00BF0000F87FCC
:1033F000491058BFC1F140415B1058BFC3F1404371
:103400008B42EFF3008070472DE9C04130B4DFF804
:10341000A0C23CEA111418BF3CEA131400F0EC807F
:1034200081EA03051CEA111444EAD57418BF1CEAAA
:10343000131500F0C780A4EB05044FF0004545EAE2
:10344000C12145EAC32341EA505143EA525304F1F2
:103450007F74994204F500344FEAC0204FEAC2223B
:1034600008BF904200F09C804FEA13650FF24016AF
:10347000765D4FEA134506FB05F7C7F1807706FB3B
:1034800007F74FEAD737A7FB03687642C8F58038BD
:10349000A7FB06CE38BFA8F1010807FB08E64FF0EE
:1034A000000EA6FB028CE6FB03CEDCF1000CCEF195
:1034B000004E38BFAEF1010EA6FB0C584FF00007CE
:1034C0004FF00005E6FB0E87A1FB08C6A0FB07CE68
:1034D00016EB0E0645F10005E1FB076515F1E04E20
:1034E0007EBFA4F580345FEA46066D4116F1800781
:1034F00045F100054FEA17274FEA066647EA0567D8
:10350000A6F1DE46B6F1805F4FEA15251FD9384691
:1035100024F0010C05EBC471BCF1FE6F01EB0C1142
:1035200002D8F0BCBDE8008124425CBF01F5801EDA
:103530009EEAC47F02D4F0BCBDE80081244238D4A6
:10354000F0BCA1F1C041BDE8004100F0ADBA4FEAC6
:10355000D22242EA43524FEAD323A7FB02864FEA24
:10356000D02040EA415007FB03661EEA0E0F4FEAE7
:10357000D12105FB026658BFA6EB0056B6EB0056FC
:103580004FEA520E4EEAC37E18EB0E0E56EB530E68
:10359000BDD518EB02085E417F1C55F10005B6E76A
:1035A0004FF480154FF000074FF000064FF0000871
:1035B000ADE7F0BC4FF0000001F1C04101F0004167
:1035C000BDE8008111EA0C1F0CEA131500D00CE0D5
:1035D00013EA0C1F00F025804FF00000F0BC81EAD8
:1035E000030101F00041BDE80081F0BCBDE80041ED
:1035F00081EA030100F058BAF0BCBDE8004170B5A3
:1036000000F004FA097EFC3E00F007B881EA0301ED
:103610004FF0000001F00041704781EA030100F023
:1036200043BAF0BCBDE800414FF0000021497047AB
:10363000FFFDFBF9F7F5F4F2F0EEEDEBE9E8E6E477
:10364000E3E1E0DEDDDBDAD8D7D5D4D3D1D0CFCDFE
:10365000CCCBCAC8C7C6C5C4C2C1C0BFBEBDBCBB37
:10366000BAB9B8B7B6B5B4B3B2B1B0AFAEADACAB32
:10367000AAA9A8A8A7A6A5A4A3A3A2A1A09F9F9E0C
:103680009D9C9C9B9A9999989797969595949393BE
:10369000929191908F8F8E8E8D8C8C8B8B8A898955
:1036A00088888787868585848483838282818180D8
:1036B0000000FF070000F87F51EA030C17D41CF547
:1036C000801F58BFBCF5801F00F10680994218BFCB
:1036D000704708BF9042704707D711F5801F58BF49
:1036E00013F5801F19D499427047894270471CF521
:1036F000801F08D5BCF5801FF7D58B4218BF7047D7
:1037000008BF824270474FF4001C1CEB410F38BFCA
:103710001CEB430F01D28B42704770B500F076F975
:10372000922449004FF000514FF08053FFF760BEE4
:103730004FEA41034FEA5353A3F58063D3F11E03CD
:10374000C8BFD3F1210C0CDD4FF0004242EAC12288
:1037500042EA505232FA03FC8CEAE17CACEBE170B5
:103760007047102BC4BF0020704703F5787CBCF174
:10377000FF3F04D06FF0004282EA2100704770B52D
:1037800000F044F94992248000207047F2E70000DD
:103790004FEA1153A3F58063D3F11E03A8BFD3F101
:1037A000200C08DB4FF0004242EAC12252EA50529C
:1037B00032FA03F0704709420BD4102BC4BF00202B
:1037C000704703F5787CBCF1FF3F05D04FF0FF3028
:1037D00070474FF00000704770B500F017F900BF58
:1037E0004992248000207047F0E710F0004248BF63
:1037F0004042B0FA80F310FA03F10AD0C3F11D037E
:1038000003F580634FEA415002EB035202EBD121F2
:1038100070474FF000007047B0FA80F310FA03F1E0
:103820000AD0C3F11D0303F580634FEA41504FEA0C
:10383000035202EBD12170474FF0000070470000A7
:1038400051EA030C17D41CF5801F58BFBCF5801F2C
:1038500000F10680994218BF704708BF9042704738
:1038600007D711F5801F58BF13F5801F19D499424F
:103870007047894270471CF5801F08D5BCF5801F32
:10388000F7D58B4218BF704708BF824270474FF48C
:10389000001C1CEB410F38BF1CEB430F01D28B42C5
:1038A000704770B500F0B2F8922449004FF0005113
:1038B0004FF08053FFF79CBDDFF848C170B51CEA9C
:1038C000111E1EBF1CEA13159EEA0C0F95EA0C0F81
:1038D00000F06F8081EA030423EA4C134EEAD47EA1
:1038E00021EA4C1141F4801143F48013AE44A1FB52
:1038F000024CA0FB0365AEF17F7E361955EB0C053B
:10390000A1FB034C4CF10003A0FB021C16EB0C06C0
:10391000654153F10003094218BF46F0010613F454
:10392000007F0BD14FEA03314FEA0530340341EAFF
:10393000155140EA16506FF003020AE04FEAC32126
:103940004FEAC520F40241EA555140EA56506FF063
:10395000020202EB2E4201EB025585EACE710AD03B
:103960005FEA440C18BF24F0004450F1000041F11C
:10397000000120EAD47040F2FE7C624500D270BDA6
:10398000A84214BF4FF080444FF04044002E08BFBF
:103990000024BEF1806FA8BFA1F1C041BDE8704016
:1039A00080F282804FF0000001F1C04101F000413F
:1039B00070479EEA0C0F0CEA131518BF95EA0C0F1E
:1039C00006D04FF0000081EA030E0EF0004170BDFA
:1039D00000F01CF88900013E00F007B800F009B8BB
:1039E0004FEA430C5FEA5C5C08D081EA030100F017
:1039F0005BB84FEA410C5FEA5C5CF6D14FF0000027
:103A0000014970470000FF070000F87F0EF1020E29
:103A10002EF0030E5EF8046B364205D4012A43EB08
:103A2000030515F5001F12D8012841EB010C1CF508
:103A3000001F0CD80ED14FEAD17C15F5001F0CEBFE
:103A40004C0C0CF1020C08BF4CEBD37C04E04FF0A3
:103A5000080C01E04FEAD37C0CEB4C0526FA05F686
:103A600006F00706B6F1040C06D20EEB860CBDE894
:103A700070404CF0010C6047DFE80CF0090B0202CB
:103A80004FF000414FF00000A1F5002170BD194634
:103A90001046012851EB010418BFD4F5001484BF6F
:103AA000002001F0004170BD0808A0F500114FEAA8
:103AB0003101704753EA010C17D41CF5801F58BF21
:103AC000BCF5801F00F106808B4218BF704708BF0D
:103AD0008242704707D713F5801F58BF11F5801F2A
:103AE00019D48B4270479B4270471CF5801F08D544
:103AF000BCF5801FF7D5994218BF704708BF9042A8
:103B000070474FF4001C1CEB430F38BF1CEB410FF8
:103B100001D2994270470FB40CBC03BCFFF7C1BE81
:103B200091EA030F10B581F000413FF5B9AB83F086
:103B3000004300F009B8000010B591EA030F48BF38
:103B400083F000433FF5ACAB841A71EB030C07D252
:103B500012198CF0004C43EB0C03001B61EB0C01C1
:103B6000DFF8A4E14FEA1154A4EB135C1EEA430F03
:103B700018BF9EEA445F00F0B08023EA6E03524211
:103B800021EA0451C3EB6E0338BF5B1EDCF1200E4B
:103B900025D322FA0CFE10EB0E0043FA0CFE41EB8B
:103BA0000E01CCF1200E03FA0EFE10EB0E0051F1C7
:103BB0000001CCF1200E29D412FA0EF201EB0451CF
:103BC000BDE8104058BF7047401C1CBFB2F1004F09
:103BD000704700280CBF491C20F00100704712EB11
:103BE000020E43EB030218BF4FF0010E4EEA4202F1
:103BF000ACF1200CDCF11E0E54D943FA0CFE10EB94
:103C00000E0051F1FF31CCF11E0ED5D50EF1010E93
:103C100012FA0EFE404141EB010101EB445C5FEA08
:103C20005C5C10D910EBDE7001EB045138BFBEF1C3
:103C3000004FBDE8104018BF704700280CBF491C5A
:103C400020F00100704730D24FEAD42C11F500115A
:103C500024F400641BD0B1FA81F20B3AA41AA41E1A
:103C6000D2F12003914030FA03F31943904001EB65
:103C7000CC71002C01EB0451BDE81040A8BF704787
:103C800001F1C0414FF0000001F000417047B0FA6F
:103C900080F310FA03F100D110BDE41A173C480577
:103CA000C90AE4E701EB045110BD491001EB0451CE
:103CB000BDE810404FEA300002E04FF000017047CD
:103CC0004A0008BF0042F8D0B2F5001F28BF704775
:103CD00001F000414FF0000070479EEA445F07D0BA
:103CE00011EA5E0FBDE8104004BF002100207047BC
:103CF000BDE8104070B5FFF789FE00BF40DFF63E1B
:103D000083F00041104670470000E0FF43004FEA97
:103D1000D30C4FEA3C0C43401FBF40070CF16051ED
:103D200013F0FE4F70471CF0006F03D100200CF021
:103D3000004170470CF0004343EA507010B540EA70
:103D4000CC0000F028FA00BF000000924FEA00010A
:103D5000FFF7AABE4FF000414FF00000A1F500218F
:103D60007047000090EA010F48BF81F0004100F168
:103D70006E82421A3CBF801A89184FEAD0524FF027
:103D80007F4C1CEA410FA2EBD15318BF9CEA026F93
:103D900000F03B804FF0004C4CEA00204CEA01213F
:103DA00021FA03FC10EB0C0C1ED202F1FF325FEA89
:103DB0001C2040EBC25038BF70471CF07F0F4FEA09
:103DC000400C18BFBCF17F4F38BF7047C3F12003D0
:103DD000994008BF20F00100BCF17F4F38BF704709
:103DE000A0F1C04000F01DBA4FEA3C00000A40EBD1
:103DF000C25028BF1CF0FF0F4FEA400CE6D018BF9E
:103E0000BCF17F4F38BF7047EAE79CEA026F05D0EC
:103E100010EA5C0F08BF00F00040704710B500F0DA
:103E2000BAF900BF64FBBE3E401058BFC0F140402D
:103E3000491058BFC1F140418142EFF30080704703
:103E40004FF47F0C1CEAD0121EBF1CEAD11392EA79
:103E50000C0F93EA0C0F00F0858090EA010F48BF29
:103E600042F4807240F4000C41F400002CF07F41D9
:103E700020F07F4000B58142A2EB03020FF2081C44
:103E8000ACEB504EC0F100009EF800E04FEA4E0E41
:103E900000FB0EFC38BF49004FEA2C1C02F5FA0269
:103EA0000CFB0EF34FEACE1E4FEA112C4FEAC12154
:103EB0000EEB635E42EB22420EFB0CFC4FEA1C53FE
:103EC00000FB03114FEA112C4FEA01310EFB0CFCF1
:103ED0004FEADC4C00FB0C11C14228BF09184CEB27
:103EE00003335DF804EB10EB410143EBC250B2F534
:103EF0007C0F38BF704729D512F0F00F1CBF00F1BE
:103F0000C04000F00040704700818283848586872E
:103F100088898B8C8D8E8F919293959697999A9C88
:103F20009D9FA0A2A3A5A7A8AAACAEB0B2B3B5B7F7
:103F3000B9BCBEC0C2C5C7C9CCCED1D4D7D9DCDFCD
:103F4000E2E6E9ECF0F3F7FAFE0000004FEA400C7D
:103F50000CF1807CBCF17E4F28BF7047B0F1C040AF
:103F600000F05FB990EA010F0CEAD11348BF42F4A8
:103F70008072624538BF634507D213F47F0F16D0B5
:103F800080EA010000F00040704710B500F003F92E
:103F9000097EFC3E00F005B880EA010000F0004018
:103FA000704780EA010000F0004000F03AB912F4D6
:103FB0007F0F04BF0248704780EA010000F031B96A
:103FC0000000C07FC10DD1F19E0206DB4FEA002345
:103FD00043F0004323FA02F07047004207D54FEA4E
:103FE0004001B1F1FE4F02D24FF00000704710B512
:103FF00000F0D1F849922480002070476FEA200039
:1040000070470000B0FA80F310FA03F2C3F19D0389
:104010000AD0D90501EB1220530638BF704700F1D2
:10402000010008BF20F001007047000050EA010CB9
:1040300000F113801CF5000F58BFBCF5000F01D430
:104040008842704707D710F5000F58BF11F5000FD1
:1040500015D488427047894270471CF5000F04D57B
:10406000BCF5000FF7D5814270474FF0807C1CEB08
:10407000400F38BF1CEB410F01D28142704710B591
:1040800000F089F8922449004FF000504FF0805121
:10409000FFF7CABE4FF47F0C1CEAD0121EBF1CEA09
:1040A000D11392EA0C0F93EA0C0F00F0478090EACC
:1040B000010F48BF42F480724FF0004C4CEA0020E0
:1040C0004CEA012102EB0302A0FB0113A2F500025E
:1040D000002918BF43F001035B0028BF4FEA3303F8
:1040E00042EB22425FEA132C4CEBC2502EBFBCEBDA
:1040F000436FB2F57C0F70474FEA036CBCF1004F81
:1041000008BF20F00100B2F57C0F38BF70470BD517
:1041100082F0FF0212F5803FC8BF704700F1C04037
:10412000D8BF00F00040704700F5000C5FEA4C0C6F
:1041300048BF7047B0F1C04000F073B890EA010F7B
:104140000CEAD11348BF42F48072624538BF634520
:1041500004D280EA010000F00040704710B500F082
:104160001AF800BF8900013E00F007B800F009B856
:104170005FEA410C5FEA1C6C08D080EA010000F0A5
:1041800050B85FEA400C5FEA1C6CF6D14FF000407B
:10419000A0F5800070470EF1020E2EF0030E5EF8BF
:1041A000044B244204D44FEA4102B2F17F4F11D8AC
:1041B0004FEA4003B3F17F4F0CD80ED14FEAD07CC9
:1041C000B2F17F4F0CEB4C0C0CF1020C08BF4CEB26
:1041D000D17C04E04FF0080C01E04FEAD17C0CEBFD
:1041E0004C0324FA03F404F00704B4F1040C06D2DF
:1041F0000EEB840CBDE810404CF0010C6047DFE88A
:104200000CF0070802024FF00040A0F5800010BD3E
:104210000846420018BFD2F1807288BF00F000400B
:1042200010BDFF2141EAD050C005704780F000402A
:1042300090EA010F7FF59DAD81F0004100F007B8D5
:1042400090EA010F48BF81F000413FF592AD421A5C
:1042500004D882F00042A0EB020011444FEAD05291
:104260004FF07F4C1CEA410FA2EBD15318BF9CEAE0
:10427000026F4AD04FF0004C4CEA00204CEA01217A
:1042800021FA03FCB0EB0C0C0FD412F0FE0F36D069
:104290005FEA4C001DD5001240EBC25038BF70479A
:1042A0001CF03F0F18BF70470BE0A2F101025FEA5C
:1042B0001C2040EBC25038BF70471CF07F0F18BF66
:1042C0007047C3F12003994014BF401E20F0010045
:1042D000704780084FEA122308BF7047B0FA80FC8D
:1042E000A2EB0C02CCF1280C60FA0CF093EA122F2E
:1042F00004BF00EBC25070474FEAC3707047130A07
:104300005FEADC1008BF7047F6E79CEA026F04D052
:1043100010EA5C0F08BF0020704710B5FFF73BFFA5
:1043200040DFF63E81F000407047FCF720BA0CF009
:104330000F03092B08BF082000F05F800A2B0BD069
:10434000082B18BF704708BF1CF0400F0AD04FF071
:1043500000004FF0000170471CF0400F18BF4FF0F5
:10436000004070471CF0100F08D020F0704300F0A0
:104370007F4242EAD3014FEA4370704700F0604049
:1043800021F07F4242EA000201F07F4040EA727071
:1043900070474FF0FF0C4CF4E06C1CEA11531CBF4B
:1043A0009CEA030C9445C2BFDA4201EB025170470C
:1043B000002B0DD0BCF1000F0FD0002A01F00041FE
:1043C000A4BF41F0E04141F07F614FF00000704731
:1043D00001F000414FF00000704750EA01334FF008
:1043E0009B0C18BF4CF0806C7EF4FAAF7047FCF762
:1043F00013BCFDF7A7B8FDF731BA1CF4801F11D02C
:104400001CF4E02F03D06FEACC31490070474FF025
:104410004050EFF3008222F0704242EA000282F341
:10442000008870474FF00000704700000000000057
:104430004C5555555555A53F7751C1166CC156BFC2
:104440009015CB19A001FA3EAD529C804F7E92BED2
:10445000C4B1B4BD9EEE213ED43888BEE9FAA8BDF1
:1044600000004054FB21F93F3163621A61B4D03D32
:104470000000601A61B4D03D7370032E8A19A33B0B
:104480000000002E8A19A33BC14920259A837B395D
:1044900000000000000000006E83F9A22915444EC0
:1044A000D15727FCC0DD34F5999562DB4190433C40
:1044B000AB6351FE61C5BBDE3A6E24B7E0D24D421C
:1044C000EA2E49061C92D1091CEB1DFE3EA729B11C
:1044D000F53582E88444BB2E26709CE9417E5FB4AA
:1044E00039D69139F43953838B5F849C3B28F9BDCD
:1044F000FF97F81F0F9805DE8B112FEF1F6D0A5ADB
:10450000CF7E366DB709CB27663F464F2DEA5F9EBB
:10451000C7BA27757BF1E5EBF739073DEA92528A76
:10452000B15FFB6B085D8D1FA6F810111111813F63
:10453000D561C119A0012ABF7DFEB157E31DC73E59
:10454000EB9C2B8AE6E55ABE7CD5CF5A3AD9E53D9D
:1045500002400000000000A0000000000540000034
:10456000000000C8000000000C4000000000409C5B
:1045700000000000194000000020BCBE0000000048
:1045800034400000BFC91B8E00000004B54000008D
:10459000504BCFD06607E2CF010000006C41000015
:1045A0003E8251AADFEEA73401000000D94200008C
:1045B000DCB5A0E23A301F97FFFFFFFFB4450000D3
:1045C000FD25A0C8E9A3C14FFFFFFFFFFF3F00008B
:1045D0000000008000000000FF3F0000000000809D
:1045E0000000000038470008000000200C02000016
:1045F0006C010008004900080C0200202C05000096
:10460000C8010008000000000000F07F1C0000004E
:1046100043000000F8FFFFFF0C0000000E00000048
:104620000F0000002E0000001001000043000000F9
:10463000F8FFFFFF004040404040404040404141C3
:104640004141414040404040404040404040404067
:104650004040404040050202020202020202020201
:1046600002020202022020202020202020202002FE
:10467000020202020202909090909090101010108E
:10468000101010101010101010101010101010102A
:1046900002020202020288888888888808080808BE
:1046A000080808080808080808080808080808088A
:1046B00002020202400000000000000000000000B2
:1046C00000000000000000000000000000000000EA
:1046D00000000000000000000000000000000000DA
:1046E00000000000000000000000000000000000CA
:1046F00000000000000000000000000000000000BA
:1047000000000000000000000000000000000000A9
:104710000000000000000000000000000000000099
:104720000000000000000000000000000000000089
:104730000000000000000000B1387F083208640863
:104740009608C808FA082C095E098F09C009F10902
:10475000220A520A820AB10AE10A0F0B3D0B6B0BC7
:10476000980BC50BF10B1C0C470C710C9B0CC30C6C
:10477000EB0C130D390D5F0D840DA80DCB0DED0D58
:104780000E0E2F0E4E0E6C0E8A0EA60EC20EDC0EF4
:10479000F50E0E0F250F3B0F500F640F760F880F8D
:1047A000980FA70FB50FC20FCE0FD80FE10FE90F6B
:1047B000F00FF60FFA0FFD0FFF021AFD0C1AF61498
:1047C0001AE91C1AD8241AC22C1AA7341A883C1ABF
:1047D00064441A3B4C1C0E0FF5581AC2601A8A68C2
:1047E0001A4E701C0E0EED7C1AA8841A5F8C1C13D6
:1047F0000DEB981A9BA01E470C1C0CF1B01A98B830
:104800001E3D0B0F0BE1C81A82D01C220AF1DC1AE4
:104810008FE41C2C09FAF01A96F8105C3208FF0796
:10482000CD079B07690737070507D306A106700662
:104830003F060E06DD05AD057D054E051E05F0049F
:10484000C204940467043A040E04E303B8038E031D
:1048500064033C031403EC02C602A0027B0257026D
:1048600034021202F101D001B10193017501590125
:104870003D0123010A01F112DA12C412AF129B1298
:1048800089127712671258124A123D1231122712FA
:104890001E1216120F1209120572021A020C1A09C0
:1048A000141A161C1A27241A3D2C1A58341A773C4D
:1048B0001A9B441AC44C12F11A0A581A3D601A7510
:1048C000681AB1701CF101127C1A57841AA08C1C52
:1048D000EC0214981A64A01EB803E3030EB01A6722
:1048E000B81EC204F0041EC81A7DD01CDD050EDC03
:1048F0001A70E41CD30605F01A69F823CD070000EE
:0400000508000131BD
:00000001FF
