:020000040800F2
:1000000040070020CD010008D1010008D3010008FD
:10001000D5010008D7010008D90100080000000040
:10002000000000000000000000000000DB010008EC
:10003000DD01000800000000DF010008E101000808
:10004000E3010008E3010008E3010008E301000800
:10005000E3010008E3010008E3010008E3010008F0
:10006000E3010008E3010008E3010008E3010008E0
:10007000E3010008E3010008E3010008E3010008D0
:10008000E3010008E3010008E3010008E3010008C0
:10009000E3010008E3010008E3010008E3010008B0
:1000A000E3010008E3010008E3010008E3010008A0
:1000B000E3010008E3010008E3010008E301000890
:1000C000E3010008E3010008E3010008E301000880
:1000D000E3010008150B0008E3010008E301000834
:1000E000E3010008E3010008E3010008E301000860
:1000F000E3010008E3010008E3010008E301000850
:10010000E3010008E3010008E3010008E30100083F
:10011000E3010008E3010008E3010008E30100082F
:10012000E3010008E3010008E3010008E30100081F
:1001300000F002F800F03AF80AA090E8000C8244BF
:100140008344AAF10107DA4501D100F02FF8AFF29C
:10015000090EBAE80F0013F0010F18BFFB1A43F0A5
:10016000010318470C1E00002C1E0000103A24BF8B
:1001700078C878C1FAD8520724BF30C830C144BF0C
:1001800004680C607047000000230024002500264E
:10019000103A28BF78C1FBD8520728BF30C148BFEA
:1001A0000B6070471FB51FBD10B510BD00F040F8C3
:1001B0001146FFF7F7FF01F065F800F05EF803B4B1
:1001C000FFF7F2FF03BC01F01BF8000008480047EE
:1001D000FEE7FEE7FEE7FEE7FEE7FEE7FEE7FEE7F7
:1001E000FEE7FEE703480449024A044B704700005B
:1001F0003101000840030020400700204003002098
:100200007047704770477047704710B500F008F8A6
:10021000006810BD10B5044600F002F8046010BD7F
:1002200000487047DC02002000487047DC020020D4
:100230007546FFF7F9FFAE4605006946534620F0C4
:100240000700854618B020B5FFF7CCFFBDE8204079
:100250004FF000064FF000074FF000084FF0000B82
:1002600021F00701AC46ACE8C009ACE8C009ACE835
:10027000C009ACE8C0098D4670470446AFF3008062
:100280002046FFF79CFF000039B1084A126801239D
:1002900083401A43054B1A6006E0044A12680123A2
:1002A00083409A43014B1A6070470000007400407D
:1002B00041B1094A12684FF4805383401A43064BF8
:1002C0001A6007E0044A12684FF4805383409A434F
:1002D000014B1A60704700000074004030B50022E6
:1002E00000230A4C226840F6FE748440A243D1E900
:1002F00000452C438D682C43CD6844EA050303FA7E
:1003000000F42243014C226030BD00000074004024
:100310000021016041608160C160704721B10268C5
:1003200042F00102026004E002684FF6FE731A40D8
:100330000260704701684FF6FE72114001600021B3
:10034000016041608160C1604B49884208D14A49DF
:100350000839496841F00F01474A083A51608AE07C
:1003600045491431884208D143490839496841F068
:10037000F001414A083A51607DE03F492831884206
:1003800008D13D490839496841F470613A4A083A50
:10039000516070E038493C31884208D1364908390B
:1003A000496841F47041344A083A516063E0324987
:1003B0005031884208D130490839496841F47021E8
:1003C0002D4A083A516056E02B496431884208D1E1
:1003D00029490839496841F47001274A083A5160AF
:1003E00049E025497831884208D1234908394968CC
:1003F00041F07061204A083A51603CE01F49884250
:1004000006D1011F096841F00F01021F116032E09F
:100410001A491431884208D11849091F096841F066
:10042000F001164A121F116025E014492831884254
:1004300008D11249091F096841F470610F4A121F5F
:10044000116018E00D493C31884208D10B49091F61
:10045000096841F47041094A121F11600BE0074915
:100460005031884207D10549091F096841F47021BC
:10047000024A121F1160704708000240080402403F
:1004800010B50022026847F6F0739A430C6A8B6835
:1004900023430C6923434C6923438C692343CC6970
:1004A00023434C6A23438C6A23431A430260CB687C
:1004B00043600B6883604B68C36010BD2DE9F04159
:1004C000024600250026002000230024002791F882
:1004D00003C00CF00F0591F803C00CF0100CBCF138
:1004E000000F03D091F802C04CEA050591F800C056
:1004F000BCF1000F31D0146800202BE04FF0010C4C
:100500000CFA00F3B1F800C00CEA03069E4220D1B9
:1005100083004FF00F0C0CFA03F7BC4305FA03FC01
:100520004CEA040491F803C0BCF1280F06D14FF047
:10053000010C0CFA00FCC2F814C00AE091F803C0E8
:10054000BCF1480F05D14FF0010C0CFA00FCC2F8C9
:1005500010C0401C0828D1D31460B1F800C0BCF111
:10056000FF0F34DD546800202EE000F1080C4FF03E
:10057000010808FA0CF3B1F800C00CEA03069E4229
:1005800021D183004FF00F0C0CFA03F7BC4305FA9E
:1005900003FC4CEA040491F803C0BCF1280F05D118
:1005A00000F1080C08FA0CF8C2F8148091F803C0A6
:1005B000BCF1480F07D100F1080C4FF0010808FA10
:1005C0000CF8C2F81080401C0828CED35460BDE857
:1005D000F0810161704700001848806940F0080010
:1005E000164988610846806940F0400088611448D7
:1005F000006820F47000124908600846006840F462
:10060000401008600E480C30006840F020000C4993
:100610000C3108600B48006820F47000094908603C
:100620000846006840F44010086006480C30006836
:1006300040F0200003490C31086070470010024070
:10064000000C01400018014000B500201549086168
:10065000C8601420486100208861C86108460068AD
:1006600040F001000860084640680F4908400D4905
:100670004860084600680D4908400A490860084675
:10068000006820F4802008600846406820F4FE00DE
:1006900048600020886000214FF0006000F008F8FA
:1006A00000BD0000001002400000FFF8FFFFF6FE52
:1006B000024A0A400243024B1A60704780FFFF1F44
:1006C00008ED00E029B1064A52690243044B5A6121
:1006D00004E0034A52698243014B5A6170470000AB
:1006E0000010024029B1064AD2690243044BDA6184
:1006F00004E0034AD2698243014BDA61704700008B
:100700000010024029B1064A92690243044B9A61E3
:1007100004E0034A92698243014B9A6170470000EA
:100720000010024070B504460B48B0FBF4F085B2EF
:100730000A494FF4807000F073F800F0FBF8284687
:1007400000F012F900F00CF800F026F801218807FB
:1007500000F06EF970BD0000A24A0400DC00002029
:100760001FB501214807FFF7BDFF6846FFF7D0FD21
:100770000020019002200390242000906946002070
:10078000FFF7ACFD01210020FFF77EFD01210020D5
:10079000FFF78EFD1FBD000000B58BB001210220C8
:1007A000FFF790FF1B48FFF7C5FD1B4800901B4853
:1007B00001901020029000010390002004908020FE
:1007C00005904000069080000790202008904FF48C
:1007D0004050099000200A9069460E48FFF750FEED
:1007E0000C481430FFF7A6FD0B480C3000904FF476
:1007F00040500990694607481430FFF741FE012137
:100800000448FFF78BFD012102481430FFF786FDF5
:100810000BB000BD3004024008740040DC00002032
:100820002DE9F0479AB00546884600246AE038482A
:10083000006801F023FA06460022364B00F09AFDCC
:10084000CDE912013448006801F018FA0646334A2F
:10085000334B01F01FF8CDE90801681E00F0EFFFEF
:10086000CDE90201204601F001F806460022294B9D
:1008700001F010F8CDE90001DDE9022300F02AFEC5
:10088000814600224FF0804301F004F8254A264BB0
:10089000CDE9040100F0FEFFCDE90601DDE9082302
:1008A00000F068FDCDE90A0100F014FDCDE90E016C
:1008B0001748006801F0E2F906460022154B00F0E7
:1008C00059FDCDE90C01DDE90E2300F0E3FFCDE990
:1008D0001001DDE9122300F04DFD0022134BCDE99C
:1008E000140100F0D7FF4FF06632114BCDE916012D
:1008F00000F0F0FDCDE9180100F074FF28F81400B5
:10090000601C84B2AC4292DB1AB0BDE8F0870000F4
:100910000C0000200000F03F10000020514CDE00D1
:1009200033DF913F4AD8124DFB21094000FEAF4012
:1009300066660A4008B501210420FFF7E3FE102097
:100940008DF8030003208DF802002020ADF8000090
:1009500020210448FFF73DFE69460248FFF7AEFD3F
:1009600008BD0000000801403EB5044601210846CC
:10097000FFF7B8FE684600F0C3F80020ADF80000AD
:10098000ADF80600A0B2ADF8040069464FF0804013
:1009900000F064F82021480600F056F83EBD000043
:1009A00030B504460025FFF74FFE1F48006840F4AD
:1009B00080301D49086000BF1B480068400C0028BB
:1009C000FAD04FF4806018494860A01EC4B20846AF
:1009D000406840EA844048600846406840F48030FF
:1009E00048601248006840F03200104908600E4824
:1009F000006840F080700C49086000BF0A48006839
:100A0000400E0028FAD00848406840F0020006492D
:100A1000486005E004484068C0F3870505F0030519
:100A2000022DF7D130BD000000100240002002402E
:100A300021B1028842F00102028004E002884FF6F0
:100A4000FE731A400280704782884FF68F731A40F7
:100A5000828082880A4382807047000000220288D8
:100A60001D4B98420ED01D4B98420BD0B0F1804FD9
:100A700008D01B4B984205D01A4B984202D01A4B13
:100A8000984204D14FF68F731A404B881A43174B84
:100A9000984207D0164B984204D04FF6FF431A40B5
:100AA000CB881A4302808B8883850B8803850A4B89
:100AB00098420BD0094B984208D00E4B984205D073
:100AC0000D4B984202D00D4B984201D10B7A038610
:100AD0000123838270470000002C01400034014054
:100AE0000004004000080040000C004000100040DE
:100AF0000014004000400140004401400048014013
:100B00004FF6FF71818000210180C1804180017218
:100B1000704700001D49098801F0200111B31B49ED
:100B2000091D0988C8B21A49098801F40041C9B9E8
:100B30001749098801F4804161B10A2803D00021D6
:100B4000134A118020E01249098841F40041104AFB
:100B5000118019E00D2806D10D49098841F4804122
:100B60000B4A118010E00A490988C1F30D01094AB6
:100B7000505407490988491C054A118011460988C3
:100B8000C72901DD002111807047000000380140B5
:100B90000800002014000020490050EAC12018BFBE
:100BA00004204A0D18BF40F0010040F2FF72B2EB82
:100BB000515F08BF40F00200012808BF05207047C0
:100BC0002DE9F74F144694B00021C4E9021115999C
:100BD000079121F00045C9498D4206DC1599C4E909
:100BE000000117B00020BDE8F08FC549DFF814A35D
:100BF000A9423CDD0799C44E0029C44FC44A159947
:100C0000534619DD00F050FF554506D0C14AC24B8E
:100C100000F04AFFC4E900010AE04FF0D352BE4B96
:100C200000F042FF32463B4600F03EFFC4E90001BF
:100C300017B00120BDE8F08F00F09CFB554506D0B1
:100C4000B44AB54B00F096FBC4E900010AE04FF04E
:100C5000D352B14B00F08EFB32463B4600F08AFB8C
:100C6000C4E9000117B04FF0FF30BDE8F08FAB4989
:100C7000A942159978DB21F0004183468846A84AAD
:100C8000A84B00F007FE0022A74B00F073FB00F01A
:100C900079FD099000F0D3FD06460F469C4A534665
:100CA00000F0F8FD43465A4600F0F2FE80468A46C0
:100CB000984A994B3046394600F0ECFD2A0D012543
:100CC0000B924246534600F0E3FE032DC4E90001B7
:100CD00039D00B98C1F30A51401A05EB451111396F
:100CE000814230DA9148C346784400EB0510CDF8D4
:100CF0000CA00C90D0E900233046394600F0CAFD24
:100D000002460B46049106905846039900F0CCFE2B
:100D100080468A4602460B465846039900F0C4FEB8
:100D2000049B069A00F0C0FE83460C980391394656
:100D3000D0E90223304600F0ADFD5A46039B00F097
:100D4000B3FE6D1CBDE707980028A2BF099817B035
:100D5000BDE8F08F616881F000416160099817B0CB
:100D60004042BDE8F08FFFE784461598C1F31301B8
:100D7000C0F30A50A0F2F5304FEA601800F01F06E9
:100D8000C6F12000139000200690079041F4801EC9
:100D900005206D4676B1664A08EB00017A4452F8A8
:100DA000213002EB8101B3404A68139922FA01F124
:100DB000194305E05F4908EB0002794451F822101D
:100DC000A1FB0E27A1FB0C131A449A4234BF012346
:100DD000002303EB070A05EB8003D3E901B70F44B7
:100DE0008F4234BF0121002193448B4411B19345BC
:100DF00002D903E0934501D2012100E00021C3E9BB
:100E000001B7514445F82010011EA0F10100C1DCDA
:100E10000298059F00F10050800F12900298DDE9C2
:100E20000356800000F00BFD834628460D9100F02C
:100E30001DFD6FF01D0200F0C4FFCDE90E0130462C
:100E400000F014FD6FF03D0200F0BBFF80468A46C3
:100E5000384600F00BFD6FF05D0200F0B2FF074670
:100E600042465346119100F085FADDE90E2300F069
:100E700081FA5A460D9B00F07DFA00250E465A462F
:100E800028460D9B00F010FEDDE90E2300F00CFE5D
:100E90004246534600F008FE3A46119B00F0F8FD2A
:100EA000DFF898A0244A534600F0F4FC0746884631
:100EB000234A244B3146284600F0ECFC3A46434690
:100EC00000F058FA074688464FF0A842534631468C
:100ED000284600F0DFFC3A46434600F04BFA159AEC
:100EE00012F0004F04D0129A81F000415242129247
:100EF000C4E90001129817B0BDE8F08FFB21E93F6B
:100F00007CD90240FB21F93F7370032E8A19A33B61
:100F1000000040543163621A61B4D03DFB21394175
:100F200083C8C96D305FE43F0000E03F94110000CA
:100F300010110000F2100000182D4454FB21F93D5F
:100F40003326A611460B113C2DE9FF4D21F0004838
:100F500007460C46B8F1795F08DA00F013FC002868
:100F600001BF0020324904B0BDE8F08D3A46234667
:100F70001046194600F08EFC054602462D480E46E6
:100F80000B460621784400F05DF82A46334600F00F
:100F900081FCDDE9022382468B463846214600F07B
:100FA00079FC04460F4652465B462846314600F01F
:100FB00071FC22463B4600F077FD07468A464FF01B
:100FC000FF322846314600F0FCFE1B4A90450ADA03
:100FD0003A46534600F068FD04B00022BDE8F04DEB
:100FE000134B00F055BD154A4245A8BFA8F50015A2
:100FF0004FF00004B8BF124D22462B4600F054FDBE
:101000000646884622462B460020094900F04CFD42
:1010100004460D463A4653463046414600F044FDEC
:1010200004B022462B46BDE8F04D00F031BD000073
:101030000000F03FC80E00003333D33F0000E93F0B
:101040000000D23F2DE9F0414F1E00EBC7010446DE
:10105000D1E9000115461E4637F006020DD02A469A
:10106000334600F017FC7F1E04EBC703D3E90023CF
:1010700000F080F937F00602F1D1022F25D0042FBD
:1010800013D0062F18BFBDE8F0812A46334600F082
:1010900001FCD4E90A2300F06DF92A46334600F03A
:1010A000F9FBD4E9082300F065F92A46334600F03D
:1010B000F1FBD4E9062300F05DF92A46334600F03F
:1010C000E9FBD4E9042300F055F92A46334600F041
:1010D000E1FBD4E9022300F04DF92A46334600F043
:1010E000D9FBD4E90023BDE8F04100F043B900008A
:1010F0002DE9FF4D054621F0004084B00C46B0F1CB
:10110000795F0BDA2846FFF747FD042808BF00F097
:101110006FF8284608B02146BDE8F08D2A460B46F8
:10112000104600F0B7FB06460F462A46234600F05D
:10113000B1FB804626488A4632463B460521784424
:10114000FFF780FF83461098029160B3214A224B3B
:101150004046514600F09EFBCDE900015A4640460C
:101160005146029B00F096FB82468846DDE9060167
:101170004FF0FF3200F025FE5246434600F094FC4B
:1011800032463B4600F086FBDDE9062300F08CFC8E
:10119000DDE9002300F088FC08B02A462346BDE8BC
:1011A000F04D00F075BC0B465A463046394600F00B
:1011B00071FB084A084B00F0DDF84246534600F048
:1011C00069FB08B02A462346BDE8F04D00F0D2B8CE
:1011D000060E0000495555555555C5BF012200F072
:1011E000F0BD002213461046114600F073B900000E
:1011F000024A0020110700F0E4BD000001FDFFFFDE
:10120000014600BF704700004FF0E021096921F05E
:1012100004014FF0E0221161C21700EB5272C2F3D9
:10122000C702074B1A701946097801EB4102C2EB5D
:10123000C1114FF6FF7202EAC101024A11807047E4
:10124000000000200200002001460D4A12884A4397
:101250004FF0E0235A6100229A6101221A6100BF17
:101260004FF0E022106900F001021AB100F4803260
:10127000002AF5D000224FF0E0231A619A617047EE
:10128000020000200920FFF78BFB4820FFF7BCFF7E
:10129000FFF7A2F93220FFF745FA15E000200B49CD
:1012A000086001200A49C1F894014FF47A70FFF7F1
:1012B000CBFF01200549086000200549C1F89401D1
:1012C0004FF47A70FFF7C0FFE8E7000094812142F5
:1012D0000000234200B5254B21F0004287B09A421E
:1012E00003DC0022134600922BE0214B9A4208D1E6
:1012F00040B94FF00100FEF78DFFFFF772FF07B016
:1013000000BD03DBFFF76AFF07B000BD02AAFFF7CD
:1013100057FC10F003014FF001000DD0012914D04B
:1013200002291AD00DF1080C9CE80F00FFF70CFE03
:1013300007B081F0004100BD0DF1080C00909CE861
:101340000F00FFF7D5FE07B000BD0DF1080C9CE8BB
:101350000F00FFF7F9FD07B000BD0DF1080C00907C
:101360009CE80F00FFF7C4FEE2E70000FB21E93F25
:101370000000F07F10B591EA030F48BF83F00043EF
:1013800000F19A83841A71EB030C05D2121943EB16
:101390000C03001B61EB0C01DFF824E14FEA115450
:1013A000A4EB135C1EEA430F18BF9EEA445F73D0A0
:1013B00023EA0E03DCF1200E21EA045143F48013EA
:1013C00032D322FA0CFE10EB0E0023FA0CFE41EB96
:1013D0000E01CCF1200E03FA0EFE10EB0E0051F1BF
:1013E0000001B1F5801FCCF1200E32D201EB045187
:1013F00012FA0EF2BDE8104058BF7047401C38BFCB
:101400005FEA420218BF7047002814BF20F00100B5
:1014100041F100014FEA410313F5001F38BF704747
:10142000A1F1C04100F02EBB012A43EB0302ACF155
:10143000200CDCF11F0E32BF4FF0000E23FA0CF32C
:1014400010EB030041EB0451B4EB115FD0D0A1EBE2
:10145000045101F5801149085FEA300001EB0451A5
:101460000ED350F1000038BF12FA0EFE08D1BDE8CD
:101470001040C9E7401C38BF5FEA4202CAD1C3E747
:10148000BDE810404FEA410313F5001F38BF704715
:10149000A1F1C04100F0F6BA9EEA445F08D011EA1B
:1014A0005E0FBDE8104004BF01F00041002070470E
:1014B000BDE8104070B500F097FA00BF64FBBE3E77
:1014C0000000E0FF02494FF0000000F048BC00BF00
:1014D0000000F87F2DE9C04130B4DFF8A0C23CEA3B
:1014E000111418BF3CEA131400F0EC8081EA0305E4
:1014F0001CEA111444EAD57418BF1CEA131500F055
:10150000C780A4EB05044FF0004545EAC12145EA38
:10151000C32341EA505143EA525304F17F74994284
:1015200004F500344FEAC0204FEAC22208BF9042BF
:1015300000F09C804FEA13650FF24016765D4FEA8B
:10154000134506FB05F7C7F1807706FB07F74FEA5F
:10155000D737A7FB03687642C8F58038A7FB06CECD
:1015600038BFA8F1010807FB08E64FF0000EA6FB04
:10157000028CE6FB03CEDCF1000CCEF1004E38BF4E
:10158000AEF1010EA6FB0C584FF000074FF000051E
:10159000E6FB0E87A1FB08C6A0FB07CE16EB0E06E6
:1015A00045F10005E1FB076515F1E04E7EBFA4F5AE
:1015B00080345FEA46066D4116F1800745F100056B
:1015C0004FEA17274FEA066647EA0567A6F1DE46A7
:1015D000B6F1805F4FEA15251FD9384624F0010C7B
:1015E00005EBC471BCF1FE6F01EB0C1102D8F0BC2D
:1015F000BDE8008124425CBF01F5801E9EEAC47FE5
:1016000002D4F0BCBDE80081244238D4F0BCA1F182
:10161000C041BDE8004100F035BA4FEAD22242EAAB
:1016200043524FEAD323A7FB02864FEAD02040EA79
:10163000415007FB03661EEA0E0F4FEAD12105FB5E
:10164000026658BFA6EB0056B6EB00564FEA520EA4
:101650004EEAC37E18EB0E0E56EB530EBDD518EBBB
:1016600002085E417F1C55F10005B6E74FF4801576
:101670004FF000074FF000064FF00008ADE7F0BC58
:101680004FF0000001F1C04101F00041BDE80081D0
:1016900011EA0C1F0CEA131500D00CE013EA0C1F22
:1016A00000F025804FF00000F0BC81EA030101F05A
:1016B0000041BDE80081F0BCBDE8004181EA0301C2
:1016C00000F0E0B9F0BCBDE8004170B500F08CF965
:1016D000097EFC3E00F007B881EA03014FF00000EC
:1016E00001F00041704781EA030100F0CBB9F0BC82
:1016F000BDE800414FF0000021497047FFFDFBF9B4
:10170000F7F5F4F2F0EEEDEBE9E8E6E4E3E1E0DE34
:10171000DDDBDAD8D7D5D4D3D1D0CFCDCCCBCAC8A6
:10172000C7C6C5C4C2C1C0BFBEBDBCBBBAB9B8B7CD
:10173000B6B5B4B3B2B1B0AFAEADACABAAA9A8A8C0
:10174000A7A6A5A4A3A3A2A1A09F9F9E9D9C9C9B8E
:101750009A99999897979695959493939291919039
:101760008F8F8E8E8D8C8C8B8B8A898988888787CA
:101770008685858484838382828181800000FF073F
:101780000000F87F4FEA41034FEA5353A3F580630B
:10179000D3F11E03C8BFD3F1210C0CDD4FF0004282
:1017A00042EAC12242EA505232FA03FC8CEAE17C5E
:1017B000ACEBE1707047102BC4BF0020704703F5FD
:1017C000787CBCF1FF3F04D06FF0004282EA210038
:1017D000704770B500F008F94992248000207047E6
:1017E000F2E700004FEA1153A3F58063D3F11E0323
:1017F000A8BFD3F1200C08DB4FF0004242EAC1221F
:1018000052EA505232FA03F0704709420BD4102BBF
:10181000C4BF0020704703F5787CBCF1FF3F05D0C2
:101820004FF0FF3070474FF00000704770B500F088
:10183000DBF800BF4992248000207047F0E710F0E9
:10184000004248BF4042B0FA80F310FA03F10AD0D8
:10185000C3F11D0303F580634FEA415002EB0352CD
:1018600002EBD12170474FF000007047B0FA80F3CF
:1018700010FA03F10AD0C3F11D0303F580634FEAA8
:1018800041504FEA035202EBD12170474FF0000064
:1018900070470000DFF848C170B51CEA111E1EBF7A
:1018A0001CEA13159EEA0C0F95EA0C0F00F06F80EE
:1018B00081EA030423EA4C134EEAD47E21EA4C1158
:1018C00041F4801143F48013AE44A1FB024CA0FB11
:1018D0000365AEF17F7E361955EB0C05A1FB034C79
:1018E0004CF10003A0FB021C16EB0C06654153F102
:1018F0000003094218BF46F0010613F4007F0BD124
:101900004FEA03314FEA0530340341EA155140EA0A
:1019100016506FF003020AE04FEAC3214FEAC520D8
:10192000F40241EA555140EA56506FF0020202EBD0
:101930002E4201EB025585EACE710AD05FEA440CD3
:1019400018BF24F0004450F1000041F1000120EAEA
:10195000D47040F2FE7C624500D270BDA84214BF34
:101960004FF080444FF04044002E08BF0024BEF1E9
:10197000806FA8BFA1F1C041BDE8704080F28280B5
:101980004FF0000001F1C04101F0004170479EEAB4
:101990000C0F0CEA131518BF95EA0C0F06D04FF088
:1019A000000081EA030E0EF0004170BD00F01CF84B
:1019B0008900013E00F007B800F009B84FEA430C77
:1019C0005FEA5C5C08D081EA030100F05BB84FEA93
:1019D000410C5FEA5C5CF6D14FF0000001497047B2
:1019E0000000FF070000F87F0EF1020E2EF0030E3C
:1019F0005EF8046B364205D4012A43EB030515F566
:101A0000001F12D8012841EB010C1CF5001F0CD857
:101A10000ED14FEAD17C15F5001F0CEB4C0C0CF1EC
:101A2000020C08BF4CEBD37C04E04FF0080C01E043
:101A30004FEAD37C0CEB4C0526FA05F606F00706B8
:101A4000B6F1040C06D20EEB860CBDE870404CF0EB
:101A5000010C6047DFE80CF0090B02024FF0004177
:101A60004FF00000A1F5002170BD19461046012875
:101A700051EB010418BFD4F5001484BF002001F01D
:101A8000004170BD0808A0F500114FEA3101704710
:101A900091EA030F10B581F000413FF573AC83F07C
:101AA000004300F009B8000010B591EA030F48BFE9
:101AB00083F000433FF566AC841A71EB030C07D248
:101AC00012198CF0004C43EB0C03001B61EB0C0172
:101AD000DFF8A4E14FEA1154A4EB135C1EEA430FB4
:101AE00018BF9EEA445F00F0B08023EA6E035242C2
:101AF00021EA0451C3EB6E0338BF5B1EDCF1200EFC
:101B000025D322FA0CFE10EB0E0043FA0CFE41EB3B
:101B10000E01CCF1200E03FA0EFE10EB0E0051F177
:101B20000001CCF1200E29D412FA0EF201EB04517F
:101B3000BDE8104058BF7047401C1CBFB2F1004FB9
:101B4000704700280CBF491C20F00100704712EBC1
:101B5000020E43EB030218BF4FF0010E4EEA4202A1
:101B6000ACF1200CDCF11E0E54D943FA0CFE10EB44
:101B70000E0051F1FF31CCF11E0ED5D50EF1010E44
:101B800012FA0EFE404141EB010101EB445C5FEAB9
:101B90005C5C10D910EBDE7001EB045138BFBEF174
:101BA000004FBDE8104018BF704700280CBF491C0B
:101BB00020F00100704730D24FEAD42C11F500110B
:101BC00024F400641BD0B1FA81F20B3AA41AA41ECB
:101BD000D2F12003914030FA03F31943904001EB16
:101BE000CC71002C01EB0451BDE81040A8BF704738
:101BF00001F1C0414FF0000001F000417047B0FA20
:101C000080F310FA03F100D110BDE41A173C480527
:101C1000C90AE4E701EB045110BD491001EB04517E
:101C2000BDE810404FEA300002E04FF0000170477D
:101C30004A0008BF0042F8D0B2F5001F28BF704725
:101C400001F000414FF0000070479EEA445F07D06A
:101C500011EA5E0FBDE8104004BF0021002070476C
:101C6000BDE8104070B5FFF7BFFE00BF40DFF63E95
:101C700083F00041104670470000E0FF43004FEA48
:101C8000D30C4FEA3C0C43401FBF40070CF160519E
:101C900013F0FE4F70471CF0006F03D100200CF0D2
:101CA000004170470CF0004343EA507010B540EA21
:101CB000CC0000F00EF800BF000000924FEA0001D7
:101CC000FFF7E0BE4FF000414FF00000A1F500210A
:101CD00070470EF1020E2EF0030E5EF8044B244204
:101CE00004D44FEA4102B2F17F4F11D84FEA4003CA
:101CF000B3F17F4F0CD80ED14FEAD07CB2F17F4FB9
:101D00000CEB4C0C0CF1020C08BF4CEBD17C04E04A
:101D10004FF0080C01E04FEAD17C0CEB4C0324FAA5
:101D200003F404F00704B4F1040C06D20EEB840CA7
:101D3000BDE810404CF0010C6047DFE80CF00708EC
:101D400002024FF00040A0F5800010BD084642009E
:101D500018BFD2F1807288BF00F0004010BD0CF0B7
:101D60000F03092B08BF082000F059800A2B0BD065
:101D7000082B18BF704708BF1CF0400F0AD04FF067
:101D800000004FF0000170471CF0400F18BF4FF0EB
:101D9000004070471CF0100F08D020F0704300F096
:101DA0007F4242EAD3014FEA4370704700F060403F
:101DB00021F07F4242EA000201F07F4040EA727067
:101DC00070474FF0FF0C4CF4E06C1CEA11531CBF41
:101DD0009CEA030C9445C2BFDA4201EB0251704702
:101DE000002B0DD0BCF1000F0FD0002A01F00041F4
:101DF000A4BF41F0E04141F07F614FF00000704727
:101E000001F000414FF00000704750EA01334FF0FD
:101E10009B0C18BF4CF0806C7FF454AB70471CF4E3
:101E2000801F11D01CF4E02F03D06FEACC314900A1
:101E300070474FF04050EFF3008222F0704242EAC8
:101E4000000282F3008870474FF0000070470000E6
:101E50004C5555555555A53F7751C1166CC156BFC8
:101E60009015CB19A001FA3EAD529C804F7E92BED8
:101E7000C4B1B4BD9EEE213ED43888BEE9FAA8BDF7
:101E800000004054FB21F93F3163621A61B4D03D38
:101E90000000601A61B4D03D7370032E8A19A33B11
:101EA0000000002E8A19A33BC14920259A837B3963
:101EB00000000000000000006E83F9A22915444EC6
:101EC000D15727FCC0DD34F5999562DB4190433C46
:101ED000AB6351FE61C5BBDE3A6E24B7E0D24D4222
:101EE000EA2E49061C92D1091CEB1DFE3EA729B122
:101EF000F53582E88444BB2E26709CE9417E5FB4B0
:101F000039D69139F43953838B5F849C3B28F9BDD2
:101F1000FF97F81F0F9805DE8B112FEF1F6D0A5AE0
:101F2000CF7E366DB709CB27663F464F2DEA5F9EC1
:101F3000C7BA27757BF1E5EBF739073DEA92528A7C
:101F4000B15FFB6B085D8D1FA6F810111111813F69
:101F5000D561C119A0012ABF7DFEB157E31DC73E5F
:101F6000EB9C2B8AE6E55ABE7CD5CF5A3AD9E53DA3
:101F7000901F000800000020140000006C01000801
:101F8000A41F0008140000202C070000880100088E
:101F90000000000000000000000000000000000041
:041FA000000000003D
:0400000508000131BD
:00000001FF
