:020000040800F2
:1000000098040020C1010008DF050008650500080C
:10001000DD05000809020008A5090008000000002D
:10002000000000000000000000000000DD060008E5
:100030002904000800000000E1050008B5070008D9
:10004000DB010008DB010008DB010008DB01000820
:10005000DB010008DB010008DB010008DB01000810
:10006000DB010008DB010008DB010008DB01000800
:10007000DB010008DB010008DB010008DB010008F0
:10008000DB010008DB010008DB010008DB010008E0
:10009000DB010008DB010008DB010008DB010008D0
:1000A000DB010008DB010008DB010008DB010008C0
:1000B000DB010008DB010008DB010008DB010008B0
:1000C000DB010008DB010008DB010008DB010008A0
:1000D000DB010008DB010008DB010008DB01000890
:1000E000DB010008DB010008DB010008DB01000880
:1000F000DB010008DB010008DB010008DB01000870
:10010000DB010008DB010008DB010008DB0100085F
:10011000DB010008DB010008DB010008DB0100084F
:10012000DB010008DB010008DB010008DB0100083F
:10013000DB010008DB010008DB010008DB0100082F
:10014000DB010008DB010008DB010008DB0100081F
:10015000DB010008DB010008DB010008DB0100080F
:10016000DB010008DB010008DB010008DB010008FF
:10017000DB010008DB010008DB010008DB010008EF
:10018000DB010008DB010008DB010008DB010008DF
:10019000DB010008DB010008DB010008DB010008CF
:1001A000DB010008DB010008DB010008DFF80CD0F0
:1001B00000F018F8004800471D0A000898040020C5
:1001C0000648804706480047FEE7FEE7FEE7FEE7F1
:1001D000FEE7FEE7FEE7FEE7FEE7FEE7B9070008F9
:1001E000AD010008064C074D06E0E06840F0010351
:1001F00094E8070098471034AC42F6D3FFF7DAFFD3
:10020000FC0A00081C0B0008FEE700000122064B58
:100210008240002903D0186810431860704718689E
:1002200090431860704700000074004030B587B0FC
:100230000121084600F0D6F90121480700F0E0F955
:100240001020059003208DF8180000248DF81B4025
:10025000124D05A9284600F035F92021059105A980
:10026000284600F02FF9242001900294049401A95B
:10027000002000F059F801A9102000F055F80121E4
:100280000020FFF7C3FF01211020FFF7BFFF01216E
:10029000002000F005F807B030BD0000000002406B
:1002A000064B9A148240002903D018681043186046
:1002B0007047186890431860704700000074004051
:1002C00010B590B00121480500F08CF94FF0606046
:1002D0000190124802901248039040200490202080
:1002E0000590002006904FF48061079189000891E5
:1002F0008900099189110A9149020B910C900321FF
:100300000D910E900F90074C01A9204600F062F865
:100310000121204600F051F810B010BD20740040BB
:10032000140000208860024030B5084C236840F675
:10033000FE7282409343D1E900252A43D1E902515C
:100340000D432A4382401A43226030BD00740040AE
:1003500010B50024FFF76AFF00F012F8FFF7B0FFB6
:10036000054A064932F8140000EB004041F8240029
:10037000641C202CF6D310BDBC0A00081400002019
:100380003EB50121084600F03BF913200190002002
:10039000ADF80000ADF80800ADF802004FF0804461
:1003A0006946204600F04AFA2021204600F03EFA35
:1003B0000121204600F02EFA3EBD002904D001683C
:1003C00041F0010101607047016821F00101016005
:1003D0007047000030B50368124A1340CC680A68C1
:1003E0002243D1E905452C432243CC6922430C6AC0
:1003F00022434C6A22438C6A22434C6B22438C6B0F
:1004000022431A430260426922F00703D1E90B2418
:1004100022431A4342610A6942604A6882608968DD
:10042000C16030BD3F801CF07047000070B586B0E1
:100430000121084600F0D6F80121102000F0EEF866
:100440001E4E07220A21304600F07AF807220921C1
:10045000304600F075F800248DF8164001208DF824
:10046000170002258DF81450410204918DF81550A3
:1004700004A9304600F026F88DF814506802049064
:1004800004A9304600F01EF84FF4E1300090ADF8BA
:100490000440ADF80640ADF80840ADF80C400C2023
:1004A000ADF80A00064C6946204600F019FA012111
:1004B000204600F001FA06B070BD000000000240C6
:1004C000001001402DE9F041002201274FF0030CFC
:1004D00007FA02F50B682B40AB422CD1066853009B
:1004E0000CFA03F4A64306600E79D0F800809E4013
:1004F00046EA080606600E79012E01D0022E12D1BE
:100500008668A64386604E79D0F808809E4046EA09
:10051000080686604668AE43466045688E79964018
:10052000B6B235434560C568A543C560CC799C40EB
:10053000C3681C43C460521C102AC9D3BDE8F081B3
:1005400010B54B07DB0E9A40C90800EB8100016A29
:100550000F249C40A1430162016A1143016210BD56
:1005600041837047FEE700002DE9FC41012188200E
:1005700000F038F84FF48065009501218DF80410E3
:1005800000208DF806008DF807108DF80500114F3A
:1005900069463846FFF796FF6C0000946946384676
:1005A000FFF790FF6600009669463846FFF78AFF1E
:1005B0000094094F69463846FFF784FF0549183112
:1005C0000D800C800E8021463846FFF7C9FFBDE83C
:1005D000FC810000001C0240000C0240FEE7704756
:1005E00070470000054A002903D0116801431160DB
:1005F0007047116881431160704700003038024035
:10060000054A002903D01168014311607047116841
:10061000814311607047000040380240054A0029BC
:1006200003D0116801431160704711688143116064
:10063000704700004438024070B5244B196801F03F
:100640000C01234C00291ED0224E04291DD008295C
:100650001DD00460196801F0F00109091E4A545CBC
:100660000168E14041601C6804F4E054A40A145D90
:1006700021FA04F484601B6803F460435B0BD25CD2
:10068000D140C16070BD0460E4E70660E2E70F4A54
:10069000121F1168C1F38055116801F03F0135B197
:1006A000B6FBF1F11468C4F38814614305E0B4FBB0
:1006B000F1F11468C4F3881461431268C2F3014273
:1006C000521C5200B1FBF2F10160C3E7083802404E
:1006D0000024F40040787D010000002070470000F5
:1006E0001CB50021019100912E4A106840F4803021
:1006F00010604FF4A043106800F40030009001989F
:10070000401C0190009810B901989842F3D11068EC
:10071000800302D50120009000E00091009801289C
:100720003FD120484030016841F0805101601E49AE
:10073000086840F4404008601A48083003680360C5
:10074000036843F400430360036843F4A053036069
:10075000041F164B2360136843F080731360136803
:100760009B01FCD50A6842F480320A604A68D203D1
:10077000FCD50A6842F400320A604A689203FCD54C
:100780000B4A40F205711160016821F0030101601C
:10079000016841F0020101600168C1F38101022991
:1007A000FAD11CBD0038024000700040195A4007C1
:1007B000003C02407047000010B51248016841F447
:1007C000700101601048016841F0010101600E4AAA
:1007D00000210832116002680C4B1A400260031DB0
:1007E0000B4A1A60026822F48022026006480C302C
:1007F0000160FFF775FF03494FF000608039086022
:1008000010BD000088ED00E000380240FFFFF6FE5A
:1008100010300024002904D0018841F0010101803A
:100820007047018821F0010101807047828822F021
:100830007002828082880A438280704730B50288C5
:10084000164C174DA0420DD0A8420BD0B0F1804FEE
:1008500008D0144B984205D0134B984202D0134B4A
:10086000984203D122F070034A881A43104B9842F1
:1008700006D0104B984203D022F440730A891A43E1
:1008800002804A68C2620A880285A04201D0A8425A
:1008900001D1897A01860121818230BD00000140A9
:1008A000000401400004004000080040000C00402B
:1008B0000010004000140040002904D0818941F458
:1008C000005181817047818921F4005181817047F5
:1008D0000246002012880A4200D001207047000022
:1008E0007FB504460D46208A20F44051E88808432D
:1008F0002082A08941F20C618843A9882A8911438A
:100900006A8902431143A181A08A20F44071A88919
:100910000843A0826846FFF78FFE1E48844202D03B
:100920001D48844201D1039800E00298A18909047E
:1009300008D500EBC00101EB001029684900B0FBAD
:10094000F1F007E000EBC00101EB0010296889001D
:10095000B0FBF1F06422B0FBF2F109010B096FF07A
:1009600018056B4300EB8300A3891D044FF032038D
:1009700007D503EBC000B0FBF2F000F0070008431E
:1009800006E003EB0010B0FBF2F000F00F000843AC
:1009900020817FBD0010014000140140C1F3080117
:1009A00081807047FEE70000014A024900F013B859
:1009B000F90900081000002002E008C8121F08C151
:1009C000002AFAD170477047002001E001C1121FD0
:1009D000002AFBD170472DE9F04116460F46044628
:1009E000002503E03946B047641C6D1C20780028C0
:1009F000F8D12846BDE8F08170B50446064DE1B255
:100A00002846FFF7CBFF80212846FFF761FF00282B
:100A1000F9D0204670BD000000100140FFF7A4FD92
:100A2000FFF704FD05A0FFF7BFFF0EA0FFF7BCFF17
:100A300014A0FFF7B9FFFFF78BFCFEE70D0A20BB00
:100A4000B6D3ADCAB9D3C3B1FCBBF0202053544DCB
:100A50003332204634323920BFAAB7A2B0E5A1A371
:100A60000D0A00000D0A20444143CAE4B3F6C0FD5C
:100A7000B3CCA3ACCAE4B3F6D5FDCFD2B2A80D0A6D
:100A8000000000000D0A20CAB9D3C3CABEB2A8C66E
:100A9000F7BCECB2E2BFAAB7A2B0E5B5C45041348E
:100AA000A1A2504135D2FDBDC5A3ACBFC9B2E2B5CC
:100AB000C3D5FDCFD2B2A80D0A2000009009100BBB
:100AC000720CA80DA70E640FD90FFF0FD90F640F7A
:100AD000A70EA80D720C100B900900087006F00408
:100AE0008E03580259019C002700000027009C003B
:100AF000590158028E03F004700600081C0B000810
:100B00000000002014000000B8090008300B0008A5
:100B10001400002084040000C80900080000000040
:100B20000102030401020304060708090000000093
:04000005080001AD41
:00000001FF
